{
	"decentralized-lottery-app.sol": {
		"Lottery": {
			"abi": [
				{
					"inputs": [],
					"stateMutability": "nonpayable",
					"type": "constructor"
				},
				{
					"inputs": [],
					"name": "getBalance",
					"outputs": [
						{
							"internalType": "uint256",
							"name": "",
							"type": "uint256"
						}
					],
					"stateMutability": "view",
					"type": "function"
				},
				{
					"inputs": [],
					"name": "manager",
					"outputs": [
						{
							"internalType": "address",
							"name": "",
							"type": "address"
						}
					],
					"stateMutability": "view",
					"type": "function"
				},
				{
					"inputs": [
						{
							"internalType": "uint256",
							"name": "",
							"type": "uint256"
						}
					],
					"name": "participants",
					"outputs": [
						{
							"internalType": "address payable",
							"name": "",
							"type": "address"
						}
					],
					"stateMutability": "view",
					"type": "function"
				},
				{
					"inputs": [],
					"name": "random",
					"outputs": [
						{
							"internalType": "uint256",
							"name": "",
							"type": "uint256"
						}
					],
					"stateMutability": "view",
					"type": "function"
				},
				{
					"inputs": [],
					"name": "selectWinner",
					"outputs": [],
					"stateMutability": "nonpayable",
					"type": "function"
				},
				{
					"stateMutability": "payable",
					"type": "receive"
				}
			],
			"devdoc": {
				"kind": "dev",
				"methods": {},
				"version": 1
			},
			"evm": {
				"assembly": "    /* \"decentralized-lottery-app.sol\":65:1579  contract Lottery{... */\n  mstore(0x40, 0x80)\n    /* \"decentralized-lottery-app.sol\":160:290  constructor(){... */\n  callvalue\n  dup1\n  iszero\n  tag_1\n  jumpi\n  0x00\n  dup1\n  revert\ntag_1:\n  pop\n    /* \"decentralized-lottery-app.sol\":193:203  msg.sender */\n  caller\n    /* \"decentralized-lottery-app.sol\":183:190  manager */\n  0x00\n  dup1\n    /* \"decentralized-lottery-app.sol\":183:203  manager = msg.sender */\n  0x0100\n  exp\n  dup2\n  sload\n  dup2\n  0xffffffffffffffffffffffffffffffffffffffff\n  mul\n  not\n  and\n  swap1\n  dup4\n  0xffffffffffffffffffffffffffffffffffffffff\n  and\n  mul\n  or\n  swap1\n  sstore\n  pop\n    /* \"decentralized-lottery-app.sol\":65:1579  contract Lottery{... */\n  dataSize(sub_0)\n  dup1\n  dataOffset(sub_0)\n  0x00\n  codecopy\n  0x00\n  return\nstop\n\nsub_0: assembly {\n        /* \"decentralized-lottery-app.sol\":65:1579  contract Lottery{... */\n      mstore(0x40, 0x80)\n      jumpi(tag_1, lt(calldatasize, 0x04))\n      shr(0xe0, calldataload(0x00))\n      dup1\n      0x12065fe0\n      eq\n      tag_3\n      jumpi\n      dup1\n      0x33a99e04\n      eq\n      tag_4\n      jumpi\n      dup1\n      0x35c1d349\n      eq\n      tag_5\n      jumpi\n      dup1\n      0x481c6a75\n      eq\n      tag_6\n      jumpi\n      dup1\n      0x5ec01e4d\n      eq\n      tag_7\n      jumpi\n      jump(tag_2)\n    tag_1:\n      jumpi(tag_2, calldatasize)\n        /* \"decentralized-lottery-app.sol\":475:482  2 ether */\n      0x1bc16d674ec80000\n        /* \"decentralized-lottery-app.sol\":463:472  msg.value */\n      callvalue\n        /* \"decentralized-lottery-app.sol\":463:482  msg.value== 2 ether */\n      eq\n        /* \"decentralized-lottery-app.sol\":455:534  require(msg.value== 2 ether, \"Only 2 ethers is allowed to transfer at once...\") */\n      tag_10\n      jumpi\n      mload(0x40)\n      0x08c379a000000000000000000000000000000000000000000000000000000000\n      dup2\n      mstore\n      0x04\n      add\n      tag_11\n      swap1\n      tag_12\n      jump\t// in\n    tag_11:\n      mload(0x40)\n      dup1\n      swap2\n      sub\n      swap1\n      revert\n    tag_10:\n        /* \"decentralized-lottery-app.sol\":544:556  participants */\n      0x01\n        /* \"decentralized-lottery-app.sol\":570:580  msg.sender */\n      caller\n        /* \"decentralized-lottery-app.sol\":544:582  participants.push(payable(msg.sender)) */\n      swap1\n      dup1\n      0x01\n      dup2\n      sload\n      add\n      dup1\n      dup3\n      sstore\n      dup1\n      swap2\n      pop\n      pop\n      0x01\n      swap1\n      sub\n      swap1\n      0x00\n      mstore\n      keccak256(0x00, 0x20)\n      add\n      0x00\n      swap1\n      swap2\n      swap1\n      swap2\n      swap1\n      swap2\n      0x0100\n      exp\n      dup2\n      sload\n      dup2\n      0xffffffffffffffffffffffffffffffffffffffff\n      mul\n      not\n      and\n      swap1\n      dup4\n      0xffffffffffffffffffffffffffffffffffffffff\n      and\n      mul\n      or\n      swap1\n      sstore\n      pop\n        /* \"decentralized-lottery-app.sol\":65:1579  contract Lottery{... */\n      stop\n    tag_2:\n      0x00\n      dup1\n      revert\n        /* \"decentralized-lottery-app.sol\":635:830  function getBalance() public view returns(uint)... */\n    tag_3:\n      callvalue\n      dup1\n      iszero\n      tag_14\n      jumpi\n      0x00\n      dup1\n      revert\n    tag_14:\n      pop\n      tag_15\n      tag_16\n      jump\t// in\n    tag_15:\n      mload(0x40)\n      tag_17\n      swap2\n      swap1\n      tag_18\n      jump\t// in\n    tag_17:\n      mload(0x40)\n      dup1\n      swap2\n      sub\n      swap1\n      return\n        /* \"decentralized-lottery-app.sol\":1064:1577  function selectWinner() public{... */\n    tag_4:\n      callvalue\n      dup1\n      iszero\n      tag_19\n      jumpi\n      0x00\n      dup1\n      revert\n    tag_19:\n      pop\n      tag_20\n      tag_21\n      jump\t// in\n    tag_20:\n      stop\n        /* \"decentralized-lottery-app.sol\":116:153  address payable[] public participants */\n    tag_5:\n      callvalue\n      dup1\n      iszero\n      tag_22\n      jumpi\n      0x00\n      dup1\n      revert\n    tag_22:\n      pop\n      tag_23\n      0x04\n      dup1\n      calldatasize\n      sub\n      dup2\n      add\n      swap1\n      tag_24\n      swap2\n      swap1\n      tag_25\n      jump\t// in\n    tag_24:\n      tag_26\n      jump\t// in\n    tag_23:\n      mload(0x40)\n      tag_27\n      swap2\n      swap1\n      tag_28\n      jump\t// in\n    tag_27:\n      mload(0x40)\n      dup1\n      swap2\n      sub\n      swap1\n      return\n        /* \"decentralized-lottery-app.sol\":88:110  address public manager */\n    tag_6:\n      callvalue\n      dup1\n      iszero\n      tag_29\n      jumpi\n      0x00\n      dup1\n      revert\n    tag_29:\n      pop\n      tag_30\n      tag_31\n      jump\t// in\n    tag_30:\n      mload(0x40)\n      tag_32\n      swap2\n      swap1\n      tag_33\n      jump\t// in\n    tag_32:\n      mload(0x40)\n      dup1\n      swap2\n      sub\n      swap1\n      return\n        /* \"decentralized-lottery-app.sol\":873:1034  function random() public view returns(uint){... */\n    tag_7:\n      callvalue\n      dup1\n      iszero\n      tag_34\n      jumpi\n      0x00\n      dup1\n      revert\n    tag_34:\n      pop\n      tag_35\n      tag_36\n      jump\t// in\n    tag_35:\n      mload(0x40)\n      tag_37\n      swap2\n      swap1\n      tag_18\n      jump\t// in\n    tag_37:\n      mload(0x40)\n      dup1\n      swap2\n      sub\n      swap1\n      return\n        /* \"decentralized-lottery-app.sol\":635:830  function getBalance() public view returns(uint)... */\n    tag_16:\n        /* \"decentralized-lottery-app.sol\":677:681  uint */\n      0x00\n        /* \"decentralized-lottery-app.sol\":719:726  manager */\n      dup1\n      0x00\n      swap1\n      sload\n      swap1\n      0x0100\n      exp\n      swap1\n      div\n      0xffffffffffffffffffffffffffffffffffffffff\n      and\n        /* \"decentralized-lottery-app.sol\":705:726  msg.sender == manager */\n      0xffffffffffffffffffffffffffffffffffffffff\n      and\n        /* \"decentralized-lottery-app.sol\":705:715  msg.sender */\n      caller\n        /* \"decentralized-lottery-app.sol\":705:726  msg.sender == manager */\n      0xffffffffffffffffffffffffffffffffffffffff\n      and\n      eq\n        /* \"decentralized-lottery-app.sol\":697:785  require(msg.sender == manager, \"only manager has the access to view total balance.....\") */\n      tag_39\n      jumpi\n      mload(0x40)\n      0x08c379a000000000000000000000000000000000000000000000000000000000\n      dup2\n      mstore\n      0x04\n      add\n      tag_40\n      swap1\n      tag_41\n      jump\t// in\n    tag_40:\n      mload(0x40)\n      dup1\n      swap2\n      sub\n      swap1\n      revert\n    tag_39:\n        /* \"decentralized-lottery-app.sol\":802:823  address(this).balance */\n      selfbalance\n        /* \"decentralized-lottery-app.sol\":795:823  return address(this).balance */\n      swap1\n      pop\n        /* \"decentralized-lottery-app.sol\":635:830  function getBalance() public view returns(uint)... */\n      swap1\n      jump\t// out\n        /* \"decentralized-lottery-app.sol\":1064:1577  function selectWinner() public{... */\n    tag_21:\n        /* \"decentralized-lottery-app.sol\":1126:1133  manager */\n      0x00\n      dup1\n      sload\n      swap1\n      0x0100\n      exp\n      swap1\n      div\n      0xffffffffffffffffffffffffffffffffffffffff\n      and\n        /* \"decentralized-lottery-app.sol\":1112:1133  msg.sender == manager */\n      0xffffffffffffffffffffffffffffffffffffffff\n      and\n        /* \"decentralized-lottery-app.sol\":1112:1122  msg.sender */\n      caller\n        /* \"decentralized-lottery-app.sol\":1112:1133  msg.sender == manager */\n      0xffffffffffffffffffffffffffffffffffffffff\n      and\n      eq\n        /* \"decentralized-lottery-app.sol\":1104:1186  require(msg.sender == manager, \"only manager has access to this functionality...\") */\n      tag_43\n      jumpi\n      mload(0x40)\n      0x08c379a000000000000000000000000000000000000000000000000000000000\n      dup2\n      mstore\n      0x04\n      add\n      tag_44\n      swap1\n      tag_45\n      jump\t// in\n    tag_44:\n      mload(0x40)\n      dup1\n      swap2\n      sub\n      swap1\n      revert\n    tag_43:\n        /* \"decentralized-lottery-app.sol\":1225:1226  3 */\n      0x03\n        /* \"decentralized-lottery-app.sol\":1204:1216  participants */\n      0x01\n        /* \"decentralized-lottery-app.sol\":1204:1223  participants.length */\n      dup1\n      sload\n      swap1\n      pop\n        /* \"decentralized-lottery-app.sol\":1204:1226  participants.length>=3 */\n      lt\n      iszero\n        /* \"decentralized-lottery-app.sol\":1196:1259  require(participants.length>=3, \"not enough participants.....\") */\n      tag_46\n      jumpi\n      mload(0x40)\n      0x08c379a000000000000000000000000000000000000000000000000000000000\n      dup2\n      mstore\n      0x04\n      add\n      tag_47\n      swap1\n      tag_48\n      jump\t// in\n    tag_47:\n      mload(0x40)\n      dup1\n      swap2\n      sub\n      swap1\n      revert\n    tag_46:\n        /* \"decentralized-lottery-app.sol\":1278:1284  uint r */\n      0x00\n        /* \"decentralized-lottery-app.sol\":1287:1295  random() */\n      tag_49\n        /* \"decentralized-lottery-app.sol\":1287:1293  random */\n      tag_36\n        /* \"decentralized-lottery-app.sol\":1287:1295  random() */\n      jump\t// in\n    tag_49:\n        /* \"decentralized-lottery-app.sol\":1278:1295  uint r = random() */\n      swap1\n      pop\n        /* \"decentralized-lottery-app.sol\":1305:1327  address payable winner */\n      0x00\n        /* \"decentralized-lottery-app.sol\":1337:1347  uint index */\n      dup1\n        /* \"decentralized-lottery-app.sol\":1354:1366  participants */\n      0x01\n        /* \"decentralized-lottery-app.sol\":1354:1373  participants.length */\n      dup1\n      sload\n      swap1\n      pop\n        /* \"decentralized-lottery-app.sol\":1350:1351  r */\n      dup4\n        /* \"decentralized-lottery-app.sol\":1350:1373  r % participants.length */\n      tag_50\n      swap2\n      swap1\n      tag_51\n      jump\t// in\n    tag_50:\n        /* \"decentralized-lottery-app.sol\":1337:1373  uint index = r % participants.length */\n      swap1\n      pop\n        /* \"decentralized-lottery-app.sol\":1391:1403  participants */\n      0x01\n        /* \"decentralized-lottery-app.sol\":1404:1409  index */\n      dup2\n        /* \"decentralized-lottery-app.sol\":1391:1410  participants[index] */\n      dup2\n      sload\n      dup2\n      lt\n      tag_52\n      jumpi\n      tag_53\n      tag_54\n      jump\t// in\n    tag_53:\n    tag_52:\n      swap1\n      0x00\n      mstore\n      keccak256(0x00, 0x20)\n      add\n      0x00\n      swap1\n      sload\n      swap1\n      0x0100\n      exp\n      swap1\n      div\n      0xffffffffffffffffffffffffffffffffffffffff\n      and\n        /* \"decentralized-lottery-app.sol\":1383:1410  winner= participants[index] */\n      swap2\n      pop\n        /* \"decentralized-lottery-app.sol\":1465:1471  winner */\n      dup2\n        /* \"decentralized-lottery-app.sol\":1465:1480  winner.transfer */\n      0xffffffffffffffffffffffffffffffffffffffff\n      and\n        /* \"decentralized-lottery-app.sol\":1465:1494  winner.transfer(getBalance()) */\n      0x08fc\n        /* \"decentralized-lottery-app.sol\":1481:1493  getBalance() */\n      tag_56\n        /* \"decentralized-lottery-app.sol\":1481:1491  getBalance */\n      tag_16\n        /* \"decentralized-lottery-app.sol\":1481:1493  getBalance() */\n      jump\t// in\n    tag_56:\n        /* \"decentralized-lottery-app.sol\":1465:1494  winner.transfer(getBalance()) */\n      swap1\n      dup2\n      iszero\n      mul\n      swap1\n      mload(0x40)\n      0x00\n      mload(0x40)\n      dup1\n      dup4\n      sub\n      dup2\n      dup6\n      dup9\n      dup9\n      call\n      swap4\n      pop\n      pop\n      pop\n      pop\n      iszero\n      dup1\n      iszero\n      tag_58\n      jumpi\n      returndatasize\n      0x00\n      dup1\n      returndatacopy\n      revert(0x00, returndatasize)\n    tag_58:\n      pop\n        /* \"decentralized-lottery-app.sol\":1541:1542  0 */\n      0x00\n        /* \"decentralized-lottery-app.sol\":1518:1543  new address payable[] (0) */\n      0xffffffffffffffff\n      dup2\n      gt\n      iszero\n      tag_59\n      jumpi\n      tag_60\n      tag_61\n      jump\t// in\n    tag_60:\n    tag_59:\n      mload(0x40)\n      swap1\n      dup1\n      dup3\n      mstore\n      dup1\n      0x20\n      mul\n      0x20\n      add\n      dup3\n      add\n      0x40\n      mstore\n      dup1\n      iszero\n      tag_62\n      jumpi\n      dup2\n      0x20\n      add\n      0x20\n      dup3\n      mul\n      dup1\n      calldatasize\n      dup4\n      calldatacopy\n      dup1\n      dup3\n      add\n      swap2\n      pop\n      pop\n      swap1\n      pop\n    tag_62:\n      pop\n        /* \"decentralized-lottery-app.sol\":1504:1516  participants */\n      0x01\n        /* \"decentralized-lottery-app.sol\":1504:1543  participants= new address payable[] (0) */\n      swap1\n      dup1\n      mload\n      swap1\n      0x20\n      add\n      swap1\n      tag_63\n      swap3\n      swap2\n      swap1\n      tag_64\n      jump\t// in\n    tag_63:\n      pop\n        /* \"decentralized-lottery-app.sol\":1094:1577  {... */\n      pop\n      pop\n      pop\n        /* \"decentralized-lottery-app.sol\":1064:1577  function selectWinner() public{... */\n      jump\t// out\n        /* \"decentralized-lottery-app.sol\":116:153  address payable[] public participants */\n    tag_26:\n      0x01\n      dup2\n      dup2\n      sload\n      dup2\n      lt\n      tag_65\n      jumpi\n      0x00\n      dup1\n      revert\n    tag_65:\n      swap1\n      0x00\n      mstore\n      keccak256(0x00, 0x20)\n      add\n      0x00\n      swap2\n      pop\n      sload\n      swap1\n      0x0100\n      exp\n      swap1\n      div\n      0xffffffffffffffffffffffffffffffffffffffff\n      and\n      dup2\n      jump\t// out\n        /* \"decentralized-lottery-app.sol\":88:110  address public manager */\n    tag_31:\n      0x00\n      dup1\n      sload\n      swap1\n      0x0100\n      exp\n      swap1\n      div\n      0xffffffffffffffffffffffffffffffffffffffff\n      and\n      dup2\n      jump\t// out\n        /* \"decentralized-lottery-app.sol\":873:1034  function random() public view returns(uint){... */\n    tag_36:\n        /* \"decentralized-lottery-app.sol\":911:915  uint */\n      0x00\n        /* \"decentralized-lottery-app.sol\":965:981  block.difficulty */\n      difficulty\n        /* \"decentralized-lottery-app.sol\":983:998  block.timestamp */\n      timestamp\n        /* \"decentralized-lottery-app.sol\":1000:1012  participants */\n      0x01\n        /* \"decentralized-lottery-app.sol\":1000:1019  participants.length */\n      dup1\n      sload\n      swap1\n      pop\n        /* \"decentralized-lottery-app.sol\":948:1020  abi.encodePacked(block.difficulty, block.timestamp, participants.length) */\n      add(0x20, mload(0x40))\n      tag_68\n      swap4\n      swap3\n      swap2\n      swap1\n      tag_69\n      jump\t// in\n    tag_68:\n      mload(0x40)\n      0x20\n      dup2\n      dup4\n      sub\n      sub\n      dup2\n      mstore\n      swap1\n      0x40\n      mstore\n        /* \"decentralized-lottery-app.sol\":938:1021  keccak256(abi.encodePacked(block.difficulty, block.timestamp, participants.length)) */\n      dup1\n      mload\n      swap1\n      0x20\n      add\n      keccak256\n        /* \"decentralized-lottery-app.sol\":933:1022  uint(keccak256(abi.encodePacked(block.difficulty, block.timestamp, participants.length))) */\n      0x00\n      shr\n        /* \"decentralized-lottery-app.sol\":926:1022  return uint(keccak256(abi.encodePacked(block.difficulty, block.timestamp, participants.length))) */\n      swap1\n      pop\n        /* \"decentralized-lottery-app.sol\":873:1034  function random() public view returns(uint){... */\n      swap1\n      jump\t// out\n    tag_64:\n      dup3\n      dup1\n      sload\n      dup3\n      dup3\n      sstore\n      swap1\n      0x00\n      mstore\n      keccak256(0x00, 0x20)\n      swap1\n      dup2\n      add\n      swap3\n      dup3\n      iszero\n      tag_70\n      jumpi\n      swap2\n      0x20\n      mul\n      dup3\n      add\n    tag_71:\n      dup3\n      dup2\n      gt\n      iszero\n      tag_72\n      jumpi\n      dup3\n      mload\n      dup3\n      exp(0x0100, 0x00)\n      dup2\n      sload\n      dup2\n      0xffffffffffffffffffffffffffffffffffffffff\n      mul\n      not\n      and\n      swap1\n      dup4\n      0xffffffffffffffffffffffffffffffffffffffff\n      and\n      mul\n      or\n      swap1\n      sstore\n      pop\n      swap2\n      0x20\n      add\n      swap2\n      swap1\n      0x01\n      add\n      swap1\n      jump(tag_71)\n    tag_72:\n    tag_70:\n      pop\n      swap1\n      pop\n      tag_73\n      swap2\n      swap1\n      tag_74\n      jump\t// in\n    tag_73:\n      pop\n      swap1\n      jump\t// out\n    tag_74:\n    tag_75:\n      dup1\n      dup3\n      gt\n      iszero\n      tag_76\n      jumpi\n      0x00\n      dup2\n      0x00\n      swap1\n      sstore\n      pop\n      0x01\n      add\n      jump(tag_75)\n    tag_76:\n      pop\n      swap1\n      jump\t// out\n        /* \"#utility.yul\":7:146   */\n    tag_78:\n        /* \"#utility.yul\":53:58   */\n      0x00\n        /* \"#utility.yul\":91:97   */\n      dup2\n        /* \"#utility.yul\":78:98   */\n      calldataload\n        /* \"#utility.yul\":69:98   */\n      swap1\n      pop\n        /* \"#utility.yul\":107:140   */\n      tag_80\n        /* \"#utility.yul\":134:139   */\n      dup2\n        /* \"#utility.yul\":107:140   */\n      tag_81\n      jump\t// in\n    tag_80:\n        /* \"#utility.yul\":7:146   */\n      swap3\n      swap2\n      pop\n      pop\n      jump\t// out\n        /* \"#utility.yul\":152:481   */\n    tag_25:\n        /* \"#utility.yul\":211:217   */\n      0x00\n        /* \"#utility.yul\":260:262   */\n      0x20\n        /* \"#utility.yul\":248:257   */\n      dup3\n        /* \"#utility.yul\":239:246   */\n      dup5\n        /* \"#utility.yul\":235:258   */\n      sub\n        /* \"#utility.yul\":231:263   */\n      slt\n        /* \"#utility.yul\":228:347   */\n      iszero\n      tag_83\n      jumpi\n        /* \"#utility.yul\":266:345   */\n      tag_84\n      tag_85\n      jump\t// in\n    tag_84:\n        /* \"#utility.yul\":228:347   */\n    tag_83:\n        /* \"#utility.yul\":386:387   */\n      0x00\n        /* \"#utility.yul\":411:464   */\n      tag_86\n        /* \"#utility.yul\":456:463   */\n      dup5\n        /* \"#utility.yul\":447:453   */\n      dup3\n        /* \"#utility.yul\":436:445   */\n      dup6\n        /* \"#utility.yul\":432:454   */\n      add\n        /* \"#utility.yul\":411:464   */\n      tag_78\n      jump\t// in\n    tag_86:\n        /* \"#utility.yul\":401:464   */\n      swap2\n      pop\n        /* \"#utility.yul\":357:474   */\n      pop\n        /* \"#utility.yul\":152:481   */\n      swap3\n      swap2\n      pop\n      pop\n      jump\t// out\n        /* \"#utility.yul\":487:629   */\n    tag_87:\n        /* \"#utility.yul\":590:622   */\n      tag_89\n        /* \"#utility.yul\":616:621   */\n      dup2\n        /* \"#utility.yul\":590:622   */\n      tag_90\n      jump\t// in\n    tag_89:\n        /* \"#utility.yul\":585:588   */\n      dup3\n        /* \"#utility.yul\":578:623   */\n      mstore\n        /* \"#utility.yul\":487:629   */\n      pop\n      pop\n      jump\t// out\n        /* \"#utility.yul\":635:753   */\n    tag_91:\n        /* \"#utility.yul\":722:746   */\n      tag_93\n        /* \"#utility.yul\":740:745   */\n      dup2\n        /* \"#utility.yul\":722:746   */\n      tag_94\n      jump\t// in\n    tag_93:\n        /* \"#utility.yul\":717:720   */\n      dup3\n        /* \"#utility.yul\":710:747   */\n      mstore\n        /* \"#utility.yul\":635:753   */\n      pop\n      pop\n      jump\t// out\n        /* \"#utility.yul\":759:1125   */\n    tag_95:\n        /* \"#utility.yul\":901:904   */\n      0x00\n        /* \"#utility.yul\":922:989   */\n      tag_97\n        /* \"#utility.yul\":986:988   */\n      0x30\n        /* \"#utility.yul\":981:984   */\n      dup4\n        /* \"#utility.yul\":922:989   */\n      tag_98\n      jump\t// in\n    tag_97:\n        /* \"#utility.yul\":915:989   */\n      swap2\n      pop\n        /* \"#utility.yul\":998:1091   */\n      tag_99\n        /* \"#utility.yul\":1087:1090   */\n      dup3\n        /* \"#utility.yul\":998:1091   */\n      tag_100\n      jump\t// in\n    tag_99:\n        /* \"#utility.yul\":1116:1118   */\n      0x40\n        /* \"#utility.yul\":1111:1114   */\n      dup3\n        /* \"#utility.yul\":1107:1119   */\n      add\n        /* \"#utility.yul\":1100:1119   */\n      swap1\n      pop\n        /* \"#utility.yul\":759:1125   */\n      swap2\n      swap1\n      pop\n      jump\t// out\n        /* \"#utility.yul\":1131:1497   */\n    tag_101:\n        /* \"#utility.yul\":1273:1276   */\n      0x00\n        /* \"#utility.yul\":1294:1361   */\n      tag_103\n        /* \"#utility.yul\":1358:1360   */\n      0x1c\n        /* \"#utility.yul\":1353:1356   */\n      dup4\n        /* \"#utility.yul\":1294:1361   */\n      tag_98\n      jump\t// in\n    tag_103:\n        /* \"#utility.yul\":1287:1361   */\n      swap2\n      pop\n        /* \"#utility.yul\":1370:1463   */\n      tag_104\n        /* \"#utility.yul\":1459:1462   */\n      dup3\n        /* \"#utility.yul\":1370:1463   */\n      tag_105\n      jump\t// in\n    tag_104:\n        /* \"#utility.yul\":1488:1490   */\n      0x20\n        /* \"#utility.yul\":1483:1486   */\n      dup3\n        /* \"#utility.yul\":1479:1491   */\n      add\n        /* \"#utility.yul\":1472:1491   */\n      swap1\n      pop\n        /* \"#utility.yul\":1131:1497   */\n      swap2\n      swap1\n      pop\n      jump\t// out\n        /* \"#utility.yul\":1503:1869   */\n    tag_106:\n        /* \"#utility.yul\":1645:1648   */\n      0x00\n        /* \"#utility.yul\":1666:1733   */\n      tag_108\n        /* \"#utility.yul\":1730:1732   */\n      0x36\n        /* \"#utility.yul\":1725:1728   */\n      dup4\n        /* \"#utility.yul\":1666:1733   */\n      tag_98\n      jump\t// in\n    tag_108:\n        /* \"#utility.yul\":1659:1733   */\n      swap2\n      pop\n        /* \"#utility.yul\":1742:1835   */\n      tag_109\n        /* \"#utility.yul\":1831:1834   */\n      dup3\n        /* \"#utility.yul\":1742:1835   */\n      tag_110\n      jump\t// in\n    tag_109:\n        /* \"#utility.yul\":1860:1862   */\n      0x40\n        /* \"#utility.yul\":1855:1858   */\n      dup3\n        /* \"#utility.yul\":1851:1863   */\n      add\n        /* \"#utility.yul\":1844:1863   */\n      swap1\n      pop\n        /* \"#utility.yul\":1503:1869   */\n      swap2\n      swap1\n      pop\n      jump\t// out\n        /* \"#utility.yul\":1875:2241   */\n    tag_111:\n        /* \"#utility.yul\":2017:2020   */\n      0x00\n        /* \"#utility.yul\":2038:2105   */\n      tag_113\n        /* \"#utility.yul\":2102:2104   */\n      0x2f\n        /* \"#utility.yul\":2097:2100   */\n      dup4\n        /* \"#utility.yul\":2038:2105   */\n      tag_98\n      jump\t// in\n    tag_113:\n        /* \"#utility.yul\":2031:2105   */\n      swap2\n      pop\n        /* \"#utility.yul\":2114:2207   */\n      tag_114\n        /* \"#utility.yul\":2203:2206   */\n      dup3\n        /* \"#utility.yul\":2114:2207   */\n      tag_115\n      jump\t// in\n    tag_114:\n        /* \"#utility.yul\":2232:2234   */\n      0x40\n        /* \"#utility.yul\":2227:2230   */\n      dup3\n        /* \"#utility.yul\":2223:2235   */\n      add\n        /* \"#utility.yul\":2216:2235   */\n      swap1\n      pop\n        /* \"#utility.yul\":1875:2241   */\n      swap2\n      swap1\n      pop\n      jump\t// out\n        /* \"#utility.yul\":2247:2365   */\n    tag_116:\n        /* \"#utility.yul\":2334:2358   */\n      tag_118\n        /* \"#utility.yul\":2352:2357   */\n      dup2\n        /* \"#utility.yul\":2334:2358   */\n      tag_119\n      jump\t// in\n    tag_118:\n        /* \"#utility.yul\":2329:2332   */\n      dup3\n        /* \"#utility.yul\":2322:2359   */\n      mstore\n        /* \"#utility.yul\":2247:2365   */\n      pop\n      pop\n      jump\t// out\n        /* \"#utility.yul\":2371:2528   */\n    tag_120:\n        /* \"#utility.yul\":2476:2521   */\n      tag_122\n        /* \"#utility.yul\":2496:2520   */\n      tag_123\n        /* \"#utility.yul\":2514:2519   */\n      dup3\n        /* \"#utility.yul\":2496:2520   */\n      tag_119\n      jump\t// in\n    tag_123:\n        /* \"#utility.yul\":2476:2521   */\n      tag_124\n      jump\t// in\n    tag_122:\n        /* \"#utility.yul\":2471:2474   */\n      dup3\n        /* \"#utility.yul\":2464:2522   */\n      mstore\n        /* \"#utility.yul\":2371:2528   */\n      pop\n      pop\n      jump\t// out\n        /* \"#utility.yul\":2534:3072   */\n    tag_69:\n        /* \"#utility.yul\":2702:2705   */\n      0x00\n        /* \"#utility.yul\":2717:2792   */\n      tag_126\n        /* \"#utility.yul\":2788:2791   */\n      dup3\n        /* \"#utility.yul\":2779:2785   */\n      dup7\n        /* \"#utility.yul\":2717:2792   */\n      tag_120\n      jump\t// in\n    tag_126:\n        /* \"#utility.yul\":2817:2819   */\n      0x20\n        /* \"#utility.yul\":2812:2815   */\n      dup3\n        /* \"#utility.yul\":2808:2820   */\n      add\n        /* \"#utility.yul\":2801:2820   */\n      swap2\n      pop\n        /* \"#utility.yul\":2830:2905   */\n      tag_127\n        /* \"#utility.yul\":2901:2904   */\n      dup3\n        /* \"#utility.yul\":2892:2898   */\n      dup6\n        /* \"#utility.yul\":2830:2905   */\n      tag_120\n      jump\t// in\n    tag_127:\n        /* \"#utility.yul\":2930:2932   */\n      0x20\n        /* \"#utility.yul\":2925:2928   */\n      dup3\n        /* \"#utility.yul\":2921:2933   */\n      add\n        /* \"#utility.yul\":2914:2933   */\n      swap2\n      pop\n        /* \"#utility.yul\":2943:3018   */\n      tag_128\n        /* \"#utility.yul\":3014:3017   */\n      dup3\n        /* \"#utility.yul\":3005:3011   */\n      dup5\n        /* \"#utility.yul\":2943:3018   */\n      tag_120\n      jump\t// in\n    tag_128:\n        /* \"#utility.yul\":3043:3045   */\n      0x20\n        /* \"#utility.yul\":3038:3041   */\n      dup3\n        /* \"#utility.yul\":3034:3046   */\n      add\n        /* \"#utility.yul\":3027:3046   */\n      swap2\n      pop\n        /* \"#utility.yul\":3063:3066   */\n      dup2\n        /* \"#utility.yul\":3056:3066   */\n      swap1\n      pop\n        /* \"#utility.yul\":2534:3072   */\n      swap5\n      swap4\n      pop\n      pop\n      pop\n      pop\n      jump\t// out\n        /* \"#utility.yul\":3078:3300   */\n    tag_33:\n        /* \"#utility.yul\":3171:3175   */\n      0x00\n        /* \"#utility.yul\":3209:3211   */\n      0x20\n        /* \"#utility.yul\":3198:3207   */\n      dup3\n        /* \"#utility.yul\":3194:3212   */\n      add\n        /* \"#utility.yul\":3186:3212   */\n      swap1\n      pop\n        /* \"#utility.yul\":3222:3293   */\n      tag_130\n        /* \"#utility.yul\":3290:3291   */\n      0x00\n        /* \"#utility.yul\":3279:3288   */\n      dup4\n        /* \"#utility.yul\":3275:3292   */\n      add\n        /* \"#utility.yul\":3266:3272   */\n      dup5\n        /* \"#utility.yul\":3222:3293   */\n      tag_91\n      jump\t// in\n    tag_130:\n        /* \"#utility.yul\":3078:3300   */\n      swap3\n      swap2\n      pop\n      pop\n      jump\t// out\n        /* \"#utility.yul\":3306:3560   */\n    tag_28:\n        /* \"#utility.yul\":3415:3419   */\n      0x00\n        /* \"#utility.yul\":3453:3455   */\n      0x20\n        /* \"#utility.yul\":3442:3451   */\n      dup3\n        /* \"#utility.yul\":3438:3456   */\n      add\n        /* \"#utility.yul\":3430:3456   */\n      swap1\n      pop\n        /* \"#utility.yul\":3466:3553   */\n      tag_132\n        /* \"#utility.yul\":3550:3551   */\n      0x00\n        /* \"#utility.yul\":3539:3548   */\n      dup4\n        /* \"#utility.yul\":3535:3552   */\n      add\n        /* \"#utility.yul\":3526:3532   */\n      dup5\n        /* \"#utility.yul\":3466:3553   */\n      tag_87\n      jump\t// in\n    tag_132:\n        /* \"#utility.yul\":3306:3560   */\n      swap3\n      swap2\n      pop\n      pop\n      jump\t// out\n        /* \"#utility.yul\":3566:3985   */\n    tag_45:\n        /* \"#utility.yul\":3732:3736   */\n      0x00\n        /* \"#utility.yul\":3770:3772   */\n      0x20\n        /* \"#utility.yul\":3759:3768   */\n      dup3\n        /* \"#utility.yul\":3755:3773   */\n      add\n        /* \"#utility.yul\":3747:3773   */\n      swap1\n      pop\n        /* \"#utility.yul\":3819:3828   */\n      dup2\n        /* \"#utility.yul\":3813:3817   */\n      dup2\n        /* \"#utility.yul\":3809:3829   */\n      sub\n        /* \"#utility.yul\":3805:3806   */\n      0x00\n        /* \"#utility.yul\":3794:3803   */\n      dup4\n        /* \"#utility.yul\":3790:3807   */\n      add\n        /* \"#utility.yul\":3783:3830   */\n      mstore\n        /* \"#utility.yul\":3847:3978   */\n      tag_134\n        /* \"#utility.yul\":3973:3977   */\n      dup2\n        /* \"#utility.yul\":3847:3978   */\n      tag_95\n      jump\t// in\n    tag_134:\n        /* \"#utility.yul\":3839:3978   */\n      swap1\n      pop\n        /* \"#utility.yul\":3566:3985   */\n      swap2\n      swap1\n      pop\n      jump\t// out\n        /* \"#utility.yul\":3991:4410   */\n    tag_48:\n        /* \"#utility.yul\":4157:4161   */\n      0x00\n        /* \"#utility.yul\":4195:4197   */\n      0x20\n        /* \"#utility.yul\":4184:4193   */\n      dup3\n        /* \"#utility.yul\":4180:4198   */\n      add\n        /* \"#utility.yul\":4172:4198   */\n      swap1\n      pop\n        /* \"#utility.yul\":4244:4253   */\n      dup2\n        /* \"#utility.yul\":4238:4242   */\n      dup2\n        /* \"#utility.yul\":4234:4254   */\n      sub\n        /* \"#utility.yul\":4230:4231   */\n      0x00\n        /* \"#utility.yul\":4219:4228   */\n      dup4\n        /* \"#utility.yul\":4215:4232   */\n      add\n        /* \"#utility.yul\":4208:4255   */\n      mstore\n        /* \"#utility.yul\":4272:4403   */\n      tag_136\n        /* \"#utility.yul\":4398:4402   */\n      dup2\n        /* \"#utility.yul\":4272:4403   */\n      tag_101\n      jump\t// in\n    tag_136:\n        /* \"#utility.yul\":4264:4403   */\n      swap1\n      pop\n        /* \"#utility.yul\":3991:4410   */\n      swap2\n      swap1\n      pop\n      jump\t// out\n        /* \"#utility.yul\":4416:4835   */\n    tag_41:\n        /* \"#utility.yul\":4582:4586   */\n      0x00\n        /* \"#utility.yul\":4620:4622   */\n      0x20\n        /* \"#utility.yul\":4609:4618   */\n      dup3\n        /* \"#utility.yul\":4605:4623   */\n      add\n        /* \"#utility.yul\":4597:4623   */\n      swap1\n      pop\n        /* \"#utility.yul\":4669:4678   */\n      dup2\n        /* \"#utility.yul\":4663:4667   */\n      dup2\n        /* \"#utility.yul\":4659:4679   */\n      sub\n        /* \"#utility.yul\":4655:4656   */\n      0x00\n        /* \"#utility.yul\":4644:4653   */\n      dup4\n        /* \"#utility.yul\":4640:4657   */\n      add\n        /* \"#utility.yul\":4633:4680   */\n      mstore\n        /* \"#utility.yul\":4697:4828   */\n      tag_138\n        /* \"#utility.yul\":4823:4827   */\n      dup2\n        /* \"#utility.yul\":4697:4828   */\n      tag_106\n      jump\t// in\n    tag_138:\n        /* \"#utility.yul\":4689:4828   */\n      swap1\n      pop\n        /* \"#utility.yul\":4416:4835   */\n      swap2\n      swap1\n      pop\n      jump\t// out\n        /* \"#utility.yul\":4841:5260   */\n    tag_12:\n        /* \"#utility.yul\":5007:5011   */\n      0x00\n        /* \"#utility.yul\":5045:5047   */\n      0x20\n        /* \"#utility.yul\":5034:5043   */\n      dup3\n        /* \"#utility.yul\":5030:5048   */\n      add\n        /* \"#utility.yul\":5022:5048   */\n      swap1\n      pop\n        /* \"#utility.yul\":5094:5103   */\n      dup2\n        /* \"#utility.yul\":5088:5092   */\n      dup2\n        /* \"#utility.yul\":5084:5104   */\n      sub\n        /* \"#utility.yul\":5080:5081   */\n      0x00\n        /* \"#utility.yul\":5069:5078   */\n      dup4\n        /* \"#utility.yul\":5065:5082   */\n      add\n        /* \"#utility.yul\":5058:5105   */\n      mstore\n        /* \"#utility.yul\":5122:5253   */\n      tag_140\n        /* \"#utility.yul\":5248:5252   */\n      dup2\n        /* \"#utility.yul\":5122:5253   */\n      tag_111\n      jump\t// in\n    tag_140:\n        /* \"#utility.yul\":5114:5253   */\n      swap1\n      pop\n        /* \"#utility.yul\":4841:5260   */\n      swap2\n      swap1\n      pop\n      jump\t// out\n        /* \"#utility.yul\":5266:5488   */\n    tag_18:\n        /* \"#utility.yul\":5359:5363   */\n      0x00\n        /* \"#utility.yul\":5397:5399   */\n      0x20\n        /* \"#utility.yul\":5386:5395   */\n      dup3\n        /* \"#utility.yul\":5382:5400   */\n      add\n        /* \"#utility.yul\":5374:5400   */\n      swap1\n      pop\n        /* \"#utility.yul\":5410:5481   */\n      tag_142\n        /* \"#utility.yul\":5478:5479   */\n      0x00\n        /* \"#utility.yul\":5467:5476   */\n      dup4\n        /* \"#utility.yul\":5463:5480   */\n      add\n        /* \"#utility.yul\":5454:5460   */\n      dup5\n        /* \"#utility.yul\":5410:5481   */\n      tag_116\n      jump\t// in\n    tag_142:\n        /* \"#utility.yul\":5266:5488   */\n      swap3\n      swap2\n      pop\n      pop\n      jump\t// out\n        /* \"#utility.yul\":5575:5744   */\n    tag_98:\n        /* \"#utility.yul\":5659:5670   */\n      0x00\n        /* \"#utility.yul\":5693:5699   */\n      dup3\n        /* \"#utility.yul\":5688:5691   */\n      dup3\n        /* \"#utility.yul\":5681:5700   */\n      mstore\n        /* \"#utility.yul\":5733:5737   */\n      0x20\n        /* \"#utility.yul\":5728:5731   */\n      dup3\n        /* \"#utility.yul\":5724:5738   */\n      add\n        /* \"#utility.yul\":5709:5738   */\n      swap1\n      pop\n        /* \"#utility.yul\":5575:5744   */\n      swap3\n      swap2\n      pop\n      pop\n      jump\t// out\n        /* \"#utility.yul\":5750:5846   */\n    tag_94:\n        /* \"#utility.yul\":5787:5794   */\n      0x00\n        /* \"#utility.yul\":5816:5840   */\n      tag_147\n        /* \"#utility.yul\":5834:5839   */\n      dup3\n        /* \"#utility.yul\":5816:5840   */\n      tag_148\n      jump\t// in\n    tag_147:\n        /* \"#utility.yul\":5805:5840   */\n      swap1\n      pop\n        /* \"#utility.yul\":5750:5846   */\n      swap2\n      swap1\n      pop\n      jump\t// out\n        /* \"#utility.yul\":5852:5956   */\n    tag_90:\n        /* \"#utility.yul\":5897:5904   */\n      0x00\n        /* \"#utility.yul\":5926:5950   */\n      tag_150\n        /* \"#utility.yul\":5944:5949   */\n      dup3\n        /* \"#utility.yul\":5926:5950   */\n      tag_148\n      jump\t// in\n    tag_150:\n        /* \"#utility.yul\":5915:5950   */\n      swap1\n      pop\n        /* \"#utility.yul\":5852:5956   */\n      swap2\n      swap1\n      pop\n      jump\t// out\n        /* \"#utility.yul\":5962:6088   */\n    tag_148:\n        /* \"#utility.yul\":5999:6006   */\n      0x00\n        /* \"#utility.yul\":6039:6081   */\n      0xffffffffffffffffffffffffffffffffffffffff\n        /* \"#utility.yul\":6032:6037   */\n      dup3\n        /* \"#utility.yul\":6028:6082   */\n      and\n        /* \"#utility.yul\":6017:6082   */\n      swap1\n      pop\n        /* \"#utility.yul\":5962:6088   */\n      swap2\n      swap1\n      pop\n      jump\t// out\n        /* \"#utility.yul\":6094:6171   */\n    tag_119:\n        /* \"#utility.yul\":6131:6138   */\n      0x00\n        /* \"#utility.yul\":6160:6165   */\n      dup2\n        /* \"#utility.yul\":6149:6165   */\n      swap1\n      pop\n        /* \"#utility.yul\":6094:6171   */\n      swap2\n      swap1\n      pop\n      jump\t// out\n        /* \"#utility.yul\":6177:6256   */\n    tag_124:\n        /* \"#utility.yul\":6216:6223   */\n      0x00\n        /* \"#utility.yul\":6245:6250   */\n      dup2\n        /* \"#utility.yul\":6234:6250   */\n      swap1\n      pop\n        /* \"#utility.yul\":6177:6256   */\n      swap2\n      swap1\n      pop\n      jump\t// out\n        /* \"#utility.yul\":6262:6438   */\n    tag_51:\n        /* \"#utility.yul\":6294:6295   */\n      0x00\n        /* \"#utility.yul\":6311:6331   */\n      tag_155\n        /* \"#utility.yul\":6329:6330   */\n      dup3\n        /* \"#utility.yul\":6311:6331   */\n      tag_119\n      jump\t// in\n    tag_155:\n        /* \"#utility.yul\":6306:6331   */\n      swap2\n      pop\n        /* \"#utility.yul\":6345:6365   */\n      tag_156\n        /* \"#utility.yul\":6363:6364   */\n      dup4\n        /* \"#utility.yul\":6345:6365   */\n      tag_119\n      jump\t// in\n    tag_156:\n        /* \"#utility.yul\":6340:6365   */\n      swap3\n      pop\n        /* \"#utility.yul\":6384:6385   */\n      dup3\n        /* \"#utility.yul\":6374:6409   */\n      tag_157\n      jumpi\n        /* \"#utility.yul\":6389:6407   */\n      tag_158\n      tag_159\n      jump\t// in\n    tag_158:\n        /* \"#utility.yul\":6374:6409   */\n    tag_157:\n        /* \"#utility.yul\":6430:6431   */\n      dup3\n        /* \"#utility.yul\":6427:6428   */\n      dup3\n        /* \"#utility.yul\":6423:6432   */\n      mod\n        /* \"#utility.yul\":6418:6432   */\n      swap1\n      pop\n        /* \"#utility.yul\":6262:6438   */\n      swap3\n      swap2\n      pop\n      pop\n      jump\t// out\n        /* \"#utility.yul\":6444:6624   */\n    tag_159:\n        /* \"#utility.yul\":6492:6569   */\n      0x4e487b7100000000000000000000000000000000000000000000000000000000\n        /* \"#utility.yul\":6489:6490   */\n      0x00\n        /* \"#utility.yul\":6482:6570   */\n      mstore\n        /* \"#utility.yul\":6589:6593   */\n      0x12\n        /* \"#utility.yul\":6586:6587   */\n      0x04\n        /* \"#utility.yul\":6579:6594   */\n      mstore\n        /* \"#utility.yul\":6613:6617   */\n      0x24\n        /* \"#utility.yul\":6610:6611   */\n      0x00\n        /* \"#utility.yul\":6603:6618   */\n      revert\n        /* \"#utility.yul\":6630:6810   */\n    tag_54:\n        /* \"#utility.yul\":6678:6755   */\n      0x4e487b7100000000000000000000000000000000000000000000000000000000\n        /* \"#utility.yul\":6675:6676   */\n      0x00\n        /* \"#utility.yul\":6668:6756   */\n      mstore\n        /* \"#utility.yul\":6775:6779   */\n      0x32\n        /* \"#utility.yul\":6772:6773   */\n      0x04\n        /* \"#utility.yul\":6765:6780   */\n      mstore\n        /* \"#utility.yul\":6799:6803   */\n      0x24\n        /* \"#utility.yul\":6796:6797   */\n      0x00\n        /* \"#utility.yul\":6789:6804   */\n      revert\n        /* \"#utility.yul\":6816:6996   */\n    tag_61:\n        /* \"#utility.yul\":6864:6941   */\n      0x4e487b7100000000000000000000000000000000000000000000000000000000\n        /* \"#utility.yul\":6861:6862   */\n      0x00\n        /* \"#utility.yul\":6854:6942   */\n      mstore\n        /* \"#utility.yul\":6961:6965   */\n      0x41\n        /* \"#utility.yul\":6958:6959   */\n      0x04\n        /* \"#utility.yul\":6951:6966   */\n      mstore\n        /* \"#utility.yul\":6985:6989   */\n      0x24\n        /* \"#utility.yul\":6982:6983   */\n      0x00\n        /* \"#utility.yul\":6975:6990   */\n      revert\n        /* \"#utility.yul\":7125:7242   */\n    tag_85:\n        /* \"#utility.yul\":7234:7235   */\n      0x00\n        /* \"#utility.yul\":7231:7232   */\n      dup1\n        /* \"#utility.yul\":7224:7236   */\n      revert\n        /* \"#utility.yul\":7248:7483   */\n    tag_100:\n        /* \"#utility.yul\":7388:7422   */\n      0x6f6e6c79206d616e61676572206861732061636365737320746f207468697320\n        /* \"#utility.yul\":7384:7385   */\n      0x00\n        /* \"#utility.yul\":7376:7382   */\n      dup3\n        /* \"#utility.yul\":7372:7386   */\n      add\n        /* \"#utility.yul\":7365:7423   */\n      mstore\n        /* \"#utility.yul\":7457:7475   */\n      0x66756e6374696f6e616c6974792e2e2e00000000000000000000000000000000\n        /* \"#utility.yul\":7452:7454   */\n      0x20\n        /* \"#utility.yul\":7444:7450   */\n      dup3\n        /* \"#utility.yul\":7440:7455   */\n      add\n        /* \"#utility.yul\":7433:7476   */\n      mstore\n        /* \"#utility.yul\":7248:7483   */\n      pop\n      jump\t// out\n        /* \"#utility.yul\":7489:7667   */\n    tag_105:\n        /* \"#utility.yul\":7629:7659   */\n      0x6e6f7420656e6f756768207061727469636970616e74732e2e2e2e2e00000000\n        /* \"#utility.yul\":7625:7626   */\n      0x00\n        /* \"#utility.yul\":7617:7623   */\n      dup3\n        /* \"#utility.yul\":7613:7627   */\n      add\n        /* \"#utility.yul\":7606:7660   */\n      mstore\n        /* \"#utility.yul\":7489:7667   */\n      pop\n      jump\t// out\n        /* \"#utility.yul\":7673:7914   */\n    tag_110:\n        /* \"#utility.yul\":7813:7847   */\n      0x6f6e6c79206d616e6167657220686173207468652061636365737320746f2076\n        /* \"#utility.yul\":7809:7810   */\n      0x00\n        /* \"#utility.yul\":7801:7807   */\n      dup3\n        /* \"#utility.yul\":7797:7811   */\n      add\n        /* \"#utility.yul\":7790:7848   */\n      mstore\n        /* \"#utility.yul\":7882:7906   */\n      0x69657720746f74616c2062616c616e63652e2e2e2e2e00000000000000000000\n        /* \"#utility.yul\":7877:7879   */\n      0x20\n        /* \"#utility.yul\":7869:7875   */\n      dup3\n        /* \"#utility.yul\":7865:7880   */\n      add\n        /* \"#utility.yul\":7858:7907   */\n      mstore\n        /* \"#utility.yul\":7673:7914   */\n      pop\n      jump\t// out\n        /* \"#utility.yul\":7920:8154   */\n    tag_115:\n        /* \"#utility.yul\":8060:8094   */\n      0x4f6e6c7920322065746865727320697320616c6c6f77656420746f207472616e\n        /* \"#utility.yul\":8056:8057   */\n      0x00\n        /* \"#utility.yul\":8048:8054   */\n      dup3\n        /* \"#utility.yul\":8044:8058   */\n      add\n        /* \"#utility.yul\":8037:8095   */\n      mstore\n        /* \"#utility.yul\":8129:8146   */\n      0x73666572206174206f6e63652e2e2e0000000000000000000000000000000000\n        /* \"#utility.yul\":8124:8126   */\n      0x20\n        /* \"#utility.yul\":8116:8122   */\n      dup3\n        /* \"#utility.yul\":8112:8127   */\n      add\n        /* \"#utility.yul\":8105:8147   */\n      mstore\n        /* \"#utility.yul\":7920:8154   */\n      pop\n      jump\t// out\n        /* \"#utility.yul\":8160:8282   */\n    tag_81:\n        /* \"#utility.yul\":8233:8257   */\n      tag_171\n        /* \"#utility.yul\":8251:8256   */\n      dup2\n        /* \"#utility.yul\":8233:8257   */\n      tag_119\n      jump\t// in\n    tag_171:\n        /* \"#utility.yul\":8226:8231   */\n      dup2\n        /* \"#utility.yul\":8223:8258   */\n      eq\n        /* \"#utility.yul\":8213:8276   */\n      tag_172\n      jumpi\n        /* \"#utility.yul\":8272:8273   */\n      0x00\n        /* \"#utility.yul\":8269:8270   */\n      dup1\n        /* \"#utility.yul\":8262:8274   */\n      revert\n        /* \"#utility.yul\":8213:8276   */\n    tag_172:\n        /* \"#utility.yul\":8160:8282   */\n      pop\n      jump\t// out\n\n    auxdata: 0xa2646970667358221220401fbeaccff1e5f52098d89dddae0550ad1d8783a873d25d2b05ce5488392d4d64736f6c63430008070033\n}\n",
				"bytecode": {
					"linkReferences": {},
					"object": "608060405234801561001057600080fd5b50336000806101000a81548173ffffffffffffffffffffffffffffffffffffffff021916908373ffffffffffffffffffffffffffffffffffffffff160217905550610a53806100606000396000f3fe60806040526004361061004e5760003560e01c806312065fe01461010757806333a99e041461013257806335c1d34914610149578063481c6a75146101865780635ec01e4d146101b157610102565b3661010257671bc16d674ec80000341461009d576040517f08c379a000000000000000000000000000000000000000000000000000000000815260040161009490610789565b60405180910390fd5b6001339080600181540180825580915050600190039060005260206000200160009091909190916101000a81548173ffffffffffffffffffffffffffffffffffffffff021916908373ffffffffffffffffffffffffffffffffffffffff160217905550005b600080fd5b34801561011357600080fd5b5061011c6101dc565b60405161012991906107a9565b60405180910390f35b34801561013e57600080fd5b50610147610273565b005b34801561015557600080fd5b50610170600480360381019061016b91906105b9565b610460565b60405161017d919061070e565b60405180910390f35b34801561019257600080fd5b5061019b61049f565b6040516101a891906106f3565b60405180910390f35b3480156101bd57600080fd5b506101c66104c3565b6040516101d391906107a9565b60405180910390f35b60008060009054906101000a900473ffffffffffffffffffffffffffffffffffffffff1673ffffffffffffffffffffffffffffffffffffffff163373ffffffffffffffffffffffffffffffffffffffff161461026d576040517f08c379a000000000000000000000000000000000000000000000000000000000815260040161026490610769565b60405180910390fd5b47905090565b60008054906101000a900473ffffffffffffffffffffffffffffffffffffffff1673ffffffffffffffffffffffffffffffffffffffff163373ffffffffffffffffffffffffffffffffffffffff1614610301576040517f08c379a00000000000000000000000000000000000000000000000000000000081526004016102f890610729565b60405180910390fd5b6003600180549050101561034a576040517f08c379a000000000000000000000000000000000000000000000000000000000815260040161034190610749565b60405180910390fd5b60006103546104c3565b90506000806001805490508361036a919061082d565b9050600181815481106103805761037f61088d565b5b9060005260206000200160009054906101000a900473ffffffffffffffffffffffffffffffffffffffff1691508173ffffffffffffffffffffffffffffffffffffffff166108fc6103cf6101dc565b9081150290604051600060405180830381858888f193505050501580156103fa573d6000803e3d6000fd5b50600067ffffffffffffffff811115610416576104156108bc565b5b6040519080825280602002602001820160405280156104445781602001602082028036833780820191505090505b506001908051906020019061045a9291906104fd565b50505050565b6001818154811061047057600080fd5b906000526020600020016000915054906101000a900473ffffffffffffffffffffffffffffffffffffffff1681565b60008054906101000a900473ffffffffffffffffffffffffffffffffffffffff1681565b600044426001805490506040516020016104df939291906106b6565b6040516020818303038152906040528051906020012060001c905090565b828054828255906000526020600020908101928215610576579160200282015b828111156105755782518260006101000a81548173ffffffffffffffffffffffffffffffffffffffff021916908373ffffffffffffffffffffffffffffffffffffffff1602179055509160200191906001019061051d565b5b5090506105839190610587565b5090565b5b808211156105a0576000816000905550600101610588565b5090565b6000813590506105b381610a06565b92915050565b6000602082840312156105cf576105ce6108eb565b5b60006105dd848285016105a4565b91505092915050565b6105ef816107e7565b82525050565b6105fe816107d5565b82525050565b60006106116030836107c4565b915061061c826108f0565b604082019050919050565b6000610634601c836107c4565b915061063f8261093f565b602082019050919050565b60006106576036836107c4565b915061066282610968565b604082019050919050565b600061067a602f836107c4565b9150610685826109b7565b604082019050919050565b61069981610819565b82525050565b6106b06106ab82610819565b610823565b82525050565b60006106c2828661069f565b6020820191506106d2828561069f565b6020820191506106e2828461069f565b602082019150819050949350505050565b600060208201905061070860008301846105f5565b92915050565b600060208201905061072360008301846105e6565b92915050565b6000602082019050818103600083015261074281610604565b9050919050565b6000602082019050818103600083015261076281610627565b9050919050565b600060208201905081810360008301526107828161064a565b9050919050565b600060208201905081810360008301526107a28161066d565b9050919050565b60006020820190506107be6000830184610690565b92915050565b600082825260208201905092915050565b60006107e0826107f9565b9050919050565b60006107f2826107f9565b9050919050565b600073ffffffffffffffffffffffffffffffffffffffff82169050919050565b6000819050919050565b6000819050919050565b600061083882610819565b915061084383610819565b9250826108535761085261085e565b5b828206905092915050565b7f4e487b7100000000000000000000000000000000000000000000000000000000600052601260045260246000fd5b7f4e487b7100000000000000000000000000000000000000000000000000000000600052603260045260246000fd5b7f4e487b7100000000000000000000000000000000000000000000000000000000600052604160045260246000fd5b600080fd5b7f6f6e6c79206d616e61676572206861732061636365737320746f20746869732060008201527f66756e6374696f6e616c6974792e2e2e00000000000000000000000000000000602082015250565b7f6e6f7420656e6f756768207061727469636970616e74732e2e2e2e2e00000000600082015250565b7f6f6e6c79206d616e6167657220686173207468652061636365737320746f207660008201527f69657720746f74616c2062616c616e63652e2e2e2e2e00000000000000000000602082015250565b7f4f6e6c7920322065746865727320697320616c6c6f77656420746f207472616e60008201527f73666572206174206f6e63652e2e2e0000000000000000000000000000000000602082015250565b610a0f81610819565b8114610a1a57600080fd5b5056fea2646970667358221220401fbeaccff1e5f52098d89dddae0550ad1d8783a873d25d2b05ce5488392d4d64736f6c63430008070033",
					"opcodes": "PUSH1 0x80 PUSH1 0x40 MSTORE CALLVALUE DUP1 ISZERO PUSH2 0x10 JUMPI PUSH1 0x0 DUP1 REVERT JUMPDEST POP CALLER PUSH1 0x0 DUP1 PUSH2 0x100 EXP DUP2 SLOAD DUP2 PUSH20 0xFFFFFFFFFFFFFFFFFFFFFFFFFFFFFFFFFFFFFFFF MUL NOT AND SWAP1 DUP4 PUSH20 0xFFFFFFFFFFFFFFFFFFFFFFFFFFFFFFFFFFFFFFFF AND MUL OR SWAP1 SSTORE POP PUSH2 0xA53 DUP1 PUSH2 0x60 PUSH1 0x0 CODECOPY PUSH1 0x0 RETURN INVALID PUSH1 0x80 PUSH1 0x40 MSTORE PUSH1 0x4 CALLDATASIZE LT PUSH2 0x4E JUMPI PUSH1 0x0 CALLDATALOAD PUSH1 0xE0 SHR DUP1 PUSH4 0x12065FE0 EQ PUSH2 0x107 JUMPI DUP1 PUSH4 0x33A99E04 EQ PUSH2 0x132 JUMPI DUP1 PUSH4 0x35C1D349 EQ PUSH2 0x149 JUMPI DUP1 PUSH4 0x481C6A75 EQ PUSH2 0x186 JUMPI DUP1 PUSH4 0x5EC01E4D EQ PUSH2 0x1B1 JUMPI PUSH2 0x102 JUMP JUMPDEST CALLDATASIZE PUSH2 0x102 JUMPI PUSH8 0x1BC16D674EC80000 CALLVALUE EQ PUSH2 0x9D JUMPI PUSH1 0x40 MLOAD PUSH32 0x8C379A000000000000000000000000000000000000000000000000000000000 DUP2 MSTORE PUSH1 0x4 ADD PUSH2 0x94 SWAP1 PUSH2 0x789 JUMP JUMPDEST PUSH1 0x40 MLOAD DUP1 SWAP2 SUB SWAP1 REVERT JUMPDEST PUSH1 0x1 CALLER SWAP1 DUP1 PUSH1 0x1 DUP2 SLOAD ADD DUP1 DUP3 SSTORE DUP1 SWAP2 POP POP PUSH1 0x1 SWAP1 SUB SWAP1 PUSH1 0x0 MSTORE PUSH1 0x20 PUSH1 0x0 KECCAK256 ADD PUSH1 0x0 SWAP1 SWAP2 SWAP1 SWAP2 SWAP1 SWAP2 PUSH2 0x100 EXP DUP2 SLOAD DUP2 PUSH20 0xFFFFFFFFFFFFFFFFFFFFFFFFFFFFFFFFFFFFFFFF MUL NOT AND SWAP1 DUP4 PUSH20 0xFFFFFFFFFFFFFFFFFFFFFFFFFFFFFFFFFFFFFFFF AND MUL OR SWAP1 SSTORE POP STOP JUMPDEST PUSH1 0x0 DUP1 REVERT JUMPDEST CALLVALUE DUP1 ISZERO PUSH2 0x113 JUMPI PUSH1 0x0 DUP1 REVERT JUMPDEST POP PUSH2 0x11C PUSH2 0x1DC JUMP JUMPDEST PUSH1 0x40 MLOAD PUSH2 0x129 SWAP2 SWAP1 PUSH2 0x7A9 JUMP JUMPDEST PUSH1 0x40 MLOAD DUP1 SWAP2 SUB SWAP1 RETURN JUMPDEST CALLVALUE DUP1 ISZERO PUSH2 0x13E JUMPI PUSH1 0x0 DUP1 REVERT JUMPDEST POP PUSH2 0x147 PUSH2 0x273 JUMP JUMPDEST STOP JUMPDEST CALLVALUE DUP1 ISZERO PUSH2 0x155 JUMPI PUSH1 0x0 DUP1 REVERT JUMPDEST POP PUSH2 0x170 PUSH1 0x4 DUP1 CALLDATASIZE SUB DUP2 ADD SWAP1 PUSH2 0x16B SWAP2 SWAP1 PUSH2 0x5B9 JUMP JUMPDEST PUSH2 0x460 JUMP JUMPDEST PUSH1 0x40 MLOAD PUSH2 0x17D SWAP2 SWAP1 PUSH2 0x70E JUMP JUMPDEST PUSH1 0x40 MLOAD DUP1 SWAP2 SUB SWAP1 RETURN JUMPDEST CALLVALUE DUP1 ISZERO PUSH2 0x192 JUMPI PUSH1 0x0 DUP1 REVERT JUMPDEST POP PUSH2 0x19B PUSH2 0x49F JUMP JUMPDEST PUSH1 0x40 MLOAD PUSH2 0x1A8 SWAP2 SWAP1 PUSH2 0x6F3 JUMP JUMPDEST PUSH1 0x40 MLOAD DUP1 SWAP2 SUB SWAP1 RETURN JUMPDEST CALLVALUE DUP1 ISZERO PUSH2 0x1BD JUMPI PUSH1 0x0 DUP1 REVERT JUMPDEST POP PUSH2 0x1C6 PUSH2 0x4C3 JUMP JUMPDEST PUSH1 0x40 MLOAD PUSH2 0x1D3 SWAP2 SWAP1 PUSH2 0x7A9 JUMP JUMPDEST PUSH1 0x40 MLOAD DUP1 SWAP2 SUB SWAP1 RETURN JUMPDEST PUSH1 0x0 DUP1 PUSH1 0x0 SWAP1 SLOAD SWAP1 PUSH2 0x100 EXP SWAP1 DIV PUSH20 0xFFFFFFFFFFFFFFFFFFFFFFFFFFFFFFFFFFFFFFFF AND PUSH20 0xFFFFFFFFFFFFFFFFFFFFFFFFFFFFFFFFFFFFFFFF AND CALLER PUSH20 0xFFFFFFFFFFFFFFFFFFFFFFFFFFFFFFFFFFFFFFFF AND EQ PUSH2 0x26D JUMPI PUSH1 0x40 MLOAD PUSH32 0x8C379A000000000000000000000000000000000000000000000000000000000 DUP2 MSTORE PUSH1 0x4 ADD PUSH2 0x264 SWAP1 PUSH2 0x769 JUMP JUMPDEST PUSH1 0x40 MLOAD DUP1 SWAP2 SUB SWAP1 REVERT JUMPDEST SELFBALANCE SWAP1 POP SWAP1 JUMP JUMPDEST PUSH1 0x0 DUP1 SLOAD SWAP1 PUSH2 0x100 EXP SWAP1 DIV PUSH20 0xFFFFFFFFFFFFFFFFFFFFFFFFFFFFFFFFFFFFFFFF AND PUSH20 0xFFFFFFFFFFFFFFFFFFFFFFFFFFFFFFFFFFFFFFFF AND CALLER PUSH20 0xFFFFFFFFFFFFFFFFFFFFFFFFFFFFFFFFFFFFFFFF AND EQ PUSH2 0x301 JUMPI PUSH1 0x40 MLOAD PUSH32 0x8C379A000000000000000000000000000000000000000000000000000000000 DUP2 MSTORE PUSH1 0x4 ADD PUSH2 0x2F8 SWAP1 PUSH2 0x729 JUMP JUMPDEST PUSH1 0x40 MLOAD DUP1 SWAP2 SUB SWAP1 REVERT JUMPDEST PUSH1 0x3 PUSH1 0x1 DUP1 SLOAD SWAP1 POP LT ISZERO PUSH2 0x34A JUMPI PUSH1 0x40 MLOAD PUSH32 0x8C379A000000000000000000000000000000000000000000000000000000000 DUP2 MSTORE PUSH1 0x4 ADD PUSH2 0x341 SWAP1 PUSH2 0x749 JUMP JUMPDEST PUSH1 0x40 MLOAD DUP1 SWAP2 SUB SWAP1 REVERT JUMPDEST PUSH1 0x0 PUSH2 0x354 PUSH2 0x4C3 JUMP JUMPDEST SWAP1 POP PUSH1 0x0 DUP1 PUSH1 0x1 DUP1 SLOAD SWAP1 POP DUP4 PUSH2 0x36A SWAP2 SWAP1 PUSH2 0x82D JUMP JUMPDEST SWAP1 POP PUSH1 0x1 DUP2 DUP2 SLOAD DUP2 LT PUSH2 0x380 JUMPI PUSH2 0x37F PUSH2 0x88D JUMP JUMPDEST JUMPDEST SWAP1 PUSH1 0x0 MSTORE PUSH1 0x20 PUSH1 0x0 KECCAK256 ADD PUSH1 0x0 SWAP1 SLOAD SWAP1 PUSH2 0x100 EXP SWAP1 DIV PUSH20 0xFFFFFFFFFFFFFFFFFFFFFFFFFFFFFFFFFFFFFFFF AND SWAP2 POP DUP2 PUSH20 0xFFFFFFFFFFFFFFFFFFFFFFFFFFFFFFFFFFFFFFFF AND PUSH2 0x8FC PUSH2 0x3CF PUSH2 0x1DC JUMP JUMPDEST SWAP1 DUP2 ISZERO MUL SWAP1 PUSH1 0x40 MLOAD PUSH1 0x0 PUSH1 0x40 MLOAD DUP1 DUP4 SUB DUP2 DUP6 DUP9 DUP9 CALL SWAP4 POP POP POP POP ISZERO DUP1 ISZERO PUSH2 0x3FA JUMPI RETURNDATASIZE PUSH1 0x0 DUP1 RETURNDATACOPY RETURNDATASIZE PUSH1 0x0 REVERT JUMPDEST POP PUSH1 0x0 PUSH8 0xFFFFFFFFFFFFFFFF DUP2 GT ISZERO PUSH2 0x416 JUMPI PUSH2 0x415 PUSH2 0x8BC JUMP JUMPDEST JUMPDEST PUSH1 0x40 MLOAD SWAP1 DUP1 DUP3 MSTORE DUP1 PUSH1 0x20 MUL PUSH1 0x20 ADD DUP3 ADD PUSH1 0x40 MSTORE DUP1 ISZERO PUSH2 0x444 JUMPI DUP2 PUSH1 0x20 ADD PUSH1 0x20 DUP3 MUL DUP1 CALLDATASIZE DUP4 CALLDATACOPY DUP1 DUP3 ADD SWAP2 POP POP SWAP1 POP JUMPDEST POP PUSH1 0x1 SWAP1 DUP1 MLOAD SWAP1 PUSH1 0x20 ADD SWAP1 PUSH2 0x45A SWAP3 SWAP2 SWAP1 PUSH2 0x4FD JUMP JUMPDEST POP POP POP POP JUMP JUMPDEST PUSH1 0x1 DUP2 DUP2 SLOAD DUP2 LT PUSH2 0x470 JUMPI PUSH1 0x0 DUP1 REVERT JUMPDEST SWAP1 PUSH1 0x0 MSTORE PUSH1 0x20 PUSH1 0x0 KECCAK256 ADD PUSH1 0x0 SWAP2 POP SLOAD SWAP1 PUSH2 0x100 EXP SWAP1 DIV PUSH20 0xFFFFFFFFFFFFFFFFFFFFFFFFFFFFFFFFFFFFFFFF AND DUP2 JUMP JUMPDEST PUSH1 0x0 DUP1 SLOAD SWAP1 PUSH2 0x100 EXP SWAP1 DIV PUSH20 0xFFFFFFFFFFFFFFFFFFFFFFFFFFFFFFFFFFFFFFFF AND DUP2 JUMP JUMPDEST PUSH1 0x0 DIFFICULTY TIMESTAMP PUSH1 0x1 DUP1 SLOAD SWAP1 POP PUSH1 0x40 MLOAD PUSH1 0x20 ADD PUSH2 0x4DF SWAP4 SWAP3 SWAP2 SWAP1 PUSH2 0x6B6 JUMP JUMPDEST PUSH1 0x40 MLOAD PUSH1 0x20 DUP2 DUP4 SUB SUB DUP2 MSTORE SWAP1 PUSH1 0x40 MSTORE DUP1 MLOAD SWAP1 PUSH1 0x20 ADD KECCAK256 PUSH1 0x0 SHR SWAP1 POP SWAP1 JUMP JUMPDEST DUP3 DUP1 SLOAD DUP3 DUP3 SSTORE SWAP1 PUSH1 0x0 MSTORE PUSH1 0x20 PUSH1 0x0 KECCAK256 SWAP1 DUP2 ADD SWAP3 DUP3 ISZERO PUSH2 0x576 JUMPI SWAP2 PUSH1 0x20 MUL DUP3 ADD JUMPDEST DUP3 DUP2 GT ISZERO PUSH2 0x575 JUMPI DUP3 MLOAD DUP3 PUSH1 0x0 PUSH2 0x100 EXP DUP2 SLOAD DUP2 PUSH20 0xFFFFFFFFFFFFFFFFFFFFFFFFFFFFFFFFFFFFFFFF MUL NOT AND SWAP1 DUP4 PUSH20 0xFFFFFFFFFFFFFFFFFFFFFFFFFFFFFFFFFFFFFFFF AND MUL OR SWAP1 SSTORE POP SWAP2 PUSH1 0x20 ADD SWAP2 SWAP1 PUSH1 0x1 ADD SWAP1 PUSH2 0x51D JUMP JUMPDEST JUMPDEST POP SWAP1 POP PUSH2 0x583 SWAP2 SWAP1 PUSH2 0x587 JUMP JUMPDEST POP SWAP1 JUMP JUMPDEST JUMPDEST DUP1 DUP3 GT ISZERO PUSH2 0x5A0 JUMPI PUSH1 0x0 DUP2 PUSH1 0x0 SWAP1 SSTORE POP PUSH1 0x1 ADD PUSH2 0x588 JUMP JUMPDEST POP SWAP1 JUMP JUMPDEST PUSH1 0x0 DUP2 CALLDATALOAD SWAP1 POP PUSH2 0x5B3 DUP2 PUSH2 0xA06 JUMP JUMPDEST SWAP3 SWAP2 POP POP JUMP JUMPDEST PUSH1 0x0 PUSH1 0x20 DUP3 DUP5 SUB SLT ISZERO PUSH2 0x5CF JUMPI PUSH2 0x5CE PUSH2 0x8EB JUMP JUMPDEST JUMPDEST PUSH1 0x0 PUSH2 0x5DD DUP5 DUP3 DUP6 ADD PUSH2 0x5A4 JUMP JUMPDEST SWAP2 POP POP SWAP3 SWAP2 POP POP JUMP JUMPDEST PUSH2 0x5EF DUP2 PUSH2 0x7E7 JUMP JUMPDEST DUP3 MSTORE POP POP JUMP JUMPDEST PUSH2 0x5FE DUP2 PUSH2 0x7D5 JUMP JUMPDEST DUP3 MSTORE POP POP JUMP JUMPDEST PUSH1 0x0 PUSH2 0x611 PUSH1 0x30 DUP4 PUSH2 0x7C4 JUMP JUMPDEST SWAP2 POP PUSH2 0x61C DUP3 PUSH2 0x8F0 JUMP JUMPDEST PUSH1 0x40 DUP3 ADD SWAP1 POP SWAP2 SWAP1 POP JUMP JUMPDEST PUSH1 0x0 PUSH2 0x634 PUSH1 0x1C DUP4 PUSH2 0x7C4 JUMP JUMPDEST SWAP2 POP PUSH2 0x63F DUP3 PUSH2 0x93F JUMP JUMPDEST PUSH1 0x20 DUP3 ADD SWAP1 POP SWAP2 SWAP1 POP JUMP JUMPDEST PUSH1 0x0 PUSH2 0x657 PUSH1 0x36 DUP4 PUSH2 0x7C4 JUMP JUMPDEST SWAP2 POP PUSH2 0x662 DUP3 PUSH2 0x968 JUMP JUMPDEST PUSH1 0x40 DUP3 ADD SWAP1 POP SWAP2 SWAP1 POP JUMP JUMPDEST PUSH1 0x0 PUSH2 0x67A PUSH1 0x2F DUP4 PUSH2 0x7C4 JUMP JUMPDEST SWAP2 POP PUSH2 0x685 DUP3 PUSH2 0x9B7 JUMP JUMPDEST PUSH1 0x40 DUP3 ADD SWAP1 POP SWAP2 SWAP1 POP JUMP JUMPDEST PUSH2 0x699 DUP2 PUSH2 0x819 JUMP JUMPDEST DUP3 MSTORE POP POP JUMP JUMPDEST PUSH2 0x6B0 PUSH2 0x6AB DUP3 PUSH2 0x819 JUMP JUMPDEST PUSH2 0x823 JUMP JUMPDEST DUP3 MSTORE POP POP JUMP JUMPDEST PUSH1 0x0 PUSH2 0x6C2 DUP3 DUP7 PUSH2 0x69F JUMP JUMPDEST PUSH1 0x20 DUP3 ADD SWAP2 POP PUSH2 0x6D2 DUP3 DUP6 PUSH2 0x69F JUMP JUMPDEST PUSH1 0x20 DUP3 ADD SWAP2 POP PUSH2 0x6E2 DUP3 DUP5 PUSH2 0x69F JUMP JUMPDEST PUSH1 0x20 DUP3 ADD SWAP2 POP DUP2 SWAP1 POP SWAP5 SWAP4 POP POP POP POP JUMP JUMPDEST PUSH1 0x0 PUSH1 0x20 DUP3 ADD SWAP1 POP PUSH2 0x708 PUSH1 0x0 DUP4 ADD DUP5 PUSH2 0x5F5 JUMP JUMPDEST SWAP3 SWAP2 POP POP JUMP JUMPDEST PUSH1 0x0 PUSH1 0x20 DUP3 ADD SWAP1 POP PUSH2 0x723 PUSH1 0x0 DUP4 ADD DUP5 PUSH2 0x5E6 JUMP JUMPDEST SWAP3 SWAP2 POP POP JUMP JUMPDEST PUSH1 0x0 PUSH1 0x20 DUP3 ADD SWAP1 POP DUP2 DUP2 SUB PUSH1 0x0 DUP4 ADD MSTORE PUSH2 0x742 DUP2 PUSH2 0x604 JUMP JUMPDEST SWAP1 POP SWAP2 SWAP1 POP JUMP JUMPDEST PUSH1 0x0 PUSH1 0x20 DUP3 ADD SWAP1 POP DUP2 DUP2 SUB PUSH1 0x0 DUP4 ADD MSTORE PUSH2 0x762 DUP2 PUSH2 0x627 JUMP JUMPDEST SWAP1 POP SWAP2 SWAP1 POP JUMP JUMPDEST PUSH1 0x0 PUSH1 0x20 DUP3 ADD SWAP1 POP DUP2 DUP2 SUB PUSH1 0x0 DUP4 ADD MSTORE PUSH2 0x782 DUP2 PUSH2 0x64A JUMP JUMPDEST SWAP1 POP SWAP2 SWAP1 POP JUMP JUMPDEST PUSH1 0x0 PUSH1 0x20 DUP3 ADD SWAP1 POP DUP2 DUP2 SUB PUSH1 0x0 DUP4 ADD MSTORE PUSH2 0x7A2 DUP2 PUSH2 0x66D JUMP JUMPDEST SWAP1 POP SWAP2 SWAP1 POP JUMP JUMPDEST PUSH1 0x0 PUSH1 0x20 DUP3 ADD SWAP1 POP PUSH2 0x7BE PUSH1 0x0 DUP4 ADD DUP5 PUSH2 0x690 JUMP JUMPDEST SWAP3 SWAP2 POP POP JUMP JUMPDEST PUSH1 0x0 DUP3 DUP3 MSTORE PUSH1 0x20 DUP3 ADD SWAP1 POP SWAP3 SWAP2 POP POP JUMP JUMPDEST PUSH1 0x0 PUSH2 0x7E0 DUP3 PUSH2 0x7F9 JUMP JUMPDEST SWAP1 POP SWAP2 SWAP1 POP JUMP JUMPDEST PUSH1 0x0 PUSH2 0x7F2 DUP3 PUSH2 0x7F9 JUMP JUMPDEST SWAP1 POP SWAP2 SWAP1 POP JUMP JUMPDEST PUSH1 0x0 PUSH20 0xFFFFFFFFFFFFFFFFFFFFFFFFFFFFFFFFFFFFFFFF DUP3 AND SWAP1 POP SWAP2 SWAP1 POP JUMP JUMPDEST PUSH1 0x0 DUP2 SWAP1 POP SWAP2 SWAP1 POP JUMP JUMPDEST PUSH1 0x0 DUP2 SWAP1 POP SWAP2 SWAP1 POP JUMP JUMPDEST PUSH1 0x0 PUSH2 0x838 DUP3 PUSH2 0x819 JUMP JUMPDEST SWAP2 POP PUSH2 0x843 DUP4 PUSH2 0x819 JUMP JUMPDEST SWAP3 POP DUP3 PUSH2 0x853 JUMPI PUSH2 0x852 PUSH2 0x85E JUMP JUMPDEST JUMPDEST DUP3 DUP3 MOD SWAP1 POP SWAP3 SWAP2 POP POP JUMP JUMPDEST PUSH32 0x4E487B7100000000000000000000000000000000000000000000000000000000 PUSH1 0x0 MSTORE PUSH1 0x12 PUSH1 0x4 MSTORE PUSH1 0x24 PUSH1 0x0 REVERT JUMPDEST PUSH32 0x4E487B7100000000000000000000000000000000000000000000000000000000 PUSH1 0x0 MSTORE PUSH1 0x32 PUSH1 0x4 MSTORE PUSH1 0x24 PUSH1 0x0 REVERT JUMPDEST PUSH32 0x4E487B7100000000000000000000000000000000000000000000000000000000 PUSH1 0x0 MSTORE PUSH1 0x41 PUSH1 0x4 MSTORE PUSH1 0x24 PUSH1 0x0 REVERT JUMPDEST PUSH1 0x0 DUP1 REVERT JUMPDEST PUSH32 0x6F6E6C79206D616E61676572206861732061636365737320746F207468697320 PUSH1 0x0 DUP3 ADD MSTORE PUSH32 0x66756E6374696F6E616C6974792E2E2E00000000000000000000000000000000 PUSH1 0x20 DUP3 ADD MSTORE POP JUMP JUMPDEST PUSH32 0x6E6F7420656E6F756768207061727469636970616E74732E2E2E2E2E00000000 PUSH1 0x0 DUP3 ADD MSTORE POP JUMP JUMPDEST PUSH32 0x6F6E6C79206D616E6167657220686173207468652061636365737320746F2076 PUSH1 0x0 DUP3 ADD MSTORE PUSH32 0x69657720746F74616C2062616C616E63652E2E2E2E2E00000000000000000000 PUSH1 0x20 DUP3 ADD MSTORE POP JUMP JUMPDEST PUSH32 0x4F6E6C7920322065746865727320697320616C6C6F77656420746F207472616E PUSH1 0x0 DUP3 ADD MSTORE PUSH32 0x73666572206174206F6E63652E2E2E0000000000000000000000000000000000 PUSH1 0x20 DUP3 ADD MSTORE POP JUMP JUMPDEST PUSH2 0xA0F DUP2 PUSH2 0x819 JUMP JUMPDEST DUP2 EQ PUSH2 0xA1A JUMPI PUSH1 0x0 DUP1 REVERT JUMPDEST POP JUMP INVALID LOG2 PUSH5 0x6970667358 0x22 SLT KECCAK256 BLOCKHASH 0x1F 0xBE 0xAC 0xCF CALL 0xE5 CREATE2 KECCAK256 SWAP9 0xD8 SWAP14 0xDD 0xAE SDIV POP 0xAD SAR DUP8 DUP4 0xA8 PUSH20 0xD25D2B05CE5488392D4D64736F6C634300080700 CALLER "
				},
				"gasEstimates": {
					"creation": {
						"codeDepositCost": "528600",
						"executionCost": "24828",
						"totalCost": "553428"
					},
					"external": {
						"getBalance()": "2602",
						"manager()": "2555",
						"participants(uint256)": "4978",
						"random()": "infinite",
						"selectWinner()": "infinite"
					}
				},
				"methodIdentifiers": {
					"getBalance()": "12065fe0",
					"manager()": "481c6a75",
					"participants(uint256)": "35c1d349",
					"random()": "5ec01e4d",
					"selectWinner()": "33a99e04"
				}
			},
			"storageLayout": {
				"storage": [
					{
						"astId": 3,
						"contract": "decentralized-lottery-app.sol:Lottery",
						"label": "manager",
						"offset": 0,
						"slot": "0",
						"type": "t_address"
					},
					{
						"astId": 6,
						"contract": "decentralized-lottery-app.sol:Lottery",
						"label": "participants",
						"offset": 0,
						"slot": "1",
						"type": "t_array(t_address_payable)dyn_storage"
					}
				],
				"types": {
					"t_address": {
						"encoding": "inplace",
						"label": "address",
						"numberOfBytes": "20"
					},
					"t_address_payable": {
						"encoding": "inplace",
						"label": "address payable",
						"numberOfBytes": "20"
					},
					"t_array(t_address_payable)dyn_storage": {
						"base": "t_address_payable",
						"encoding": "dynamic_array",
						"label": "address payable[]",
						"numberOfBytes": "32"
					}
				}
			},
			"userdoc": {
				"kind": "user",
				"methods": {},
				"version": 1
			}
		}
	}
}