{
	"hashing.sol": {
		"hashing": {
			"abi": [
				{
					"inputs": [
						{
							"internalType": "string",
							"name": "_pass",
							"type": "string"
						}
					],
					"name": "generatePass",
					"outputs": [],
					"stateMutability": "nonpayable",
					"type": "function"
				},
				{
					"inputs": [],
					"name": "password",
					"outputs": [
						{
							"internalType": "bytes32",
							"name": "",
							"type": "bytes32"
						}
					],
					"stateMutability": "view",
					"type": "function"
				},
				{
					"inputs": [
						{
							"internalType": "string",
							"name": "_pass",
							"type": "string"
						}
					],
					"name": "sendMoney",
					"outputs": [],
					"stateMutability": "view",
					"type": "function"
				}
			],
			"devdoc": {
				"kind": "dev",
				"methods": {},
				"version": 1
			},
			"evm": {
				"assembly": "    /* \"hashing.sol\":66:687  contract hashing{... */\n  mstore(0x40, 0x80)\n  callvalue\n  dup1\n  iszero\n  tag_1\n  jumpi\n  0x00\n  dup1\n  revert\ntag_1:\n  pop\n  dataSize(sub_0)\n  dup1\n  dataOffset(sub_0)\n  0x00\n  codecopy\n  0x00\n  return\nstop\n\nsub_0: assembly {\n        /* \"hashing.sol\":66:687  contract hashing{... */\n      mstore(0x40, 0x80)\n      callvalue\n      dup1\n      iszero\n      tag_1\n      jumpi\n      0x00\n      dup1\n      revert\n    tag_1:\n      pop\n      jumpi(tag_2, lt(calldatasize, 0x04))\n      shr(0xe0, calldataload(0x00))\n      dup1\n      0x050dbadf\n      eq\n      tag_3\n      jumpi\n      dup1\n      0x224b610b\n      eq\n      tag_4\n      jumpi\n      dup1\n      0x76b21d5e\n      eq\n      tag_5\n      jumpi\n    tag_2:\n      0x00\n      dup1\n      revert\n        /* \"hashing.sol\":542:685  function sendMoney(string memory _pass) public view  {... */\n    tag_3:\n      tag_6\n      0x04\n      dup1\n      calldatasize\n      sub\n      dup2\n      add\n      swap1\n      tag_7\n      swap2\n      swap1\n      tag_8\n      jump\t// in\n    tag_7:\n      tag_9\n      jump\t// in\n    tag_6:\n      stop\n        /* \"hashing.sol\":393:416  bytes32 public password */\n    tag_4:\n      tag_10\n      tag_11\n      jump\t// in\n    tag_10:\n      mload(0x40)\n      tag_12\n      swap2\n      swap1\n      tag_13\n      jump\t// in\n    tag_12:\n      mload(0x40)\n      dup1\n      swap2\n      sub\n      swap1\n      return\n        /* \"hashing.sol\":423:535  function generatePass( string memory _pass) public{... */\n    tag_5:\n      tag_14\n      0x04\n      dup1\n      calldatasize\n      sub\n      dup2\n      add\n      swap1\n      tag_15\n      swap2\n      swap1\n      tag_8\n      jump\t// in\n    tag_15:\n      tag_16\n      jump\t// in\n    tag_14:\n      stop\n        /* \"hashing.sol\":542:685  function sendMoney(string memory _pass) public view  {... */\n    tag_9:\n        /* \"hashing.sol\":651:659  password */\n      sload(0x00)\n        /* \"hashing.sol\":640:645  _pass */\n      dup2\n        /* \"hashing.sol\":623:646  abi.encodePacked(_pass) */\n      add(0x20, mload(0x40))\n      tag_18\n      swap2\n      swap1\n      tag_19\n      jump\t// in\n    tag_18:\n      mload(0x40)\n      0x20\n      dup2\n      dup4\n      sub\n      sub\n      dup2\n      mstore\n      swap1\n      0x40\n      mstore\n        /* \"hashing.sol\":613:647  keccak256(abi.encodePacked(_pass)) */\n      dup1\n      mload\n      swap1\n      0x20\n      add\n      keccak256\n        /* \"hashing.sol\":613:659  keccak256(abi.encodePacked(_pass)) == password */\n      eq\n        /* \"hashing.sol\":605:678  require(keccak256(abi.encodePacked(_pass)) == password, \"wrong password\") */\n      tag_20\n      jumpi\n      mload(0x40)\n      0x08c379a000000000000000000000000000000000000000000000000000000000\n      dup2\n      mstore\n      0x04\n      add\n      tag_21\n      swap1\n      tag_22\n      jump\t// in\n    tag_21:\n      mload(0x40)\n      dup1\n      swap2\n      sub\n      swap1\n      revert\n    tag_20:\n        /* \"hashing.sol\":542:685  function sendMoney(string memory _pass) public view  {... */\n      pop\n      jump\t// out\n        /* \"hashing.sol\":393:416  bytes32 public password */\n    tag_11:\n      sload(0x00)\n      dup2\n      jump\t// out\n        /* \"hashing.sol\":423:535  function generatePass( string memory _pass) public{... */\n    tag_16:\n        /* \"hashing.sol\":521:526  _pass */\n      dup1\n        /* \"hashing.sol\":504:527  abi.encodePacked(_pass) */\n      add(0x20, mload(0x40))\n      tag_24\n      swap2\n      swap1\n      tag_19\n      jump\t// in\n    tag_24:\n      mload(0x40)\n      0x20\n      dup2\n      dup4\n      sub\n      sub\n      dup2\n      mstore\n      swap1\n      0x40\n      mstore\n        /* \"hashing.sol\":494:528  keccak256(abi.encodePacked(_pass)) */\n      dup1\n      mload\n      swap1\n      0x20\n      add\n      keccak256\n        /* \"hashing.sol\":483:491  password */\n      0x00\n        /* \"hashing.sol\":483:528  password = keccak256(abi.encodePacked(_pass)) */\n      dup2\n      swap1\n      sstore\n      pop\n        /* \"hashing.sol\":423:535  function generatePass( string memory _pass) public{... */\n      pop\n      jump\t// out\n        /* \"#utility.yul\":7:419   */\n    tag_26:\n        /* \"#utility.yul\":85:90   */\n      0x00\n        /* \"#utility.yul\":110:176   */\n      tag_28\n        /* \"#utility.yul\":126:175   */\n      tag_29\n        /* \"#utility.yul\":168:174   */\n      dup5\n        /* \"#utility.yul\":126:175   */\n      tag_30\n      jump\t// in\n    tag_29:\n        /* \"#utility.yul\":110:176   */\n      tag_31\n      jump\t// in\n    tag_28:\n        /* \"#utility.yul\":101:176   */\n      swap1\n      pop\n        /* \"#utility.yul\":199:205   */\n      dup3\n        /* \"#utility.yul\":192:197   */\n      dup2\n        /* \"#utility.yul\":185:206   */\n      mstore\n        /* \"#utility.yul\":237:241   */\n      0x20\n        /* \"#utility.yul\":230:235   */\n      dup2\n        /* \"#utility.yul\":226:242   */\n      add\n        /* \"#utility.yul\":275:278   */\n      dup5\n        /* \"#utility.yul\":266:272   */\n      dup5\n        /* \"#utility.yul\":261:264   */\n      dup5\n        /* \"#utility.yul\":257:273   */\n      add\n        /* \"#utility.yul\":254:279   */\n      gt\n        /* \"#utility.yul\":251:363   */\n      iszero\n      tag_32\n      jumpi\n        /* \"#utility.yul\":282:361   */\n      tag_33\n      tag_34\n      jump\t// in\n    tag_33:\n        /* \"#utility.yul\":251:363   */\n    tag_32:\n        /* \"#utility.yul\":372:413   */\n      tag_35\n        /* \"#utility.yul\":406:412   */\n      dup5\n        /* \"#utility.yul\":401:404   */\n      dup3\n        /* \"#utility.yul\":396:399   */\n      dup6\n        /* \"#utility.yul\":372:413   */\n      tag_36\n      jump\t// in\n    tag_35:\n        /* \"#utility.yul\":91:419   */\n      pop\n        /* \"#utility.yul\":7:419   */\n      swap4\n      swap3\n      pop\n      pop\n      pop\n      jump\t// out\n        /* \"#utility.yul\":439:779   */\n    tag_37:\n        /* \"#utility.yul\":495:500   */\n      0x00\n        /* \"#utility.yul\":544:547   */\n      dup3\n        /* \"#utility.yul\":537:541   */\n      0x1f\n        /* \"#utility.yul\":529:535   */\n      dup4\n        /* \"#utility.yul\":525:542   */\n      add\n        /* \"#utility.yul\":521:548   */\n      slt\n        /* \"#utility.yul\":511:633   */\n      tag_39\n      jumpi\n        /* \"#utility.yul\":552:631   */\n      tag_40\n      tag_41\n      jump\t// in\n    tag_40:\n        /* \"#utility.yul\":511:633   */\n    tag_39:\n        /* \"#utility.yul\":669:675   */\n      dup2\n        /* \"#utility.yul\":656:676   */\n      calldataload\n        /* \"#utility.yul\":694:773   */\n      tag_42\n        /* \"#utility.yul\":769:772   */\n      dup5\n        /* \"#utility.yul\":761:767   */\n      dup3\n        /* \"#utility.yul\":754:758   */\n      0x20\n        /* \"#utility.yul\":746:752   */\n      dup7\n        /* \"#utility.yul\":742:759   */\n      add\n        /* \"#utility.yul\":694:773   */\n      tag_26\n      jump\t// in\n    tag_42:\n        /* \"#utility.yul\":685:773   */\n      swap2\n      pop\n        /* \"#utility.yul\":501:779   */\n      pop\n        /* \"#utility.yul\":439:779   */\n      swap3\n      swap2\n      pop\n      pop\n      jump\t// out\n        /* \"#utility.yul\":785:1294   */\n    tag_8:\n        /* \"#utility.yul\":854:860   */\n      0x00\n        /* \"#utility.yul\":903:905   */\n      0x20\n        /* \"#utility.yul\":891:900   */\n      dup3\n        /* \"#utility.yul\":882:889   */\n      dup5\n        /* \"#utility.yul\":878:901   */\n      sub\n        /* \"#utility.yul\":874:906   */\n      slt\n        /* \"#utility.yul\":871:990   */\n      iszero\n      tag_44\n      jumpi\n        /* \"#utility.yul\":909:988   */\n      tag_45\n      tag_46\n      jump\t// in\n    tag_45:\n        /* \"#utility.yul\":871:990   */\n    tag_44:\n        /* \"#utility.yul\":1057:1058   */\n      0x00\n        /* \"#utility.yul\":1046:1055   */\n      dup3\n        /* \"#utility.yul\":1042:1059   */\n      add\n        /* \"#utility.yul\":1029:1060   */\n      calldataload\n        /* \"#utility.yul\":1087:1105   */\n      0xffffffffffffffff\n        /* \"#utility.yul\":1079:1085   */\n      dup2\n        /* \"#utility.yul\":1076:1106   */\n      gt\n        /* \"#utility.yul\":1073:1190   */\n      iszero\n      tag_47\n      jumpi\n        /* \"#utility.yul\":1109:1188   */\n      tag_48\n      tag_49\n      jump\t// in\n    tag_48:\n        /* \"#utility.yul\":1073:1190   */\n    tag_47:\n        /* \"#utility.yul\":1214:1277   */\n      tag_50\n        /* \"#utility.yul\":1269:1276   */\n      dup5\n        /* \"#utility.yul\":1260:1266   */\n      dup3\n        /* \"#utility.yul\":1249:1258   */\n      dup6\n        /* \"#utility.yul\":1245:1267   */\n      add\n        /* \"#utility.yul\":1214:1277   */\n      tag_37\n      jump\t// in\n    tag_50:\n        /* \"#utility.yul\":1204:1277   */\n      swap2\n      pop\n        /* \"#utility.yul\":1000:1287   */\n      pop\n        /* \"#utility.yul\":785:1294   */\n      swap3\n      swap2\n      pop\n      pop\n      jump\t// out\n        /* \"#utility.yul\":1300:1418   */\n    tag_51:\n        /* \"#utility.yul\":1387:1411   */\n      tag_53\n        /* \"#utility.yul\":1405:1410   */\n      dup2\n        /* \"#utility.yul\":1387:1411   */\n      tag_54\n      jump\t// in\n    tag_53:\n        /* \"#utility.yul\":1382:1385   */\n      dup3\n        /* \"#utility.yul\":1375:1412   */\n      mstore\n        /* \"#utility.yul\":1300:1418   */\n      pop\n      pop\n      jump\t// out\n        /* \"#utility.yul\":1424:1801   */\n    tag_55:\n        /* \"#utility.yul\":1530:1533   */\n      0x00\n        /* \"#utility.yul\":1558:1597   */\n      tag_57\n        /* \"#utility.yul\":1591:1596   */\n      dup3\n        /* \"#utility.yul\":1558:1597   */\n      tag_58\n      jump\t// in\n    tag_57:\n        /* \"#utility.yul\":1613:1702   */\n      tag_59\n        /* \"#utility.yul\":1695:1701   */\n      dup2\n        /* \"#utility.yul\":1690:1693   */\n      dup6\n        /* \"#utility.yul\":1613:1702   */\n      tag_60\n      jump\t// in\n    tag_59:\n        /* \"#utility.yul\":1606:1702   */\n      swap4\n      pop\n        /* \"#utility.yul\":1711:1763   */\n      tag_61\n        /* \"#utility.yul\":1756:1762   */\n      dup2\n        /* \"#utility.yul\":1751:1754   */\n      dup6\n        /* \"#utility.yul\":1744:1748   */\n      0x20\n        /* \"#utility.yul\":1737:1742   */\n      dup7\n        /* \"#utility.yul\":1733:1749   */\n      add\n        /* \"#utility.yul\":1711:1763   */\n      tag_62\n      jump\t// in\n    tag_61:\n        /* \"#utility.yul\":1788:1794   */\n      dup1\n        /* \"#utility.yul\":1783:1786   */\n      dup5\n        /* \"#utility.yul\":1779:1795   */\n      add\n        /* \"#utility.yul\":1772:1795   */\n      swap2\n      pop\n        /* \"#utility.yul\":1534:1801   */\n      pop\n        /* \"#utility.yul\":1424:1801   */\n      swap3\n      swap2\n      pop\n      pop\n      jump\t// out\n        /* \"#utility.yul\":1807:2173   */\n    tag_63:\n        /* \"#utility.yul\":1949:1952   */\n      0x00\n        /* \"#utility.yul\":1970:2037   */\n      tag_65\n        /* \"#utility.yul\":2034:2036   */\n      0x0e\n        /* \"#utility.yul\":2029:2032   */\n      dup4\n        /* \"#utility.yul\":1970:2037   */\n      tag_66\n      jump\t// in\n    tag_65:\n        /* \"#utility.yul\":1963:2037   */\n      swap2\n      pop\n        /* \"#utility.yul\":2046:2139   */\n      tag_67\n        /* \"#utility.yul\":2135:2138   */\n      dup3\n        /* \"#utility.yul\":2046:2139   */\n      tag_68\n      jump\t// in\n    tag_67:\n        /* \"#utility.yul\":2164:2166   */\n      0x20\n        /* \"#utility.yul\":2159:2162   */\n      dup3\n        /* \"#utility.yul\":2155:2167   */\n      add\n        /* \"#utility.yul\":2148:2167   */\n      swap1\n      pop\n        /* \"#utility.yul\":1807:2173   */\n      swap2\n      swap1\n      pop\n      jump\t// out\n        /* \"#utility.yul\":2179:2454   */\n    tag_19:\n        /* \"#utility.yul\":2311:2314   */\n      0x00\n        /* \"#utility.yul\":2333:2428   */\n      tag_70\n        /* \"#utility.yul\":2424:2427   */\n      dup3\n        /* \"#utility.yul\":2415:2421   */\n      dup5\n        /* \"#utility.yul\":2333:2428   */\n      tag_55\n      jump\t// in\n    tag_70:\n        /* \"#utility.yul\":2326:2428   */\n      swap2\n      pop\n        /* \"#utility.yul\":2445:2448   */\n      dup2\n        /* \"#utility.yul\":2438:2448   */\n      swap1\n      pop\n        /* \"#utility.yul\":2179:2454   */\n      swap3\n      swap2\n      pop\n      pop\n      jump\t// out\n        /* \"#utility.yul\":2460:2682   */\n    tag_13:\n        /* \"#utility.yul\":2553:2557   */\n      0x00\n        /* \"#utility.yul\":2591:2593   */\n      0x20\n        /* \"#utility.yul\":2580:2589   */\n      dup3\n        /* \"#utility.yul\":2576:2594   */\n      add\n        /* \"#utility.yul\":2568:2594   */\n      swap1\n      pop\n        /* \"#utility.yul\":2604:2675   */\n      tag_72\n        /* \"#utility.yul\":2672:2673   */\n      0x00\n        /* \"#utility.yul\":2661:2670   */\n      dup4\n        /* \"#utility.yul\":2657:2674   */\n      add\n        /* \"#utility.yul\":2648:2654   */\n      dup5\n        /* \"#utility.yul\":2604:2675   */\n      tag_51\n      jump\t// in\n    tag_72:\n        /* \"#utility.yul\":2460:2682   */\n      swap3\n      swap2\n      pop\n      pop\n      jump\t// out\n        /* \"#utility.yul\":2688:3107   */\n    tag_22:\n        /* \"#utility.yul\":2854:2858   */\n      0x00\n        /* \"#utility.yul\":2892:2894   */\n      0x20\n        /* \"#utility.yul\":2881:2890   */\n      dup3\n        /* \"#utility.yul\":2877:2895   */\n      add\n        /* \"#utility.yul\":2869:2895   */\n      swap1\n      pop\n        /* \"#utility.yul\":2941:2950   */\n      dup2\n        /* \"#utility.yul\":2935:2939   */\n      dup2\n        /* \"#utility.yul\":2931:2951   */\n      sub\n        /* \"#utility.yul\":2927:2928   */\n      0x00\n        /* \"#utility.yul\":2916:2925   */\n      dup4\n        /* \"#utility.yul\":2912:2929   */\n      add\n        /* \"#utility.yul\":2905:2952   */\n      mstore\n        /* \"#utility.yul\":2969:3100   */\n      tag_74\n        /* \"#utility.yul\":3095:3099   */\n      dup2\n        /* \"#utility.yul\":2969:3100   */\n      tag_63\n      jump\t// in\n    tag_74:\n        /* \"#utility.yul\":2961:3100   */\n      swap1\n      pop\n        /* \"#utility.yul\":2688:3107   */\n      swap2\n      swap1\n      pop\n      jump\t// out\n        /* \"#utility.yul\":3113:3242   */\n    tag_31:\n        /* \"#utility.yul\":3147:3153   */\n      0x00\n        /* \"#utility.yul\":3174:3194   */\n      tag_76\n      tag_77\n      jump\t// in\n    tag_76:\n        /* \"#utility.yul\":3164:3194   */\n      swap1\n      pop\n        /* \"#utility.yul\":3203:3236   */\n      tag_78\n        /* \"#utility.yul\":3231:3235   */\n      dup3\n        /* \"#utility.yul\":3223:3229   */\n      dup3\n        /* \"#utility.yul\":3203:3236   */\n      tag_79\n      jump\t// in\n    tag_78:\n        /* \"#utility.yul\":3113:3242   */\n      swap2\n      swap1\n      pop\n      jump\t// out\n        /* \"#utility.yul\":3248:3323   */\n    tag_77:\n        /* \"#utility.yul\":3281:3287   */\n      0x00\n        /* \"#utility.yul\":3314:3316   */\n      0x40\n        /* \"#utility.yul\":3308:3317   */\n      mload\n        /* \"#utility.yul\":3298:3317   */\n      swap1\n      pop\n        /* \"#utility.yul\":3248:3323   */\n      swap1\n      jump\t// out\n        /* \"#utility.yul\":3329:3637   */\n    tag_30:\n        /* \"#utility.yul\":3391:3395   */\n      0x00\n        /* \"#utility.yul\":3481:3499   */\n      0xffffffffffffffff\n        /* \"#utility.yul\":3473:3479   */\n      dup3\n        /* \"#utility.yul\":3470:3500   */\n      gt\n        /* \"#utility.yul\":3467:3523   */\n      iszero\n      tag_82\n      jumpi\n        /* \"#utility.yul\":3503:3521   */\n      tag_83\n      tag_84\n      jump\t// in\n    tag_83:\n        /* \"#utility.yul\":3467:3523   */\n    tag_82:\n        /* \"#utility.yul\":3541:3570   */\n      tag_85\n        /* \"#utility.yul\":3563:3569   */\n      dup3\n        /* \"#utility.yul\":3541:3570   */\n      tag_86\n      jump\t// in\n    tag_85:\n        /* \"#utility.yul\":3533:3570   */\n      swap1\n      pop\n        /* \"#utility.yul\":3625:3629   */\n      0x20\n        /* \"#utility.yul\":3619:3623   */\n      dup2\n        /* \"#utility.yul\":3615:3630   */\n      add\n        /* \"#utility.yul\":3607:3630   */\n      swap1\n      pop\n        /* \"#utility.yul\":3329:3637   */\n      swap2\n      swap1\n      pop\n      jump\t// out\n        /* \"#utility.yul\":3643:3742   */\n    tag_58:\n        /* \"#utility.yul\":3695:3701   */\n      0x00\n        /* \"#utility.yul\":3729:3734   */\n      dup2\n        /* \"#utility.yul\":3723:3735   */\n      mload\n        /* \"#utility.yul\":3713:3735   */\n      swap1\n      pop\n        /* \"#utility.yul\":3643:3742   */\n      swap2\n      swap1\n      pop\n      jump\t// out\n        /* \"#utility.yul\":3748:3917   */\n    tag_66:\n        /* \"#utility.yul\":3832:3843   */\n      0x00\n        /* \"#utility.yul\":3866:3872   */\n      dup3\n        /* \"#utility.yul\":3861:3864   */\n      dup3\n        /* \"#utility.yul\":3854:3873   */\n      mstore\n        /* \"#utility.yul\":3906:3910   */\n      0x20\n        /* \"#utility.yul\":3901:3904   */\n      dup3\n        /* \"#utility.yul\":3897:3911   */\n      add\n        /* \"#utility.yul\":3882:3911   */\n      swap1\n      pop\n        /* \"#utility.yul\":3748:3917   */\n      swap3\n      swap2\n      pop\n      pop\n      jump\t// out\n        /* \"#utility.yul\":3923:4071   */\n    tag_60:\n        /* \"#utility.yul\":4025:4036   */\n      0x00\n        /* \"#utility.yul\":4062:4065   */\n      dup2\n        /* \"#utility.yul\":4047:4065   */\n      swap1\n      pop\n        /* \"#utility.yul\":3923:4071   */\n      swap3\n      swap2\n      pop\n      pop\n      jump\t// out\n        /* \"#utility.yul\":4077:4154   */\n    tag_54:\n        /* \"#utility.yul\":4114:4121   */\n      0x00\n        /* \"#utility.yul\":4143:4148   */\n      dup2\n        /* \"#utility.yul\":4132:4148   */\n      swap1\n      pop\n        /* \"#utility.yul\":4077:4154   */\n      swap2\n      swap1\n      pop\n      jump\t// out\n        /* \"#utility.yul\":4160:4314   */\n    tag_36:\n        /* \"#utility.yul\":4244:4250   */\n      dup3\n        /* \"#utility.yul\":4239:4242   */\n      dup2\n        /* \"#utility.yul\":4234:4237   */\n      dup4\n        /* \"#utility.yul\":4221:4251   */\n      calldatacopy\n        /* \"#utility.yul\":4306:4307   */\n      0x00\n        /* \"#utility.yul\":4297:4303   */\n      dup4\n        /* \"#utility.yul\":4292:4295   */\n      dup4\n        /* \"#utility.yul\":4288:4304   */\n      add\n        /* \"#utility.yul\":4281:4308   */\n      mstore\n        /* \"#utility.yul\":4160:4314   */\n      pop\n      pop\n      pop\n      jump\t// out\n        /* \"#utility.yul\":4320:4627   */\n    tag_62:\n        /* \"#utility.yul\":4388:4389   */\n      0x00\n        /* \"#utility.yul\":4398:4511   */\n    tag_93:\n        /* \"#utility.yul\":4412:4418   */\n      dup4\n        /* \"#utility.yul\":4409:4410   */\n      dup2\n        /* \"#utility.yul\":4406:4419   */\n      lt\n        /* \"#utility.yul\":4398:4511   */\n      iszero\n      tag_95\n      jumpi\n        /* \"#utility.yul\":4497:4498   */\n      dup1\n        /* \"#utility.yul\":4492:4495   */\n      dup3\n        /* \"#utility.yul\":4488:4499   */\n      add\n        /* \"#utility.yul\":4482:4500   */\n      mload\n        /* \"#utility.yul\":4478:4479   */\n      dup2\n        /* \"#utility.yul\":4473:4476   */\n      dup5\n        /* \"#utility.yul\":4469:4480   */\n      add\n        /* \"#utility.yul\":4462:4501   */\n      mstore\n        /* \"#utility.yul\":4434:4436   */\n      0x20\n        /* \"#utility.yul\":4431:4432   */\n      dup2\n        /* \"#utility.yul\":4427:4437   */\n      add\n        /* \"#utility.yul\":4422:4437   */\n      swap1\n      pop\n        /* \"#utility.yul\":4398:4511   */\n      jump(tag_93)\n    tag_95:\n        /* \"#utility.yul\":4529:4535   */\n      dup4\n        /* \"#utility.yul\":4526:4527   */\n      dup2\n        /* \"#utility.yul\":4523:4536   */\n      gt\n        /* \"#utility.yul\":4520:4621   */\n      iszero\n      tag_96\n      jumpi\n        /* \"#utility.yul\":4609:4610   */\n      0x00\n        /* \"#utility.yul\":4600:4606   */\n      dup5\n        /* \"#utility.yul\":4595:4598   */\n      dup5\n        /* \"#utility.yul\":4591:4607   */\n      add\n        /* \"#utility.yul\":4584:4611   */\n      mstore\n        /* \"#utility.yul\":4520:4621   */\n    tag_96:\n        /* \"#utility.yul\":4369:4627   */\n      pop\n        /* \"#utility.yul\":4320:4627   */\n      pop\n      pop\n      pop\n      jump\t// out\n        /* \"#utility.yul\":4633:4914   */\n    tag_79:\n        /* \"#utility.yul\":4716:4743   */\n      tag_98\n        /* \"#utility.yul\":4738:4742   */\n      dup3\n        /* \"#utility.yul\":4716:4743   */\n      tag_86\n      jump\t// in\n    tag_98:\n        /* \"#utility.yul\":4708:4714   */\n      dup2\n        /* \"#utility.yul\":4704:4744   */\n      add\n        /* \"#utility.yul\":4846:4852   */\n      dup2\n        /* \"#utility.yul\":4834:4844   */\n      dup2\n        /* \"#utility.yul\":4831:4853   */\n      lt\n        /* \"#utility.yul\":4810:4828   */\n      0xffffffffffffffff\n        /* \"#utility.yul\":4798:4808   */\n      dup3\n        /* \"#utility.yul\":4795:4829   */\n      gt\n        /* \"#utility.yul\":4792:4854   */\n      or\n        /* \"#utility.yul\":4789:4877   */\n      iszero\n      tag_99\n      jumpi\n        /* \"#utility.yul\":4857:4875   */\n      tag_100\n      tag_84\n      jump\t// in\n    tag_100:\n        /* \"#utility.yul\":4789:4877   */\n    tag_99:\n        /* \"#utility.yul\":4897:4907   */\n      dup1\n        /* \"#utility.yul\":4893:4895   */\n      0x40\n        /* \"#utility.yul\":4886:4908   */\n      mstore\n        /* \"#utility.yul\":4676:4914   */\n      pop\n        /* \"#utility.yul\":4633:4914   */\n      pop\n      pop\n      jump\t// out\n        /* \"#utility.yul\":4920:5100   */\n    tag_84:\n        /* \"#utility.yul\":4968:5045   */\n      0x4e487b7100000000000000000000000000000000000000000000000000000000\n        /* \"#utility.yul\":4965:4966   */\n      0x00\n        /* \"#utility.yul\":4958:5046   */\n      mstore\n        /* \"#utility.yul\":5065:5069   */\n      0x41\n        /* \"#utility.yul\":5062:5063   */\n      0x04\n        /* \"#utility.yul\":5055:5070   */\n      mstore\n        /* \"#utility.yul\":5089:5093   */\n      0x24\n        /* \"#utility.yul\":5086:5087   */\n      0x00\n        /* \"#utility.yul\":5079:5094   */\n      revert\n        /* \"#utility.yul\":5106:5223   */\n    tag_41:\n        /* \"#utility.yul\":5215:5216   */\n      0x00\n        /* \"#utility.yul\":5212:5213   */\n      dup1\n        /* \"#utility.yul\":5205:5217   */\n      revert\n        /* \"#utility.yul\":5229:5346   */\n    tag_34:\n        /* \"#utility.yul\":5338:5339   */\n      0x00\n        /* \"#utility.yul\":5335:5336   */\n      dup1\n        /* \"#utility.yul\":5328:5340   */\n      revert\n        /* \"#utility.yul\":5352:5469   */\n    tag_49:\n        /* \"#utility.yul\":5461:5462   */\n      0x00\n        /* \"#utility.yul\":5458:5459   */\n      dup1\n        /* \"#utility.yul\":5451:5463   */\n      revert\n        /* \"#utility.yul\":5475:5592   */\n    tag_46:\n        /* \"#utility.yul\":5584:5585   */\n      0x00\n        /* \"#utility.yul\":5581:5582   */\n      dup1\n        /* \"#utility.yul\":5574:5586   */\n      revert\n        /* \"#utility.yul\":5598:5700   */\n    tag_86:\n        /* \"#utility.yul\":5639:5645   */\n      0x00\n        /* \"#utility.yul\":5690:5692   */\n      0x1f\n        /* \"#utility.yul\":5686:5693   */\n      not\n        /* \"#utility.yul\":5681:5683   */\n      0x1f\n        /* \"#utility.yul\":5674:5679   */\n      dup4\n        /* \"#utility.yul\":5670:5684   */\n      add\n        /* \"#utility.yul\":5666:5694   */\n      and\n        /* \"#utility.yul\":5656:5694   */\n      swap1\n      pop\n        /* \"#utility.yul\":5598:5700   */\n      swap2\n      swap1\n      pop\n      jump\t// out\n        /* \"#utility.yul\":5706:5870   */\n    tag_68:\n        /* \"#utility.yul\":5846:5862   */\n      0x77726f6e672070617373776f7264000000000000000000000000000000000000\n        /* \"#utility.yul\":5842:5843   */\n      0x00\n        /* \"#utility.yul\":5834:5840   */\n      dup3\n        /* \"#utility.yul\":5830:5844   */\n      add\n        /* \"#utility.yul\":5823:5863   */\n      mstore\n        /* \"#utility.yul\":5706:5870   */\n      pop\n      jump\t// out\n\n    auxdata: 0xa26469706673582212206fb3a8fd76753bf6be9eb7fb562ee63ea46c9d3acead8496df153488926101a564736f6c63430008070033\n}\n",
				"bytecode": {
					"linkReferences": {},
					"object": "608060405234801561001057600080fd5b5061045a806100206000396000f3fe608060405234801561001057600080fd5b50600436106100415760003560e01c8063050dbadf14610046578063224b610b1461006257806376b21d5e14610080575b600080fd5b610060600480360381019061005b91906101af565b61009c565b005b61006a610109565b6040516100779190610272565b60405180910390f35b61009a600480360381019061009591906101af565b61010f565b005b600054816040516020016100b0919061025b565b6040516020818303038152906040528051906020012014610106576040517f08c379a00000000000000000000000000000000000000000000000000000000081526004016100fd9061028d565b60405180910390fd5b50565b60005481565b80604051602001610120919061025b565b6040516020818303038152906040528051906020012060008190555050565b600061015261014d846102d2565b6102ad565b90508281526020810184848401111561016e5761016d6103db565b5b610179848285610334565b509392505050565b600082601f830112610196576101956103d6565b5b81356101a684826020860161013f565b91505092915050565b6000602082840312156101c5576101c46103e5565b5b600082013567ffffffffffffffff8111156101e3576101e26103e0565b5b6101ef84828501610181565b91505092915050565b6102018161032a565b82525050565b600061021282610303565b61021c818561031f565b935061022c818560208601610343565b80840191505092915050565b6000610245600e8361030e565b9150610250826103fb565b602082019050919050565b60006102678284610207565b915081905092915050565b600060208201905061028760008301846101f8565b92915050565b600060208201905081810360008301526102a681610238565b9050919050565b60006102b76102c8565b90506102c38282610376565b919050565b6000604051905090565b600067ffffffffffffffff8211156102ed576102ec6103a7565b5b6102f6826103ea565b9050602081019050919050565b600081519050919050565b600082825260208201905092915050565b600081905092915050565b6000819050919050565b82818337600083830152505050565b60005b83811015610361578082015181840152602081019050610346565b83811115610370576000848401525b50505050565b61037f826103ea565b810181811067ffffffffffffffff8211171561039e5761039d6103a7565b5b80604052505050565b7f4e487b7100000000000000000000000000000000000000000000000000000000600052604160045260246000fd5b600080fd5b600080fd5b600080fd5b600080fd5b6000601f19601f8301169050919050565b7f77726f6e672070617373776f726400000000000000000000000000000000000060008201525056fea26469706673582212206fb3a8fd76753bf6be9eb7fb562ee63ea46c9d3acead8496df153488926101a564736f6c63430008070033",
					"opcodes": "PUSH1 0x80 PUSH1 0x40 MSTORE CALLVALUE DUP1 ISZERO PUSH2 0x10 JUMPI PUSH1 0x0 DUP1 REVERT JUMPDEST POP PUSH2 0x45A DUP1 PUSH2 0x20 PUSH1 0x0 CODECOPY PUSH1 0x0 RETURN INVALID PUSH1 0x80 PUSH1 0x40 MSTORE CALLVALUE DUP1 ISZERO PUSH2 0x10 JUMPI PUSH1 0x0 DUP1 REVERT JUMPDEST POP PUSH1 0x4 CALLDATASIZE LT PUSH2 0x41 JUMPI PUSH1 0x0 CALLDATALOAD PUSH1 0xE0 SHR DUP1 PUSH4 0x50DBADF EQ PUSH2 0x46 JUMPI DUP1 PUSH4 0x224B610B EQ PUSH2 0x62 JUMPI DUP1 PUSH4 0x76B21D5E EQ PUSH2 0x80 JUMPI JUMPDEST PUSH1 0x0 DUP1 REVERT JUMPDEST PUSH2 0x60 PUSH1 0x4 DUP1 CALLDATASIZE SUB DUP2 ADD SWAP1 PUSH2 0x5B SWAP2 SWAP1 PUSH2 0x1AF JUMP JUMPDEST PUSH2 0x9C JUMP JUMPDEST STOP JUMPDEST PUSH2 0x6A PUSH2 0x109 JUMP JUMPDEST PUSH1 0x40 MLOAD PUSH2 0x77 SWAP2 SWAP1 PUSH2 0x272 JUMP JUMPDEST PUSH1 0x40 MLOAD DUP1 SWAP2 SUB SWAP1 RETURN JUMPDEST PUSH2 0x9A PUSH1 0x4 DUP1 CALLDATASIZE SUB DUP2 ADD SWAP1 PUSH2 0x95 SWAP2 SWAP1 PUSH2 0x1AF JUMP JUMPDEST PUSH2 0x10F JUMP JUMPDEST STOP JUMPDEST PUSH1 0x0 SLOAD DUP2 PUSH1 0x40 MLOAD PUSH1 0x20 ADD PUSH2 0xB0 SWAP2 SWAP1 PUSH2 0x25B JUMP JUMPDEST PUSH1 0x40 MLOAD PUSH1 0x20 DUP2 DUP4 SUB SUB DUP2 MSTORE SWAP1 PUSH1 0x40 MSTORE DUP1 MLOAD SWAP1 PUSH1 0x20 ADD KECCAK256 EQ PUSH2 0x106 JUMPI PUSH1 0x40 MLOAD PUSH32 0x8C379A000000000000000000000000000000000000000000000000000000000 DUP2 MSTORE PUSH1 0x4 ADD PUSH2 0xFD SWAP1 PUSH2 0x28D JUMP JUMPDEST PUSH1 0x40 MLOAD DUP1 SWAP2 SUB SWAP1 REVERT JUMPDEST POP JUMP JUMPDEST PUSH1 0x0 SLOAD DUP2 JUMP JUMPDEST DUP1 PUSH1 0x40 MLOAD PUSH1 0x20 ADD PUSH2 0x120 SWAP2 SWAP1 PUSH2 0x25B JUMP JUMPDEST PUSH1 0x40 MLOAD PUSH1 0x20 DUP2 DUP4 SUB SUB DUP2 MSTORE SWAP1 PUSH1 0x40 MSTORE DUP1 MLOAD SWAP1 PUSH1 0x20 ADD KECCAK256 PUSH1 0x0 DUP2 SWAP1 SSTORE POP POP JUMP JUMPDEST PUSH1 0x0 PUSH2 0x152 PUSH2 0x14D DUP5 PUSH2 0x2D2 JUMP JUMPDEST PUSH2 0x2AD JUMP JUMPDEST SWAP1 POP DUP3 DUP2 MSTORE PUSH1 0x20 DUP2 ADD DUP5 DUP5 DUP5 ADD GT ISZERO PUSH2 0x16E JUMPI PUSH2 0x16D PUSH2 0x3DB JUMP JUMPDEST JUMPDEST PUSH2 0x179 DUP5 DUP3 DUP6 PUSH2 0x334 JUMP JUMPDEST POP SWAP4 SWAP3 POP POP POP JUMP JUMPDEST PUSH1 0x0 DUP3 PUSH1 0x1F DUP4 ADD SLT PUSH2 0x196 JUMPI PUSH2 0x195 PUSH2 0x3D6 JUMP JUMPDEST JUMPDEST DUP2 CALLDATALOAD PUSH2 0x1A6 DUP5 DUP3 PUSH1 0x20 DUP7 ADD PUSH2 0x13F JUMP JUMPDEST SWAP2 POP POP SWAP3 SWAP2 POP POP JUMP JUMPDEST PUSH1 0x0 PUSH1 0x20 DUP3 DUP5 SUB SLT ISZERO PUSH2 0x1C5 JUMPI PUSH2 0x1C4 PUSH2 0x3E5 JUMP JUMPDEST JUMPDEST PUSH1 0x0 DUP3 ADD CALLDATALOAD PUSH8 0xFFFFFFFFFFFFFFFF DUP2 GT ISZERO PUSH2 0x1E3 JUMPI PUSH2 0x1E2 PUSH2 0x3E0 JUMP JUMPDEST JUMPDEST PUSH2 0x1EF DUP5 DUP3 DUP6 ADD PUSH2 0x181 JUMP JUMPDEST SWAP2 POP POP SWAP3 SWAP2 POP POP JUMP JUMPDEST PUSH2 0x201 DUP2 PUSH2 0x32A JUMP JUMPDEST DUP3 MSTORE POP POP JUMP JUMPDEST PUSH1 0x0 PUSH2 0x212 DUP3 PUSH2 0x303 JUMP JUMPDEST PUSH2 0x21C DUP2 DUP6 PUSH2 0x31F JUMP JUMPDEST SWAP4 POP PUSH2 0x22C DUP2 DUP6 PUSH1 0x20 DUP7 ADD PUSH2 0x343 JUMP JUMPDEST DUP1 DUP5 ADD SWAP2 POP POP SWAP3 SWAP2 POP POP JUMP JUMPDEST PUSH1 0x0 PUSH2 0x245 PUSH1 0xE DUP4 PUSH2 0x30E JUMP JUMPDEST SWAP2 POP PUSH2 0x250 DUP3 PUSH2 0x3FB JUMP JUMPDEST PUSH1 0x20 DUP3 ADD SWAP1 POP SWAP2 SWAP1 POP JUMP JUMPDEST PUSH1 0x0 PUSH2 0x267 DUP3 DUP5 PUSH2 0x207 JUMP JUMPDEST SWAP2 POP DUP2 SWAP1 POP SWAP3 SWAP2 POP POP JUMP JUMPDEST PUSH1 0x0 PUSH1 0x20 DUP3 ADD SWAP1 POP PUSH2 0x287 PUSH1 0x0 DUP4 ADD DUP5 PUSH2 0x1F8 JUMP JUMPDEST SWAP3 SWAP2 POP POP JUMP JUMPDEST PUSH1 0x0 PUSH1 0x20 DUP3 ADD SWAP1 POP DUP2 DUP2 SUB PUSH1 0x0 DUP4 ADD MSTORE PUSH2 0x2A6 DUP2 PUSH2 0x238 JUMP JUMPDEST SWAP1 POP SWAP2 SWAP1 POP JUMP JUMPDEST PUSH1 0x0 PUSH2 0x2B7 PUSH2 0x2C8 JUMP JUMPDEST SWAP1 POP PUSH2 0x2C3 DUP3 DUP3 PUSH2 0x376 JUMP JUMPDEST SWAP2 SWAP1 POP JUMP JUMPDEST PUSH1 0x0 PUSH1 0x40 MLOAD SWAP1 POP SWAP1 JUMP JUMPDEST PUSH1 0x0 PUSH8 0xFFFFFFFFFFFFFFFF DUP3 GT ISZERO PUSH2 0x2ED JUMPI PUSH2 0x2EC PUSH2 0x3A7 JUMP JUMPDEST JUMPDEST PUSH2 0x2F6 DUP3 PUSH2 0x3EA JUMP JUMPDEST SWAP1 POP PUSH1 0x20 DUP2 ADD SWAP1 POP SWAP2 SWAP1 POP JUMP JUMPDEST PUSH1 0x0 DUP2 MLOAD SWAP1 POP SWAP2 SWAP1 POP JUMP JUMPDEST PUSH1 0x0 DUP3 DUP3 MSTORE PUSH1 0x20 DUP3 ADD SWAP1 POP SWAP3 SWAP2 POP POP JUMP JUMPDEST PUSH1 0x0 DUP2 SWAP1 POP SWAP3 SWAP2 POP POP JUMP JUMPDEST PUSH1 0x0 DUP2 SWAP1 POP SWAP2 SWAP1 POP JUMP JUMPDEST DUP3 DUP2 DUP4 CALLDATACOPY PUSH1 0x0 DUP4 DUP4 ADD MSTORE POP POP POP JUMP JUMPDEST PUSH1 0x0 JUMPDEST DUP4 DUP2 LT ISZERO PUSH2 0x361 JUMPI DUP1 DUP3 ADD MLOAD DUP2 DUP5 ADD MSTORE PUSH1 0x20 DUP2 ADD SWAP1 POP PUSH2 0x346 JUMP JUMPDEST DUP4 DUP2 GT ISZERO PUSH2 0x370 JUMPI PUSH1 0x0 DUP5 DUP5 ADD MSTORE JUMPDEST POP POP POP POP JUMP JUMPDEST PUSH2 0x37F DUP3 PUSH2 0x3EA JUMP JUMPDEST DUP2 ADD DUP2 DUP2 LT PUSH8 0xFFFFFFFFFFFFFFFF DUP3 GT OR ISZERO PUSH2 0x39E JUMPI PUSH2 0x39D PUSH2 0x3A7 JUMP JUMPDEST JUMPDEST DUP1 PUSH1 0x40 MSTORE POP POP POP JUMP JUMPDEST PUSH32 0x4E487B7100000000000000000000000000000000000000000000000000000000 PUSH1 0x0 MSTORE PUSH1 0x41 PUSH1 0x4 MSTORE PUSH1 0x24 PUSH1 0x0 REVERT JUMPDEST PUSH1 0x0 DUP1 REVERT JUMPDEST PUSH1 0x0 DUP1 REVERT JUMPDEST PUSH1 0x0 DUP1 REVERT JUMPDEST PUSH1 0x0 DUP1 REVERT JUMPDEST PUSH1 0x0 PUSH1 0x1F NOT PUSH1 0x1F DUP4 ADD AND SWAP1 POP SWAP2 SWAP1 POP JUMP JUMPDEST PUSH32 0x77726F6E672070617373776F7264000000000000000000000000000000000000 PUSH1 0x0 DUP3 ADD MSTORE POP JUMP INVALID LOG2 PUSH5 0x6970667358 0x22 SLT KECCAK256 PUSH16 0xB3A8FD76753BF6BE9EB7FB562EE63EA4 PUSH13 0x9D3ACEAD8496DF153488926101 0xA5 PUSH5 0x736F6C6343 STOP ADDMOD SMOD STOP CALLER "
				},
				"gasEstimates": {
					"creation": {
						"codeDepositCost": "222800",
						"executionCost": "263",
						"totalCost": "223063"
					},
					"external": {
						"generatePass(string)": "infinite",
						"password()": "2429",
						"sendMoney(string)": "infinite"
					}
				},
				"methodIdentifiers": {
					"generatePass(string)": "76b21d5e",
					"password()": "224b610b",
					"sendMoney(string)": "050dbadf"
				}
			},
			"storageLayout": {
				"storage": [
					{
						"astId": 3,
						"contract": "hashing.sol:hashing",
						"label": "password",
						"offset": 0,
						"slot": "0",
						"type": "t_bytes32"
					}
				],
				"types": {
					"t_bytes32": {
						"encoding": "inplace",
						"label": "bytes32",
						"numberOfBytes": "32"
					}
				}
			},
			"userdoc": {
				"kind": "user",
				"methods": {},
				"version": 1
			}
		}
	}
}