{
	"loops.sol": {
		"loops": {
			"abi": [
				{
					"inputs": [],
					"name": "a",
					"outputs": [
						{
							"internalType": "uint256",
							"name": "",
							"type": "uint256"
						}
					],
					"stateMutability": "view",
					"type": "function"
				},
				{
					"inputs": [],
					"name": "b",
					"outputs": [
						{
							"internalType": "uint256",
							"name": "",
							"type": "uint256"
						}
					],
					"stateMutability": "view",
					"type": "function"
				},
				{
					"inputs": [],
					"name": "get",
					"outputs": [],
					"stateMutability": "nonpayable",
					"type": "function"
				}
			],
			"devdoc": {
				"kind": "dev",
				"methods": {},
				"version": 1
			},
			"evm": {
				"assembly": "    /* \"loops.sol\":67:315  contract loops{... */\n  mstore(0x40, 0x80)\n    /* \"loops.sol\":112:113  2 */\n  0x02\n    /* \"loops.sol\":96:113  uint public a = 2 */\n  0x00\n  sstore\n    /* \"loops.sol\":139:140  5 */\n  0x05\n    /* \"loops.sol\":123:140  uint public b = 5 */\n  0x01\n  sstore\n    /* \"loops.sol\":67:315  contract loops{... */\n  callvalue\n  dup1\n  iszero\n  tag_1\n  jumpi\n  0x00\n  dup1\n  revert\ntag_1:\n  pop\n  dataSize(sub_0)\n  dup1\n  dataOffset(sub_0)\n  0x00\n  codecopy\n  0x00\n  return\nstop\n\nsub_0: assembly {\n        /* \"loops.sol\":67:315  contract loops{... */\n      mstore(0x40, 0x80)\n      callvalue\n      dup1\n      iszero\n      tag_1\n      jumpi\n      0x00\n      dup1\n      revert\n    tag_1:\n      pop\n      jumpi(tag_2, lt(calldatasize, 0x04))\n      shr(0xe0, calldataload(0x00))\n      dup1\n      0x0dbe671f\n      eq\n      tag_3\n      jumpi\n      dup1\n      0x4df7e3d0\n      eq\n      tag_4\n      jumpi\n      dup1\n      0x6d4ce63c\n      eq\n      tag_5\n      jumpi\n    tag_2:\n      0x00\n      dup1\n      revert\n        /* \"loops.sol\":96:113  uint public a = 2 */\n    tag_3:\n      tag_6\n      tag_7\n      jump\t// in\n    tag_6:\n      mload(0x40)\n      tag_8\n      swap2\n      swap1\n      tag_9\n      jump\t// in\n    tag_8:\n      mload(0x40)\n      dup1\n      swap2\n      sub\n      swap1\n      return\n        /* \"loops.sol\":123:140  uint public b = 5 */\n    tag_4:\n      tag_10\n      tag_11\n      jump\t// in\n    tag_10:\n      mload(0x40)\n      tag_12\n      swap2\n      swap1\n      tag_9\n      jump\t// in\n    tag_12:\n      mload(0x40)\n      dup1\n      swap2\n      sub\n      swap1\n      return\n        /* \"loops.sol\":146:313  function get() public {... */\n    tag_5:\n      tag_13\n      tag_14\n      jump\t// in\n    tag_13:\n      stop\n        /* \"loops.sol\":96:113  uint public a = 2 */\n    tag_7:\n      sload(0x00)\n      dup2\n      jump\t// out\n        /* \"loops.sol\":123:140  uint public b = 5 */\n    tag_11:\n      sload(0x01)\n      dup2\n      jump\t// out\n        /* \"loops.sol\":146:313  function get() public {... */\n    tag_14:\n        /* \"loops.sol\":260:266  uint i */\n      0x00\n        /* \"loops.sol\":255:311  for (uint i=0; i < 3; i++){... */\n    tag_16:\n        /* \"loops.sol\":274:275  3 */\n      0x03\n        /* \"loops.sol\":270:271  i */\n      dup2\n        /* \"loops.sol\":270:275  i < 3 */\n      lt\n        /* \"loops.sol\":255:311  for (uint i=0; i < 3; i++){... */\n      iszero\n      tag_17\n      jumpi\n        /* \"loops.sol\":299:300  1 */\n      0x01\n        /* \"loops.sol\":295:296  a */\n      0x00\n      dup1\n        /* \"loops.sol\":295:300  a +=1 */\n      dup3\n      dup3\n      sload\n      tag_19\n      swap2\n      swap1\n      tag_20\n      jump\t// in\n    tag_19:\n      swap3\n      pop\n      pop\n      dup2\n      swap1\n      sstore\n      pop\n        /* \"loops.sol\":277:280  i++ */\n      dup1\n      dup1\n      tag_21\n      swap1\n      tag_22\n      jump\t// in\n    tag_21:\n      swap2\n      pop\n      pop\n        /* \"loops.sol\":255:311  for (uint i=0; i < 3; i++){... */\n      jump(tag_16)\n    tag_17:\n      pop\n        /* \"loops.sol\":146:313  function get() public {... */\n      jump\t// out\n        /* \"#utility.yul\":7:125   */\n    tag_24:\n        /* \"#utility.yul\":94:118   */\n      tag_26\n        /* \"#utility.yul\":112:117   */\n      dup2\n        /* \"#utility.yul\":94:118   */\n      tag_27\n      jump\t// in\n    tag_26:\n        /* \"#utility.yul\":89:92   */\n      dup3\n        /* \"#utility.yul\":82:119   */\n      mstore\n        /* \"#utility.yul\":7:125   */\n      pop\n      pop\n      jump\t// out\n        /* \"#utility.yul\":131:353   */\n    tag_9:\n        /* \"#utility.yul\":224:228   */\n      0x00\n        /* \"#utility.yul\":262:264   */\n      0x20\n        /* \"#utility.yul\":251:260   */\n      dup3\n        /* \"#utility.yul\":247:265   */\n      add\n        /* \"#utility.yul\":239:265   */\n      swap1\n      pop\n        /* \"#utility.yul\":275:346   */\n      tag_29\n        /* \"#utility.yul\":343:344   */\n      0x00\n        /* \"#utility.yul\":332:341   */\n      dup4\n        /* \"#utility.yul\":328:345   */\n      add\n        /* \"#utility.yul\":319:325   */\n      dup5\n        /* \"#utility.yul\":275:346   */\n      tag_24\n      jump\t// in\n    tag_29:\n        /* \"#utility.yul\":131:353   */\n      swap3\n      swap2\n      pop\n      pop\n      jump\t// out\n        /* \"#utility.yul\":359:664   */\n    tag_20:\n        /* \"#utility.yul\":399:402   */\n      0x00\n        /* \"#utility.yul\":418:438   */\n      tag_31\n        /* \"#utility.yul\":436:437   */\n      dup3\n        /* \"#utility.yul\":418:438   */\n      tag_27\n      jump\t// in\n    tag_31:\n        /* \"#utility.yul\":413:438   */\n      swap2\n      pop\n        /* \"#utility.yul\":452:472   */\n      tag_32\n        /* \"#utility.yul\":470:471   */\n      dup4\n        /* \"#utility.yul\":452:472   */\n      tag_27\n      jump\t// in\n    tag_32:\n        /* \"#utility.yul\":447:472   */\n      swap3\n      pop\n        /* \"#utility.yul\":606:607   */\n      dup3\n        /* \"#utility.yul\":538:604   */\n      0xffffffffffffffffffffffffffffffffffffffffffffffffffffffffffffffff\n        /* \"#utility.yul\":534:608   */\n      sub\n        /* \"#utility.yul\":531:532   */\n      dup3\n        /* \"#utility.yul\":528:609   */\n      gt\n        /* \"#utility.yul\":525:632   */\n      iszero\n      tag_33\n      jumpi\n        /* \"#utility.yul\":612:630   */\n      tag_34\n      tag_35\n      jump\t// in\n    tag_34:\n        /* \"#utility.yul\":525:632   */\n    tag_33:\n        /* \"#utility.yul\":656:657   */\n      dup3\n        /* \"#utility.yul\":653:654   */\n      dup3\n        /* \"#utility.yul\":649:658   */\n      add\n        /* \"#utility.yul\":642:658   */\n      swap1\n      pop\n        /* \"#utility.yul\":359:664   */\n      swap3\n      swap2\n      pop\n      pop\n      jump\t// out\n        /* \"#utility.yul\":670:747   */\n    tag_27:\n        /* \"#utility.yul\":707:714   */\n      0x00\n        /* \"#utility.yul\":736:741   */\n      dup2\n        /* \"#utility.yul\":725:741   */\n      swap1\n      pop\n        /* \"#utility.yul\":670:747   */\n      swap2\n      swap1\n      pop\n      jump\t// out\n        /* \"#utility.yul\":753:986   */\n    tag_22:\n        /* \"#utility.yul\":792:795   */\n      0x00\n        /* \"#utility.yul\":815:839   */\n      tag_38\n        /* \"#utility.yul\":833:838   */\n      dup3\n        /* \"#utility.yul\":815:839   */\n      tag_27\n      jump\t// in\n    tag_38:\n        /* \"#utility.yul\":806:839   */\n      swap2\n      pop\n        /* \"#utility.yul\":861:927   */\n      0xffffffffffffffffffffffffffffffffffffffffffffffffffffffffffffffff\n        /* \"#utility.yul\":854:859   */\n      dup3\n        /* \"#utility.yul\":851:928   */\n      eq\n        /* \"#utility.yul\":848:951   */\n      iszero\n      tag_39\n      jumpi\n        /* \"#utility.yul\":931:949   */\n      tag_40\n      tag_35\n      jump\t// in\n    tag_40:\n        /* \"#utility.yul\":848:951   */\n    tag_39:\n        /* \"#utility.yul\":978:979   */\n      0x01\n        /* \"#utility.yul\":971:976   */\n      dup3\n        /* \"#utility.yul\":967:980   */\n      add\n        /* \"#utility.yul\":960:980   */\n      swap1\n      pop\n        /* \"#utility.yul\":753:986   */\n      swap2\n      swap1\n      pop\n      jump\t// out\n        /* \"#utility.yul\":992:1172   */\n    tag_35:\n        /* \"#utility.yul\":1040:1117   */\n      0x4e487b7100000000000000000000000000000000000000000000000000000000\n        /* \"#utility.yul\":1037:1038   */\n      0x00\n        /* \"#utility.yul\":1030:1118   */\n      mstore\n        /* \"#utility.yul\":1137:1141   */\n      0x11\n        /* \"#utility.yul\":1134:1135   */\n      0x04\n        /* \"#utility.yul\":1127:1142   */\n      mstore\n        /* \"#utility.yul\":1161:1165   */\n      0x24\n        /* \"#utility.yul\":1158:1159   */\n      0x00\n        /* \"#utility.yul\":1151:1166   */\n      revert\n\n    auxdata: 0xa2646970667358221220fcc3022581ad78cf6216759605aef0454581a3ecf54048b1f6de5cc30d03daca64736f6c63430008070033\n}\n",
				"bytecode": {
					"linkReferences": {},
					"object": "60806040526002600055600560015534801561001a57600080fd5b5061020b8061002a6000396000f3fe608060405234801561001057600080fd5b50600436106100415760003560e01c80630dbe671f146100465780634df7e3d0146100645780636d4ce63c14610082575b600080fd5b61004e61008c565b60405161005b91906100e2565b60405180910390f35b61006c610092565b60405161007991906100e2565b60405180910390f35b61008a610098565b005b60005481565b60015481565b60005b60038110156100d05760016000808282546100b691906100fd565b9250508190555080806100c89061015d565b91505061009b565b50565b6100dc81610153565b82525050565b60006020820190506100f760008301846100d3565b92915050565b600061010882610153565b915061011383610153565b9250827fffffffffffffffffffffffffffffffffffffffffffffffffffffffffffffffff03821115610148576101476101a6565b5b828201905092915050565b6000819050919050565b600061016882610153565b91507fffffffffffffffffffffffffffffffffffffffffffffffffffffffffffffffff82141561019b5761019a6101a6565b5b600182019050919050565b7f4e487b7100000000000000000000000000000000000000000000000000000000600052601160045260246000fdfea2646970667358221220fcc3022581ad78cf6216759605aef0454581a3ecf54048b1f6de5cc30d03daca64736f6c63430008070033",
					"opcodes": "PUSH1 0x80 PUSH1 0x40 MSTORE PUSH1 0x2 PUSH1 0x0 SSTORE PUSH1 0x5 PUSH1 0x1 SSTORE CALLVALUE DUP1 ISZERO PUSH2 0x1A JUMPI PUSH1 0x0 DUP1 REVERT JUMPDEST POP PUSH2 0x20B DUP1 PUSH2 0x2A PUSH1 0x0 CODECOPY PUSH1 0x0 RETURN INVALID PUSH1 0x80 PUSH1 0x40 MSTORE CALLVALUE DUP1 ISZERO PUSH2 0x10 JUMPI PUSH1 0x0 DUP1 REVERT JUMPDEST POP PUSH1 0x4 CALLDATASIZE LT PUSH2 0x41 JUMPI PUSH1 0x0 CALLDATALOAD PUSH1 0xE0 SHR DUP1 PUSH4 0xDBE671F EQ PUSH2 0x46 JUMPI DUP1 PUSH4 0x4DF7E3D0 EQ PUSH2 0x64 JUMPI DUP1 PUSH4 0x6D4CE63C EQ PUSH2 0x82 JUMPI JUMPDEST PUSH1 0x0 DUP1 REVERT JUMPDEST PUSH2 0x4E PUSH2 0x8C JUMP JUMPDEST PUSH1 0x40 MLOAD PUSH2 0x5B SWAP2 SWAP1 PUSH2 0xE2 JUMP JUMPDEST PUSH1 0x40 MLOAD DUP1 SWAP2 SUB SWAP1 RETURN JUMPDEST PUSH2 0x6C PUSH2 0x92 JUMP JUMPDEST PUSH1 0x40 MLOAD PUSH2 0x79 SWAP2 SWAP1 PUSH2 0xE2 JUMP JUMPDEST PUSH1 0x40 MLOAD DUP1 SWAP2 SUB SWAP1 RETURN JUMPDEST PUSH2 0x8A PUSH2 0x98 JUMP JUMPDEST STOP JUMPDEST PUSH1 0x0 SLOAD DUP2 JUMP JUMPDEST PUSH1 0x1 SLOAD DUP2 JUMP JUMPDEST PUSH1 0x0 JUMPDEST PUSH1 0x3 DUP2 LT ISZERO PUSH2 0xD0 JUMPI PUSH1 0x1 PUSH1 0x0 DUP1 DUP3 DUP3 SLOAD PUSH2 0xB6 SWAP2 SWAP1 PUSH2 0xFD JUMP JUMPDEST SWAP3 POP POP DUP2 SWAP1 SSTORE POP DUP1 DUP1 PUSH2 0xC8 SWAP1 PUSH2 0x15D JUMP JUMPDEST SWAP2 POP POP PUSH2 0x9B JUMP JUMPDEST POP JUMP JUMPDEST PUSH2 0xDC DUP2 PUSH2 0x153 JUMP JUMPDEST DUP3 MSTORE POP POP JUMP JUMPDEST PUSH1 0x0 PUSH1 0x20 DUP3 ADD SWAP1 POP PUSH2 0xF7 PUSH1 0x0 DUP4 ADD DUP5 PUSH2 0xD3 JUMP JUMPDEST SWAP3 SWAP2 POP POP JUMP JUMPDEST PUSH1 0x0 PUSH2 0x108 DUP3 PUSH2 0x153 JUMP JUMPDEST SWAP2 POP PUSH2 0x113 DUP4 PUSH2 0x153 JUMP JUMPDEST SWAP3 POP DUP3 PUSH32 0xFFFFFFFFFFFFFFFFFFFFFFFFFFFFFFFFFFFFFFFFFFFFFFFFFFFFFFFFFFFFFFFF SUB DUP3 GT ISZERO PUSH2 0x148 JUMPI PUSH2 0x147 PUSH2 0x1A6 JUMP JUMPDEST JUMPDEST DUP3 DUP3 ADD SWAP1 POP SWAP3 SWAP2 POP POP JUMP JUMPDEST PUSH1 0x0 DUP2 SWAP1 POP SWAP2 SWAP1 POP JUMP JUMPDEST PUSH1 0x0 PUSH2 0x168 DUP3 PUSH2 0x153 JUMP JUMPDEST SWAP2 POP PUSH32 0xFFFFFFFFFFFFFFFFFFFFFFFFFFFFFFFFFFFFFFFFFFFFFFFFFFFFFFFFFFFFFFFF DUP3 EQ ISZERO PUSH2 0x19B JUMPI PUSH2 0x19A PUSH2 0x1A6 JUMP JUMPDEST JUMPDEST PUSH1 0x1 DUP3 ADD SWAP1 POP SWAP2 SWAP1 POP JUMP JUMPDEST PUSH32 0x4E487B7100000000000000000000000000000000000000000000000000000000 PUSH1 0x0 MSTORE PUSH1 0x11 PUSH1 0x4 MSTORE PUSH1 0x24 PUSH1 0x0 REVERT INVALID LOG2 PUSH5 0x6970667358 0x22 SLT KECCAK256 0xFC 0xC3 MUL 0x25 DUP2 0xAD PUSH25 0xCF6216759605AEF0454581A3ECF54048B1F6DE5CC30D03DACA PUSH5 0x736F6C6343 STOP ADDMOD SMOD STOP CALLER "
				},
				"gasEstimates": {
					"creation": {
						"codeDepositCost": "104600",
						"executionCost": "44365",
						"totalCost": "148965"
					},
					"external": {
						"a()": "2407",
						"b()": "2429",
						"get()": "infinite"
					}
				},
				"methodIdentifiers": {
					"a()": "0dbe671f",
					"b()": "4df7e3d0",
					"get()": "6d4ce63c"
				}
			},
			"storageLayout": {
				"storage": [
					{
						"astId": 4,
						"contract": "loops.sol:loops",
						"label": "a",
						"offset": 0,
						"slot": "0",
						"type": "t_uint256"
					},
					{
						"astId": 7,
						"contract": "loops.sol:loops",
						"label": "b",
						"offset": 0,
						"slot": "1",
						"type": "t_uint256"
					}
				],
				"types": {
					"t_uint256": {
						"encoding": "inplace",
						"label": "uint256",
						"numberOfBytes": "32"
					}
				}
			},
			"userdoc": {
				"kind": "user",
				"methods": {},
				"version": 1
			}
		}
	}
}