{
	"struct.sol": {
		"Struct": {
			"abi": [
				{
					"inputs": [
						{
							"internalType": "uint256",
							"name": "",
							"type": "uint256"
						}
					],
					"name": "allstudents",
					"outputs": [
						{
							"internalType": "string",
							"name": "name",
							"type": "string"
						},
						{
							"internalType": "uint256",
							"name": "age",
							"type": "uint256"
						},
						{
							"internalType": "uint256",
							"name": "class",
							"type": "uint256"
						}
					],
					"stateMutability": "view",
					"type": "function"
				},
				{
					"inputs": [
						{
							"internalType": "string",
							"name": "_name",
							"type": "string"
						},
						{
							"internalType": "uint256",
							"name": "_age",
							"type": "uint256"
						},
						{
							"internalType": "uint256",
							"name": "_class",
							"type": "uint256"
						}
					],
					"name": "getStuent",
					"outputs": [],
					"stateMutability": "nonpayable",
					"type": "function"
				}
			],
			"devdoc": {
				"kind": "dev",
				"methods": {},
				"version": 1
			},
			"evm": {
				"assembly": "    /* \"struct.sol\":67:919  contract Struct{... */\n  mstore(0x40, 0x80)\n  callvalue\n  dup1\n  iszero\n  tag_1\n  jumpi\n  0x00\n  dup1\n  revert\ntag_1:\n  pop\n  dataSize(sub_0)\n  dup1\n  dataOffset(sub_0)\n  0x00\n  codecopy\n  0x00\n  return\nstop\n\nsub_0: assembly {\n        /* \"struct.sol\":67:919  contract Struct{... */\n      mstore(0x40, 0x80)\n      callvalue\n      dup1\n      iszero\n      tag_1\n      jumpi\n      0x00\n      dup1\n      revert\n    tag_1:\n      pop\n      jumpi(tag_2, lt(calldatasize, 0x04))\n      shr(0xe0, calldataload(0x00))\n      dup1\n      0x9bbd7b0e\n      eq\n      tag_3\n      jumpi\n      dup1\n      0xf78943a9\n      eq\n      tag_4\n      jumpi\n    tag_2:\n      0x00\n      dup1\n      revert\n        /* \"struct.sol\":669:917  function getStuent(string memory _name, uint _age, uint _class) public{... */\n    tag_3:\n      tag_5\n      0x04\n      dup1\n      calldatasize\n      sub\n      dup2\n      add\n      swap1\n      tag_6\n      swap2\n      swap1\n      tag_7\n      jump\t// in\n    tag_6:\n      tag_8\n      jump\t// in\n    tag_5:\n      stop\n        /* \"struct.sol\":591:619  student[] public allstudents */\n    tag_4:\n      tag_9\n      0x04\n      dup1\n      calldatasize\n      sub\n      dup2\n      add\n      swap1\n      tag_10\n      swap2\n      swap1\n      tag_11\n      jump\t// in\n    tag_10:\n      tag_12\n      jump\t// in\n    tag_9:\n      mload(0x40)\n      tag_13\n      swap4\n      swap3\n      swap2\n      swap1\n      tag_14\n      jump\t// in\n    tag_13:\n      mload(0x40)\n      dup1\n      swap2\n      sub\n      swap1\n      return\n        /* \"struct.sol\":669:917  function getStuent(string memory _name, uint _age, uint _class) public{... */\n    tag_8:\n        /* \"struct.sol\":749:774  student memory newstudent */\n      0x00\n        /* \"struct.sol\":777:871  student({... */\n      mload(0x40)\n      dup1\n      0x60\n      add\n      0x40\n      mstore\n      dup1\n        /* \"struct.sol\":805:810  _name */\n      dup6\n        /* \"struct.sol\":777:871  student({... */\n      dup2\n      mstore\n      0x20\n      add\n        /* \"struct.sol\":829:833  _age */\n      dup5\n        /* \"struct.sol\":777:871  student({... */\n      dup2\n      mstore\n      0x20\n      add\n        /* \"struct.sol\":854:860  _class */\n      dup4\n        /* \"struct.sol\":777:871  student({... */\n      dup2\n      mstore\n      pop\n        /* \"struct.sol\":749:871  student memory newstudent = student({... */\n      swap1\n      pop\n        /* \"struct.sol\":882:893  allstudents */\n      0x00\n        /* \"struct.sol\":899:909  newstudent */\n      dup2\n        /* \"struct.sol\":882:910  allstudents.push(newstudent) */\n      swap1\n      dup1\n      0x01\n      dup2\n      sload\n      add\n      dup1\n      dup3\n      sstore\n      dup1\n      swap2\n      pop\n      pop\n      0x01\n      swap1\n      sub\n      swap1\n      0x00\n      mstore\n      keccak256(0x00, 0x20)\n      swap1\n      0x03\n      mul\n      add\n      0x00\n      swap1\n      swap2\n      swap1\n      swap2\n      swap1\n      swap2\n      pop\n      0x00\n      dup3\n      add\n      mload\n      dup2\n      0x00\n      add\n      swap1\n      dup1\n      mload\n      swap1\n      0x20\n      add\n      swap1\n      tag_17\n      swap3\n      swap2\n      swap1\n      tag_18\n      jump\t// in\n    tag_17:\n      pop\n      0x20\n      dup3\n      add\n      mload\n      dup2\n      0x01\n      add\n      sstore\n      0x40\n      dup3\n      add\n      mload\n      dup2\n      0x02\n      add\n      sstore\n      pop\n      pop\n        /* \"struct.sol\":739:917  {... */\n      pop\n        /* \"struct.sol\":669:917  function getStuent(string memory _name, uint _age, uint _class) public{... */\n      pop\n      pop\n      pop\n      jump\t// out\n        /* \"struct.sol\":591:619  student[] public allstudents */\n    tag_12:\n      0x00\n      dup2\n      dup2\n      sload\n      dup2\n      lt\n      tag_19\n      jumpi\n      0x00\n      dup1\n      revert\n    tag_19:\n      swap1\n      0x00\n      mstore\n      keccak256(0x00, 0x20)\n      swap1\n      0x03\n      mul\n      add\n      0x00\n      swap2\n      pop\n      swap1\n      pop\n      dup1\n      0x00\n      add\n      dup1\n      sload\n      tag_21\n      swap1\n      tag_22\n      jump\t// in\n    tag_21:\n      dup1\n      0x1f\n      add\n      0x20\n      dup1\n      swap2\n      div\n      mul\n      0x20\n      add\n      mload(0x40)\n      swap1\n      dup2\n      add\n      0x40\n      mstore\n      dup1\n      swap3\n      swap2\n      swap1\n      dup2\n      dup2\n      mstore\n      0x20\n      add\n      dup3\n      dup1\n      sload\n      tag_23\n      swap1\n      tag_22\n      jump\t// in\n    tag_23:\n      dup1\n      iszero\n      tag_24\n      jumpi\n      dup1\n      0x1f\n      lt\n      tag_25\n      jumpi\n      0x0100\n      dup1\n      dup4\n      sload\n      div\n      mul\n      dup4\n      mstore\n      swap2\n      0x20\n      add\n      swap2\n      jump(tag_24)\n    tag_25:\n      dup3\n      add\n      swap2\n      swap1\n      0x00\n      mstore\n      keccak256(0x00, 0x20)\n      swap1\n    tag_26:\n      dup2\n      sload\n      dup2\n      mstore\n      swap1\n      0x01\n      add\n      swap1\n      0x20\n      add\n      dup1\n      dup4\n      gt\n      tag_26\n      jumpi\n      dup3\n      swap1\n      sub\n      0x1f\n      and\n      dup3\n      add\n      swap2\n    tag_24:\n      pop\n      pop\n      pop\n      pop\n      pop\n      swap1\n      dup1\n      0x01\n      add\n      sload\n      swap1\n      dup1\n      0x02\n      add\n      sload\n      swap1\n      pop\n      dup4\n      jump\t// out\n    tag_18:\n      dup3\n      dup1\n      sload\n      tag_27\n      swap1\n      tag_22\n      jump\t// in\n    tag_27:\n      swap1\n      0x00\n      mstore\n      keccak256(0x00, 0x20)\n      swap1\n      0x1f\n      add\n      0x20\n      swap1\n      div\n      dup2\n      add\n      swap3\n      dup3\n      tag_29\n      jumpi\n      0x00\n      dup6\n      sstore\n      jump(tag_28)\n    tag_29:\n      dup3\n      0x1f\n      lt\n      tag_30\n      jumpi\n      dup1\n      mload\n      not(0xff)\n      and\n      dup4\n      dup1\n      add\n      or\n      dup6\n      sstore\n      jump(tag_28)\n    tag_30:\n      dup3\n      dup1\n      add\n      0x01\n      add\n      dup6\n      sstore\n      dup3\n      iszero\n      tag_28\n      jumpi\n      swap2\n      dup3\n      add\n    tag_31:\n      dup3\n      dup2\n      gt\n      iszero\n      tag_32\n      jumpi\n      dup3\n      mload\n      dup3\n      sstore\n      swap2\n      0x20\n      add\n      swap2\n      swap1\n      0x01\n      add\n      swap1\n      jump(tag_31)\n    tag_32:\n    tag_28:\n      pop\n      swap1\n      pop\n      tag_33\n      swap2\n      swap1\n      tag_34\n      jump\t// in\n    tag_33:\n      pop\n      swap1\n      jump\t// out\n    tag_34:\n    tag_35:\n      dup1\n      dup3\n      gt\n      iszero\n      tag_36\n      jumpi\n      0x00\n      dup2\n      0x00\n      swap1\n      sstore\n      pop\n      0x01\n      add\n      jump(tag_35)\n    tag_36:\n      pop\n      swap1\n      jump\t// out\n        /* \"#utility.yul\":7:419   */\n    tag_38:\n        /* \"#utility.yul\":85:90   */\n      0x00\n        /* \"#utility.yul\":110:176   */\n      tag_40\n        /* \"#utility.yul\":126:175   */\n      tag_41\n        /* \"#utility.yul\":168:174   */\n      dup5\n        /* \"#utility.yul\":126:175   */\n      tag_42\n      jump\t// in\n    tag_41:\n        /* \"#utility.yul\":110:176   */\n      tag_43\n      jump\t// in\n    tag_40:\n        /* \"#utility.yul\":101:176   */\n      swap1\n      pop\n        /* \"#utility.yul\":199:205   */\n      dup3\n        /* \"#utility.yul\":192:197   */\n      dup2\n        /* \"#utility.yul\":185:206   */\n      mstore\n        /* \"#utility.yul\":237:241   */\n      0x20\n        /* \"#utility.yul\":230:235   */\n      dup2\n        /* \"#utility.yul\":226:242   */\n      add\n        /* \"#utility.yul\":275:278   */\n      dup5\n        /* \"#utility.yul\":266:272   */\n      dup5\n        /* \"#utility.yul\":261:264   */\n      dup5\n        /* \"#utility.yul\":257:273   */\n      add\n        /* \"#utility.yul\":254:279   */\n      gt\n        /* \"#utility.yul\":251:363   */\n      iszero\n      tag_44\n      jumpi\n        /* \"#utility.yul\":282:361   */\n      tag_45\n      tag_46\n      jump\t// in\n    tag_45:\n        /* \"#utility.yul\":251:363   */\n    tag_44:\n        /* \"#utility.yul\":372:413   */\n      tag_47\n        /* \"#utility.yul\":406:412   */\n      dup5\n        /* \"#utility.yul\":401:404   */\n      dup3\n        /* \"#utility.yul\":396:399   */\n      dup6\n        /* \"#utility.yul\":372:413   */\n      tag_48\n      jump\t// in\n    tag_47:\n        /* \"#utility.yul\":91:419   */\n      pop\n        /* \"#utility.yul\":7:419   */\n      swap4\n      swap3\n      pop\n      pop\n      pop\n      jump\t// out\n        /* \"#utility.yul\":439:779   */\n    tag_49:\n        /* \"#utility.yul\":495:500   */\n      0x00\n        /* \"#utility.yul\":544:547   */\n      dup3\n        /* \"#utility.yul\":537:541   */\n      0x1f\n        /* \"#utility.yul\":529:535   */\n      dup4\n        /* \"#utility.yul\":525:542   */\n      add\n        /* \"#utility.yul\":521:548   */\n      slt\n        /* \"#utility.yul\":511:633   */\n      tag_51\n      jumpi\n        /* \"#utility.yul\":552:631   */\n      tag_52\n      tag_53\n      jump\t// in\n    tag_52:\n        /* \"#utility.yul\":511:633   */\n    tag_51:\n        /* \"#utility.yul\":669:675   */\n      dup2\n        /* \"#utility.yul\":656:676   */\n      calldataload\n        /* \"#utility.yul\":694:773   */\n      tag_54\n        /* \"#utility.yul\":769:772   */\n      dup5\n        /* \"#utility.yul\":761:767   */\n      dup3\n        /* \"#utility.yul\":754:758   */\n      0x20\n        /* \"#utility.yul\":746:752   */\n      dup7\n        /* \"#utility.yul\":742:759   */\n      add\n        /* \"#utility.yul\":694:773   */\n      tag_38\n      jump\t// in\n    tag_54:\n        /* \"#utility.yul\":685:773   */\n      swap2\n      pop\n        /* \"#utility.yul\":501:779   */\n      pop\n        /* \"#utility.yul\":439:779   */\n      swap3\n      swap2\n      pop\n      pop\n      jump\t// out\n        /* \"#utility.yul\":785:924   */\n    tag_55:\n        /* \"#utility.yul\":831:836   */\n      0x00\n        /* \"#utility.yul\":869:875   */\n      dup2\n        /* \"#utility.yul\":856:876   */\n      calldataload\n        /* \"#utility.yul\":847:876   */\n      swap1\n      pop\n        /* \"#utility.yul\":885:918   */\n      tag_57\n        /* \"#utility.yul\":912:917   */\n      dup2\n        /* \"#utility.yul\":885:918   */\n      tag_58\n      jump\t// in\n    tag_57:\n        /* \"#utility.yul\":785:924   */\n      swap3\n      swap2\n      pop\n      pop\n      jump\t// out\n        /* \"#utility.yul\":930:1729   */\n    tag_7:\n        /* \"#utility.yul\":1017:1023   */\n      0x00\n        /* \"#utility.yul\":1025:1031   */\n      dup1\n        /* \"#utility.yul\":1033:1039   */\n      0x00\n        /* \"#utility.yul\":1082:1084   */\n      0x60\n        /* \"#utility.yul\":1070:1079   */\n      dup5\n        /* \"#utility.yul\":1061:1068   */\n      dup7\n        /* \"#utility.yul\":1057:1080   */\n      sub\n        /* \"#utility.yul\":1053:1085   */\n      slt\n        /* \"#utility.yul\":1050:1169   */\n      iszero\n      tag_60\n      jumpi\n        /* \"#utility.yul\":1088:1167   */\n      tag_61\n      tag_62\n      jump\t// in\n    tag_61:\n        /* \"#utility.yul\":1050:1169   */\n    tag_60:\n        /* \"#utility.yul\":1236:1237   */\n      0x00\n        /* \"#utility.yul\":1225:1234   */\n      dup5\n        /* \"#utility.yul\":1221:1238   */\n      add\n        /* \"#utility.yul\":1208:1239   */\n      calldataload\n        /* \"#utility.yul\":1266:1284   */\n      0xffffffffffffffff\n        /* \"#utility.yul\":1258:1264   */\n      dup2\n        /* \"#utility.yul\":1255:1285   */\n      gt\n        /* \"#utility.yul\":1252:1369   */\n      iszero\n      tag_63\n      jumpi\n        /* \"#utility.yul\":1288:1367   */\n      tag_64\n      tag_65\n      jump\t// in\n    tag_64:\n        /* \"#utility.yul\":1252:1369   */\n    tag_63:\n        /* \"#utility.yul\":1393:1456   */\n      tag_66\n        /* \"#utility.yul\":1448:1455   */\n      dup7\n        /* \"#utility.yul\":1439:1445   */\n      dup3\n        /* \"#utility.yul\":1428:1437   */\n      dup8\n        /* \"#utility.yul\":1424:1446   */\n      add\n        /* \"#utility.yul\":1393:1456   */\n      tag_49\n      jump\t// in\n    tag_66:\n        /* \"#utility.yul\":1383:1456   */\n      swap4\n      pop\n        /* \"#utility.yul\":1179:1466   */\n      pop\n        /* \"#utility.yul\":1505:1507   */\n      0x20\n        /* \"#utility.yul\":1531:1584   */\n      tag_67\n        /* \"#utility.yul\":1576:1583   */\n      dup7\n        /* \"#utility.yul\":1567:1573   */\n      dup3\n        /* \"#utility.yul\":1556:1565   */\n      dup8\n        /* \"#utility.yul\":1552:1574   */\n      add\n        /* \"#utility.yul\":1531:1584   */\n      tag_55\n      jump\t// in\n    tag_67:\n        /* \"#utility.yul\":1521:1584   */\n      swap3\n      pop\n        /* \"#utility.yul\":1476:1594   */\n      pop\n        /* \"#utility.yul\":1633:1635   */\n      0x40\n        /* \"#utility.yul\":1659:1712   */\n      tag_68\n        /* \"#utility.yul\":1704:1711   */\n      dup7\n        /* \"#utility.yul\":1695:1701   */\n      dup3\n        /* \"#utility.yul\":1684:1693   */\n      dup8\n        /* \"#utility.yul\":1680:1702   */\n      add\n        /* \"#utility.yul\":1659:1712   */\n      tag_55\n      jump\t// in\n    tag_68:\n        /* \"#utility.yul\":1649:1712   */\n      swap2\n      pop\n        /* \"#utility.yul\":1604:1722   */\n      pop\n        /* \"#utility.yul\":930:1729   */\n      swap3\n      pop\n      swap3\n      pop\n      swap3\n      jump\t// out\n        /* \"#utility.yul\":1735:2064   */\n    tag_11:\n        /* \"#utility.yul\":1794:1800   */\n      0x00\n        /* \"#utility.yul\":1843:1845   */\n      0x20\n        /* \"#utility.yul\":1831:1840   */\n      dup3\n        /* \"#utility.yul\":1822:1829   */\n      dup5\n        /* \"#utility.yul\":1818:1841   */\n      sub\n        /* \"#utility.yul\":1814:1846   */\n      slt\n        /* \"#utility.yul\":1811:1930   */\n      iszero\n      tag_70\n      jumpi\n        /* \"#utility.yul\":1849:1928   */\n      tag_71\n      tag_62\n      jump\t// in\n    tag_71:\n        /* \"#utility.yul\":1811:1930   */\n    tag_70:\n        /* \"#utility.yul\":1969:1970   */\n      0x00\n        /* \"#utility.yul\":1994:2047   */\n      tag_72\n        /* \"#utility.yul\":2039:2046   */\n      dup5\n        /* \"#utility.yul\":2030:2036   */\n      dup3\n        /* \"#utility.yul\":2019:2028   */\n      dup6\n        /* \"#utility.yul\":2015:2037   */\n      add\n        /* \"#utility.yul\":1994:2047   */\n      tag_55\n      jump\t// in\n    tag_72:\n        /* \"#utility.yul\":1984:2047   */\n      swap2\n      pop\n        /* \"#utility.yul\":1940:2057   */\n      pop\n        /* \"#utility.yul\":1735:2064   */\n      swap3\n      swap2\n      pop\n      pop\n      jump\t// out\n        /* \"#utility.yul\":2070:2434   */\n    tag_73:\n        /* \"#utility.yul\":2158:2161   */\n      0x00\n        /* \"#utility.yul\":2186:2225   */\n      tag_75\n        /* \"#utility.yul\":2219:2224   */\n      dup3\n        /* \"#utility.yul\":2186:2225   */\n      tag_76\n      jump\t// in\n    tag_75:\n        /* \"#utility.yul\":2241:2312   */\n      tag_77\n        /* \"#utility.yul\":2305:2311   */\n      dup2\n        /* \"#utility.yul\":2300:2303   */\n      dup6\n        /* \"#utility.yul\":2241:2312   */\n      tag_78\n      jump\t// in\n    tag_77:\n        /* \"#utility.yul\":2234:2312   */\n      swap4\n      pop\n        /* \"#utility.yul\":2321:2373   */\n      tag_79\n        /* \"#utility.yul\":2366:2372   */\n      dup2\n        /* \"#utility.yul\":2361:2364   */\n      dup6\n        /* \"#utility.yul\":2354:2358   */\n      0x20\n        /* \"#utility.yul\":2347:2352   */\n      dup7\n        /* \"#utility.yul\":2343:2359   */\n      add\n        /* \"#utility.yul\":2321:2373   */\n      tag_80\n      jump\t// in\n    tag_79:\n        /* \"#utility.yul\":2398:2427   */\n      tag_81\n        /* \"#utility.yul\":2420:2426   */\n      dup2\n        /* \"#utility.yul\":2398:2427   */\n      tag_82\n      jump\t// in\n    tag_81:\n        /* \"#utility.yul\":2393:2396   */\n      dup5\n        /* \"#utility.yul\":2389:2428   */\n      add\n        /* \"#utility.yul\":2382:2428   */\n      swap2\n      pop\n        /* \"#utility.yul\":2162:2434   */\n      pop\n        /* \"#utility.yul\":2070:2434   */\n      swap3\n      swap2\n      pop\n      pop\n      jump\t// out\n        /* \"#utility.yul\":2440:2558   */\n    tag_83:\n        /* \"#utility.yul\":2527:2551   */\n      tag_85\n        /* \"#utility.yul\":2545:2550   */\n      dup2\n        /* \"#utility.yul\":2527:2551   */\n      tag_86\n      jump\t// in\n    tag_85:\n        /* \"#utility.yul\":2522:2525   */\n      dup3\n        /* \"#utility.yul\":2515:2552   */\n      mstore\n        /* \"#utility.yul\":2440:2558   */\n      pop\n      pop\n      jump\t// out\n        /* \"#utility.yul\":2564:3097   */\n    tag_14:\n        /* \"#utility.yul\":2733:2737   */\n      0x00\n        /* \"#utility.yul\":2771:2773   */\n      0x60\n        /* \"#utility.yul\":2760:2769   */\n      dup3\n        /* \"#utility.yul\":2756:2774   */\n      add\n        /* \"#utility.yul\":2748:2774   */\n      swap1\n      pop\n        /* \"#utility.yul\":2820:2829   */\n      dup2\n        /* \"#utility.yul\":2814:2818   */\n      dup2\n        /* \"#utility.yul\":2810:2830   */\n      sub\n        /* \"#utility.yul\":2806:2807   */\n      0x00\n        /* \"#utility.yul\":2795:2804   */\n      dup4\n        /* \"#utility.yul\":2791:2808   */\n      add\n        /* \"#utility.yul\":2784:2831   */\n      mstore\n        /* \"#utility.yul\":2848:2926   */\n      tag_88\n        /* \"#utility.yul\":2921:2925   */\n      dup2\n        /* \"#utility.yul\":2912:2918   */\n      dup7\n        /* \"#utility.yul\":2848:2926   */\n      tag_73\n      jump\t// in\n    tag_88:\n        /* \"#utility.yul\":2840:2926   */\n      swap1\n      pop\n        /* \"#utility.yul\":2936:3008   */\n      tag_89\n        /* \"#utility.yul\":3004:3006   */\n      0x20\n        /* \"#utility.yul\":2993:3002   */\n      dup4\n        /* \"#utility.yul\":2989:3007   */\n      add\n        /* \"#utility.yul\":2980:2986   */\n      dup6\n        /* \"#utility.yul\":2936:3008   */\n      tag_83\n      jump\t// in\n    tag_89:\n        /* \"#utility.yul\":3018:3090   */\n      tag_90\n        /* \"#utility.yul\":3086:3088   */\n      0x40\n        /* \"#utility.yul\":3075:3084   */\n      dup4\n        /* \"#utility.yul\":3071:3089   */\n      add\n        /* \"#utility.yul\":3062:3068   */\n      dup5\n        /* \"#utility.yul\":3018:3090   */\n      tag_83\n      jump\t// in\n    tag_90:\n        /* \"#utility.yul\":2564:3097   */\n      swap5\n      swap4\n      pop\n      pop\n      pop\n      pop\n      jump\t// out\n        /* \"#utility.yul\":3103:3232   */\n    tag_43:\n        /* \"#utility.yul\":3137:3143   */\n      0x00\n        /* \"#utility.yul\":3164:3184   */\n      tag_92\n      tag_93\n      jump\t// in\n    tag_92:\n        /* \"#utility.yul\":3154:3184   */\n      swap1\n      pop\n        /* \"#utility.yul\":3193:3226   */\n      tag_94\n        /* \"#utility.yul\":3221:3225   */\n      dup3\n        /* \"#utility.yul\":3213:3219   */\n      dup3\n        /* \"#utility.yul\":3193:3226   */\n      tag_95\n      jump\t// in\n    tag_94:\n        /* \"#utility.yul\":3103:3232   */\n      swap2\n      swap1\n      pop\n      jump\t// out\n        /* \"#utility.yul\":3238:3313   */\n    tag_93:\n        /* \"#utility.yul\":3271:3277   */\n      0x00\n        /* \"#utility.yul\":3304:3306   */\n      0x40\n        /* \"#utility.yul\":3298:3307   */\n      mload\n        /* \"#utility.yul\":3288:3307   */\n      swap1\n      pop\n        /* \"#utility.yul\":3238:3313   */\n      swap1\n      jump\t// out\n        /* \"#utility.yul\":3319:3627   */\n    tag_42:\n        /* \"#utility.yul\":3381:3385   */\n      0x00\n        /* \"#utility.yul\":3471:3489   */\n      0xffffffffffffffff\n        /* \"#utility.yul\":3463:3469   */\n      dup3\n        /* \"#utility.yul\":3460:3490   */\n      gt\n        /* \"#utility.yul\":3457:3513   */\n      iszero\n      tag_98\n      jumpi\n        /* \"#utility.yul\":3493:3511   */\n      tag_99\n      tag_100\n      jump\t// in\n    tag_99:\n        /* \"#utility.yul\":3457:3513   */\n    tag_98:\n        /* \"#utility.yul\":3531:3560   */\n      tag_101\n        /* \"#utility.yul\":3553:3559   */\n      dup3\n        /* \"#utility.yul\":3531:3560   */\n      tag_82\n      jump\t// in\n    tag_101:\n        /* \"#utility.yul\":3523:3560   */\n      swap1\n      pop\n        /* \"#utility.yul\":3615:3619   */\n      0x20\n        /* \"#utility.yul\":3609:3613   */\n      dup2\n        /* \"#utility.yul\":3605:3620   */\n      add\n        /* \"#utility.yul\":3597:3620   */\n      swap1\n      pop\n        /* \"#utility.yul\":3319:3627   */\n      swap2\n      swap1\n      pop\n      jump\t// out\n        /* \"#utility.yul\":3633:3732   */\n    tag_76:\n        /* \"#utility.yul\":3685:3691   */\n      0x00\n        /* \"#utility.yul\":3719:3724   */\n      dup2\n        /* \"#utility.yul\":3713:3725   */\n      mload\n        /* \"#utility.yul\":3703:3725   */\n      swap1\n      pop\n        /* \"#utility.yul\":3633:3732   */\n      swap2\n      swap1\n      pop\n      jump\t// out\n        /* \"#utility.yul\":3738:3907   */\n    tag_78:\n        /* \"#utility.yul\":3822:3833   */\n      0x00\n        /* \"#utility.yul\":3856:3862   */\n      dup3\n        /* \"#utility.yul\":3851:3854   */\n      dup3\n        /* \"#utility.yul\":3844:3863   */\n      mstore\n        /* \"#utility.yul\":3896:3900   */\n      0x20\n        /* \"#utility.yul\":3891:3894   */\n      dup3\n        /* \"#utility.yul\":3887:3901   */\n      add\n        /* \"#utility.yul\":3872:3901   */\n      swap1\n      pop\n        /* \"#utility.yul\":3738:3907   */\n      swap3\n      swap2\n      pop\n      pop\n      jump\t// out\n        /* \"#utility.yul\":3913:3990   */\n    tag_86:\n        /* \"#utility.yul\":3950:3957   */\n      0x00\n        /* \"#utility.yul\":3979:3984   */\n      dup2\n        /* \"#utility.yul\":3968:3984   */\n      swap1\n      pop\n        /* \"#utility.yul\":3913:3990   */\n      swap2\n      swap1\n      pop\n      jump\t// out\n        /* \"#utility.yul\":3996:4150   */\n    tag_48:\n        /* \"#utility.yul\":4080:4086   */\n      dup3\n        /* \"#utility.yul\":4075:4078   */\n      dup2\n        /* \"#utility.yul\":4070:4073   */\n      dup4\n        /* \"#utility.yul\":4057:4087   */\n      calldatacopy\n        /* \"#utility.yul\":4142:4143   */\n      0x00\n        /* \"#utility.yul\":4133:4139   */\n      dup4\n        /* \"#utility.yul\":4128:4131   */\n      dup4\n        /* \"#utility.yul\":4124:4140   */\n      add\n        /* \"#utility.yul\":4117:4144   */\n      mstore\n        /* \"#utility.yul\":3996:4150   */\n      pop\n      pop\n      pop\n      jump\t// out\n        /* \"#utility.yul\":4156:4463   */\n    tag_80:\n        /* \"#utility.yul\":4224:4225   */\n      0x00\n        /* \"#utility.yul\":4234:4347   */\n    tag_107:\n        /* \"#utility.yul\":4248:4254   */\n      dup4\n        /* \"#utility.yul\":4245:4246   */\n      dup2\n        /* \"#utility.yul\":4242:4255   */\n      lt\n        /* \"#utility.yul\":4234:4347   */\n      iszero\n      tag_109\n      jumpi\n        /* \"#utility.yul\":4333:4334   */\n      dup1\n        /* \"#utility.yul\":4328:4331   */\n      dup3\n        /* \"#utility.yul\":4324:4335   */\n      add\n        /* \"#utility.yul\":4318:4336   */\n      mload\n        /* \"#utility.yul\":4314:4315   */\n      dup2\n        /* \"#utility.yul\":4309:4312   */\n      dup5\n        /* \"#utility.yul\":4305:4316   */\n      add\n        /* \"#utility.yul\":4298:4337   */\n      mstore\n        /* \"#utility.yul\":4270:4272   */\n      0x20\n        /* \"#utility.yul\":4267:4268   */\n      dup2\n        /* \"#utility.yul\":4263:4273   */\n      add\n        /* \"#utility.yul\":4258:4273   */\n      swap1\n      pop\n        /* \"#utility.yul\":4234:4347   */\n      jump(tag_107)\n    tag_109:\n        /* \"#utility.yul\":4365:4371   */\n      dup4\n        /* \"#utility.yul\":4362:4363   */\n      dup2\n        /* \"#utility.yul\":4359:4372   */\n      gt\n        /* \"#utility.yul\":4356:4457   */\n      iszero\n      tag_110\n      jumpi\n        /* \"#utility.yul\":4445:4446   */\n      0x00\n        /* \"#utility.yul\":4436:4442   */\n      dup5\n        /* \"#utility.yul\":4431:4434   */\n      dup5\n        /* \"#utility.yul\":4427:4443   */\n      add\n        /* \"#utility.yul\":4420:4447   */\n      mstore\n        /* \"#utility.yul\":4356:4457   */\n    tag_110:\n        /* \"#utility.yul\":4205:4463   */\n      pop\n        /* \"#utility.yul\":4156:4463   */\n      pop\n      pop\n      pop\n      jump\t// out\n        /* \"#utility.yul\":4469:4789   */\n    tag_22:\n        /* \"#utility.yul\":4513:4519   */\n      0x00\n        /* \"#utility.yul\":4550:4551   */\n      0x02\n        /* \"#utility.yul\":4544:4548   */\n      dup3\n        /* \"#utility.yul\":4540:4552   */\n      div\n        /* \"#utility.yul\":4530:4552   */\n      swap1\n      pop\n        /* \"#utility.yul\":4597:4598   */\n      0x01\n        /* \"#utility.yul\":4591:4595   */\n      dup3\n        /* \"#utility.yul\":4587:4599   */\n      and\n        /* \"#utility.yul\":4618:4636   */\n      dup1\n        /* \"#utility.yul\":4608:4689   */\n      tag_112\n      jumpi\n        /* \"#utility.yul\":4674:4678   */\n      0x7f\n        /* \"#utility.yul\":4666:4672   */\n      dup3\n        /* \"#utility.yul\":4662:4679   */\n      and\n        /* \"#utility.yul\":4652:4679   */\n      swap2\n      pop\n        /* \"#utility.yul\":4608:4689   */\n    tag_112:\n        /* \"#utility.yul\":4736:4738   */\n      0x20\n        /* \"#utility.yul\":4728:4734   */\n      dup3\n        /* \"#utility.yul\":4725:4739   */\n      lt\n        /* \"#utility.yul\":4705:4723   */\n      dup2\n        /* \"#utility.yul\":4702:4740   */\n      eq\n        /* \"#utility.yul\":4699:4783   */\n      iszero\n      tag_113\n      jumpi\n        /* \"#utility.yul\":4755:4773   */\n      tag_114\n      tag_115\n      jump\t// in\n    tag_114:\n        /* \"#utility.yul\":4699:4783   */\n    tag_113:\n        /* \"#utility.yul\":4520:4789   */\n      pop\n        /* \"#utility.yul\":4469:4789   */\n      swap2\n      swap1\n      pop\n      jump\t// out\n        /* \"#utility.yul\":4795:5076   */\n    tag_95:\n        /* \"#utility.yul\":4878:4905   */\n      tag_117\n        /* \"#utility.yul\":4900:4904   */\n      dup3\n        /* \"#utility.yul\":4878:4905   */\n      tag_82\n      jump\t// in\n    tag_117:\n        /* \"#utility.yul\":4870:4876   */\n      dup2\n        /* \"#utility.yul\":4866:4906   */\n      add\n        /* \"#utility.yul\":5008:5014   */\n      dup2\n        /* \"#utility.yul\":4996:5006   */\n      dup2\n        /* \"#utility.yul\":4993:5015   */\n      lt\n        /* \"#utility.yul\":4972:4990   */\n      0xffffffffffffffff\n        /* \"#utility.yul\":4960:4970   */\n      dup3\n        /* \"#utility.yul\":4957:4991   */\n      gt\n        /* \"#utility.yul\":4954:5016   */\n      or\n        /* \"#utility.yul\":4951:5039   */\n      iszero\n      tag_118\n      jumpi\n        /* \"#utility.yul\":5019:5037   */\n      tag_119\n      tag_100\n      jump\t// in\n    tag_119:\n        /* \"#utility.yul\":4951:5039   */\n    tag_118:\n        /* \"#utility.yul\":5059:5069   */\n      dup1\n        /* \"#utility.yul\":5055:5057   */\n      0x40\n        /* \"#utility.yul\":5048:5070   */\n      mstore\n        /* \"#utility.yul\":4838:5076   */\n      pop\n        /* \"#utility.yul\":4795:5076   */\n      pop\n      pop\n      jump\t// out\n        /* \"#utility.yul\":5082:5262   */\n    tag_115:\n        /* \"#utility.yul\":5130:5207   */\n      0x4e487b7100000000000000000000000000000000000000000000000000000000\n        /* \"#utility.yul\":5127:5128   */\n      0x00\n        /* \"#utility.yul\":5120:5208   */\n      mstore\n        /* \"#utility.yul\":5227:5231   */\n      0x22\n        /* \"#utility.yul\":5224:5225   */\n      0x04\n        /* \"#utility.yul\":5217:5232   */\n      mstore\n        /* \"#utility.yul\":5251:5255   */\n      0x24\n        /* \"#utility.yul\":5248:5249   */\n      0x00\n        /* \"#utility.yul\":5241:5256   */\n      revert\n        /* \"#utility.yul\":5268:5448   */\n    tag_100:\n        /* \"#utility.yul\":5316:5393   */\n      0x4e487b7100000000000000000000000000000000000000000000000000000000\n        /* \"#utility.yul\":5313:5314   */\n      0x00\n        /* \"#utility.yul\":5306:5394   */\n      mstore\n        /* \"#utility.yul\":5413:5417   */\n      0x41\n        /* \"#utility.yul\":5410:5411   */\n      0x04\n        /* \"#utility.yul\":5403:5418   */\n      mstore\n        /* \"#utility.yul\":5437:5441   */\n      0x24\n        /* \"#utility.yul\":5434:5435   */\n      0x00\n        /* \"#utility.yul\":5427:5442   */\n      revert\n        /* \"#utility.yul\":5454:5571   */\n    tag_53:\n        /* \"#utility.yul\":5563:5564   */\n      0x00\n        /* \"#utility.yul\":5560:5561   */\n      dup1\n        /* \"#utility.yul\":5553:5565   */\n      revert\n        /* \"#utility.yul\":5577:5694   */\n    tag_46:\n        /* \"#utility.yul\":5686:5687   */\n      0x00\n        /* \"#utility.yul\":5683:5684   */\n      dup1\n        /* \"#utility.yul\":5676:5688   */\n      revert\n        /* \"#utility.yul\":5700:5817   */\n    tag_65:\n        /* \"#utility.yul\":5809:5810   */\n      0x00\n        /* \"#utility.yul\":5806:5807   */\n      dup1\n        /* \"#utility.yul\":5799:5811   */\n      revert\n        /* \"#utility.yul\":5823:5940   */\n    tag_62:\n        /* \"#utility.yul\":5932:5933   */\n      0x00\n        /* \"#utility.yul\":5929:5930   */\n      dup1\n        /* \"#utility.yul\":5922:5934   */\n      revert\n        /* \"#utility.yul\":5946:6048   */\n    tag_82:\n        /* \"#utility.yul\":5987:5993   */\n      0x00\n        /* \"#utility.yul\":6038:6040   */\n      0x1f\n        /* \"#utility.yul\":6034:6041   */\n      not\n        /* \"#utility.yul\":6029:6031   */\n      0x1f\n        /* \"#utility.yul\":6022:6027   */\n      dup4\n        /* \"#utility.yul\":6018:6032   */\n      add\n        /* \"#utility.yul\":6014:6042   */\n      and\n        /* \"#utility.yul\":6004:6042   */\n      swap1\n      pop\n        /* \"#utility.yul\":5946:6048   */\n      swap2\n      swap1\n      pop\n      jump\t// out\n        /* \"#utility.yul\":6054:6176   */\n    tag_58:\n        /* \"#utility.yul\":6127:6151   */\n      tag_128\n        /* \"#utility.yul\":6145:6150   */\n      dup2\n        /* \"#utility.yul\":6127:6151   */\n      tag_86\n      jump\t// in\n    tag_128:\n        /* \"#utility.yul\":6120:6125   */\n      dup2\n        /* \"#utility.yul\":6117:6152   */\n      eq\n        /* \"#utility.yul\":6107:6170   */\n      tag_129\n      jumpi\n        /* \"#utility.yul\":6166:6167   */\n      0x00\n        /* \"#utility.yul\":6163:6164   */\n      dup1\n        /* \"#utility.yul\":6156:6168   */\n      revert\n        /* \"#utility.yul\":6107:6170   */\n    tag_129:\n        /* \"#utility.yul\":6054:6176   */\n      pop\n      jump\t// out\n\n    auxdata: 0xa2646970667358221220459ccfa627a063b7a928b0d355c73fbf9f9aedd450722ac83d0a7e93c9f29c8164736f6c63430008070033\n}\n",
				"bytecode": {
					"linkReferences": {},
					"object": "608060405234801561001057600080fd5b5061060a806100206000396000f3fe608060405234801561001057600080fd5b50600436106100365760003560e01c80639bbd7b0e1461003b578063f78943a914610057575b600080fd5b610055600480360381019061005091906102f7565b610089565b005b610071600480360381019061006c9190610366565b61010d565b604051610080939291906103db565b60405180910390f35b60006040518060600160405280858152602001848152602001838152509050600081908060018154018082558091505060019003906000526020600020906003020160009091909190915060008201518160000190805190602001906100f09291906101cf565b506020820151816001015560408201518160020155505050505050565b6000818154811061011d57600080fd5b9060005260206000209060030201600091509050806000018054610140906104d7565b80601f016020809104026020016040519081016040528092919081815260200182805461016c906104d7565b80156101b95780601f1061018e576101008083540402835291602001916101b9565b820191906000526020600020905b81548152906001019060200180831161019c57829003601f168201915b5050505050908060010154908060020154905083565b8280546101db906104d7565b90600052602060002090601f0160209004810192826101fd5760008555610244565b82601f1061021657805160ff1916838001178555610244565b82800160010185558215610244579182015b82811115610243578251825591602001919060010190610228565b5b5090506102519190610255565b5090565b5b8082111561026e576000816000905550600101610256565b5090565b60006102856102808461043e565b610419565b9050828152602081018484840111156102a1576102a061059d565b5b6102ac848285610495565b509392505050565b600082601f8301126102c9576102c8610598565b5b81356102d9848260208601610272565b91505092915050565b6000813590506102f1816105bd565b92915050565b6000806000606084860312156103105761030f6105a7565b5b600084013567ffffffffffffffff81111561032e5761032d6105a2565b5b61033a868287016102b4565b935050602061034b868287016102e2565b925050604061035c868287016102e2565b9150509250925092565b60006020828403121561037c5761037b6105a7565b5b600061038a848285016102e2565b91505092915050565b600061039e8261046f565b6103a8818561047a565b93506103b88185602086016104a4565b6103c1816105ac565b840191505092915050565b6103d58161048b565b82525050565b600060608201905081810360008301526103f58186610393565b905061040460208301856103cc565b61041160408301846103cc565b949350505050565b6000610423610434565b905061042f8282610509565b919050565b6000604051905090565b600067ffffffffffffffff82111561045957610458610569565b5b610462826105ac565b9050602081019050919050565b600081519050919050565b600082825260208201905092915050565b6000819050919050565b82818337600083830152505050565b60005b838110156104c25780820151818401526020810190506104a7565b838111156104d1576000848401525b50505050565b600060028204905060018216806104ef57607f821691505b602082108114156105035761050261053a565b5b50919050565b610512826105ac565b810181811067ffffffffffffffff8211171561053157610530610569565b5b80604052505050565b7f4e487b7100000000000000000000000000000000000000000000000000000000600052602260045260246000fd5b7f4e487b7100000000000000000000000000000000000000000000000000000000600052604160045260246000fd5b600080fd5b600080fd5b600080fd5b600080fd5b6000601f19601f8301169050919050565b6105c68161048b565b81146105d157600080fd5b5056fea2646970667358221220459ccfa627a063b7a928b0d355c73fbf9f9aedd450722ac83d0a7e93c9f29c8164736f6c63430008070033",
					"opcodes": "PUSH1 0x80 PUSH1 0x40 MSTORE CALLVALUE DUP1 ISZERO PUSH2 0x10 JUMPI PUSH1 0x0 DUP1 REVERT JUMPDEST POP PUSH2 0x60A DUP1 PUSH2 0x20 PUSH1 0x0 CODECOPY PUSH1 0x0 RETURN INVALID PUSH1 0x80 PUSH1 0x40 MSTORE CALLVALUE DUP1 ISZERO PUSH2 0x10 JUMPI PUSH1 0x0 DUP1 REVERT JUMPDEST POP PUSH1 0x4 CALLDATASIZE LT PUSH2 0x36 JUMPI PUSH1 0x0 CALLDATALOAD PUSH1 0xE0 SHR DUP1 PUSH4 0x9BBD7B0E EQ PUSH2 0x3B JUMPI DUP1 PUSH4 0xF78943A9 EQ PUSH2 0x57 JUMPI JUMPDEST PUSH1 0x0 DUP1 REVERT JUMPDEST PUSH2 0x55 PUSH1 0x4 DUP1 CALLDATASIZE SUB DUP2 ADD SWAP1 PUSH2 0x50 SWAP2 SWAP1 PUSH2 0x2F7 JUMP JUMPDEST PUSH2 0x89 JUMP JUMPDEST STOP JUMPDEST PUSH2 0x71 PUSH1 0x4 DUP1 CALLDATASIZE SUB DUP2 ADD SWAP1 PUSH2 0x6C SWAP2 SWAP1 PUSH2 0x366 JUMP JUMPDEST PUSH2 0x10D JUMP JUMPDEST PUSH1 0x40 MLOAD PUSH2 0x80 SWAP4 SWAP3 SWAP2 SWAP1 PUSH2 0x3DB JUMP JUMPDEST PUSH1 0x40 MLOAD DUP1 SWAP2 SUB SWAP1 RETURN JUMPDEST PUSH1 0x0 PUSH1 0x40 MLOAD DUP1 PUSH1 0x60 ADD PUSH1 0x40 MSTORE DUP1 DUP6 DUP2 MSTORE PUSH1 0x20 ADD DUP5 DUP2 MSTORE PUSH1 0x20 ADD DUP4 DUP2 MSTORE POP SWAP1 POP PUSH1 0x0 DUP2 SWAP1 DUP1 PUSH1 0x1 DUP2 SLOAD ADD DUP1 DUP3 SSTORE DUP1 SWAP2 POP POP PUSH1 0x1 SWAP1 SUB SWAP1 PUSH1 0x0 MSTORE PUSH1 0x20 PUSH1 0x0 KECCAK256 SWAP1 PUSH1 0x3 MUL ADD PUSH1 0x0 SWAP1 SWAP2 SWAP1 SWAP2 SWAP1 SWAP2 POP PUSH1 0x0 DUP3 ADD MLOAD DUP2 PUSH1 0x0 ADD SWAP1 DUP1 MLOAD SWAP1 PUSH1 0x20 ADD SWAP1 PUSH2 0xF0 SWAP3 SWAP2 SWAP1 PUSH2 0x1CF JUMP JUMPDEST POP PUSH1 0x20 DUP3 ADD MLOAD DUP2 PUSH1 0x1 ADD SSTORE PUSH1 0x40 DUP3 ADD MLOAD DUP2 PUSH1 0x2 ADD SSTORE POP POP POP POP POP POP JUMP JUMPDEST PUSH1 0x0 DUP2 DUP2 SLOAD DUP2 LT PUSH2 0x11D JUMPI PUSH1 0x0 DUP1 REVERT JUMPDEST SWAP1 PUSH1 0x0 MSTORE PUSH1 0x20 PUSH1 0x0 KECCAK256 SWAP1 PUSH1 0x3 MUL ADD PUSH1 0x0 SWAP2 POP SWAP1 POP DUP1 PUSH1 0x0 ADD DUP1 SLOAD PUSH2 0x140 SWAP1 PUSH2 0x4D7 JUMP JUMPDEST DUP1 PUSH1 0x1F ADD PUSH1 0x20 DUP1 SWAP2 DIV MUL PUSH1 0x20 ADD PUSH1 0x40 MLOAD SWAP1 DUP2 ADD PUSH1 0x40 MSTORE DUP1 SWAP3 SWAP2 SWAP1 DUP2 DUP2 MSTORE PUSH1 0x20 ADD DUP3 DUP1 SLOAD PUSH2 0x16C SWAP1 PUSH2 0x4D7 JUMP JUMPDEST DUP1 ISZERO PUSH2 0x1B9 JUMPI DUP1 PUSH1 0x1F LT PUSH2 0x18E JUMPI PUSH2 0x100 DUP1 DUP4 SLOAD DIV MUL DUP4 MSTORE SWAP2 PUSH1 0x20 ADD SWAP2 PUSH2 0x1B9 JUMP JUMPDEST DUP3 ADD SWAP2 SWAP1 PUSH1 0x0 MSTORE PUSH1 0x20 PUSH1 0x0 KECCAK256 SWAP1 JUMPDEST DUP2 SLOAD DUP2 MSTORE SWAP1 PUSH1 0x1 ADD SWAP1 PUSH1 0x20 ADD DUP1 DUP4 GT PUSH2 0x19C JUMPI DUP3 SWAP1 SUB PUSH1 0x1F AND DUP3 ADD SWAP2 JUMPDEST POP POP POP POP POP SWAP1 DUP1 PUSH1 0x1 ADD SLOAD SWAP1 DUP1 PUSH1 0x2 ADD SLOAD SWAP1 POP DUP4 JUMP JUMPDEST DUP3 DUP1 SLOAD PUSH2 0x1DB SWAP1 PUSH2 0x4D7 JUMP JUMPDEST SWAP1 PUSH1 0x0 MSTORE PUSH1 0x20 PUSH1 0x0 KECCAK256 SWAP1 PUSH1 0x1F ADD PUSH1 0x20 SWAP1 DIV DUP2 ADD SWAP3 DUP3 PUSH2 0x1FD JUMPI PUSH1 0x0 DUP6 SSTORE PUSH2 0x244 JUMP JUMPDEST DUP3 PUSH1 0x1F LT PUSH2 0x216 JUMPI DUP1 MLOAD PUSH1 0xFF NOT AND DUP4 DUP1 ADD OR DUP6 SSTORE PUSH2 0x244 JUMP JUMPDEST DUP3 DUP1 ADD PUSH1 0x1 ADD DUP6 SSTORE DUP3 ISZERO PUSH2 0x244 JUMPI SWAP2 DUP3 ADD JUMPDEST DUP3 DUP2 GT ISZERO PUSH2 0x243 JUMPI DUP3 MLOAD DUP3 SSTORE SWAP2 PUSH1 0x20 ADD SWAP2 SWAP1 PUSH1 0x1 ADD SWAP1 PUSH2 0x228 JUMP JUMPDEST JUMPDEST POP SWAP1 POP PUSH2 0x251 SWAP2 SWAP1 PUSH2 0x255 JUMP JUMPDEST POP SWAP1 JUMP JUMPDEST JUMPDEST DUP1 DUP3 GT ISZERO PUSH2 0x26E JUMPI PUSH1 0x0 DUP2 PUSH1 0x0 SWAP1 SSTORE POP PUSH1 0x1 ADD PUSH2 0x256 JUMP JUMPDEST POP SWAP1 JUMP JUMPDEST PUSH1 0x0 PUSH2 0x285 PUSH2 0x280 DUP5 PUSH2 0x43E JUMP JUMPDEST PUSH2 0x419 JUMP JUMPDEST SWAP1 POP DUP3 DUP2 MSTORE PUSH1 0x20 DUP2 ADD DUP5 DUP5 DUP5 ADD GT ISZERO PUSH2 0x2A1 JUMPI PUSH2 0x2A0 PUSH2 0x59D JUMP JUMPDEST JUMPDEST PUSH2 0x2AC DUP5 DUP3 DUP6 PUSH2 0x495 JUMP JUMPDEST POP SWAP4 SWAP3 POP POP POP JUMP JUMPDEST PUSH1 0x0 DUP3 PUSH1 0x1F DUP4 ADD SLT PUSH2 0x2C9 JUMPI PUSH2 0x2C8 PUSH2 0x598 JUMP JUMPDEST JUMPDEST DUP2 CALLDATALOAD PUSH2 0x2D9 DUP5 DUP3 PUSH1 0x20 DUP7 ADD PUSH2 0x272 JUMP JUMPDEST SWAP2 POP POP SWAP3 SWAP2 POP POP JUMP JUMPDEST PUSH1 0x0 DUP2 CALLDATALOAD SWAP1 POP PUSH2 0x2F1 DUP2 PUSH2 0x5BD JUMP JUMPDEST SWAP3 SWAP2 POP POP JUMP JUMPDEST PUSH1 0x0 DUP1 PUSH1 0x0 PUSH1 0x60 DUP5 DUP7 SUB SLT ISZERO PUSH2 0x310 JUMPI PUSH2 0x30F PUSH2 0x5A7 JUMP JUMPDEST JUMPDEST PUSH1 0x0 DUP5 ADD CALLDATALOAD PUSH8 0xFFFFFFFFFFFFFFFF DUP2 GT ISZERO PUSH2 0x32E JUMPI PUSH2 0x32D PUSH2 0x5A2 JUMP JUMPDEST JUMPDEST PUSH2 0x33A DUP7 DUP3 DUP8 ADD PUSH2 0x2B4 JUMP JUMPDEST SWAP4 POP POP PUSH1 0x20 PUSH2 0x34B DUP7 DUP3 DUP8 ADD PUSH2 0x2E2 JUMP JUMPDEST SWAP3 POP POP PUSH1 0x40 PUSH2 0x35C DUP7 DUP3 DUP8 ADD PUSH2 0x2E2 JUMP JUMPDEST SWAP2 POP POP SWAP3 POP SWAP3 POP SWAP3 JUMP JUMPDEST PUSH1 0x0 PUSH1 0x20 DUP3 DUP5 SUB SLT ISZERO PUSH2 0x37C JUMPI PUSH2 0x37B PUSH2 0x5A7 JUMP JUMPDEST JUMPDEST PUSH1 0x0 PUSH2 0x38A DUP5 DUP3 DUP6 ADD PUSH2 0x2E2 JUMP JUMPDEST SWAP2 POP POP SWAP3 SWAP2 POP POP JUMP JUMPDEST PUSH1 0x0 PUSH2 0x39E DUP3 PUSH2 0x46F JUMP JUMPDEST PUSH2 0x3A8 DUP2 DUP6 PUSH2 0x47A JUMP JUMPDEST SWAP4 POP PUSH2 0x3B8 DUP2 DUP6 PUSH1 0x20 DUP7 ADD PUSH2 0x4A4 JUMP JUMPDEST PUSH2 0x3C1 DUP2 PUSH2 0x5AC JUMP JUMPDEST DUP5 ADD SWAP2 POP POP SWAP3 SWAP2 POP POP JUMP JUMPDEST PUSH2 0x3D5 DUP2 PUSH2 0x48B JUMP JUMPDEST DUP3 MSTORE POP POP JUMP JUMPDEST PUSH1 0x0 PUSH1 0x60 DUP3 ADD SWAP1 POP DUP2 DUP2 SUB PUSH1 0x0 DUP4 ADD MSTORE PUSH2 0x3F5 DUP2 DUP7 PUSH2 0x393 JUMP JUMPDEST SWAP1 POP PUSH2 0x404 PUSH1 0x20 DUP4 ADD DUP6 PUSH2 0x3CC JUMP JUMPDEST PUSH2 0x411 PUSH1 0x40 DUP4 ADD DUP5 PUSH2 0x3CC JUMP JUMPDEST SWAP5 SWAP4 POP POP POP POP JUMP JUMPDEST PUSH1 0x0 PUSH2 0x423 PUSH2 0x434 JUMP JUMPDEST SWAP1 POP PUSH2 0x42F DUP3 DUP3 PUSH2 0x509 JUMP JUMPDEST SWAP2 SWAP1 POP JUMP JUMPDEST PUSH1 0x0 PUSH1 0x40 MLOAD SWAP1 POP SWAP1 JUMP JUMPDEST PUSH1 0x0 PUSH8 0xFFFFFFFFFFFFFFFF DUP3 GT ISZERO PUSH2 0x459 JUMPI PUSH2 0x458 PUSH2 0x569 JUMP JUMPDEST JUMPDEST PUSH2 0x462 DUP3 PUSH2 0x5AC JUMP JUMPDEST SWAP1 POP PUSH1 0x20 DUP2 ADD SWAP1 POP SWAP2 SWAP1 POP JUMP JUMPDEST PUSH1 0x0 DUP2 MLOAD SWAP1 POP SWAP2 SWAP1 POP JUMP JUMPDEST PUSH1 0x0 DUP3 DUP3 MSTORE PUSH1 0x20 DUP3 ADD SWAP1 POP SWAP3 SWAP2 POP POP JUMP JUMPDEST PUSH1 0x0 DUP2 SWAP1 POP SWAP2 SWAP1 POP JUMP JUMPDEST DUP3 DUP2 DUP4 CALLDATACOPY PUSH1 0x0 DUP4 DUP4 ADD MSTORE POP POP POP JUMP JUMPDEST PUSH1 0x0 JUMPDEST DUP4 DUP2 LT ISZERO PUSH2 0x4C2 JUMPI DUP1 DUP3 ADD MLOAD DUP2 DUP5 ADD MSTORE PUSH1 0x20 DUP2 ADD SWAP1 POP PUSH2 0x4A7 JUMP JUMPDEST DUP4 DUP2 GT ISZERO PUSH2 0x4D1 JUMPI PUSH1 0x0 DUP5 DUP5 ADD MSTORE JUMPDEST POP POP POP POP JUMP JUMPDEST PUSH1 0x0 PUSH1 0x2 DUP3 DIV SWAP1 POP PUSH1 0x1 DUP3 AND DUP1 PUSH2 0x4EF JUMPI PUSH1 0x7F DUP3 AND SWAP2 POP JUMPDEST PUSH1 0x20 DUP3 LT DUP2 EQ ISZERO PUSH2 0x503 JUMPI PUSH2 0x502 PUSH2 0x53A JUMP JUMPDEST JUMPDEST POP SWAP2 SWAP1 POP JUMP JUMPDEST PUSH2 0x512 DUP3 PUSH2 0x5AC JUMP JUMPDEST DUP2 ADD DUP2 DUP2 LT PUSH8 0xFFFFFFFFFFFFFFFF DUP3 GT OR ISZERO PUSH2 0x531 JUMPI PUSH2 0x530 PUSH2 0x569 JUMP JUMPDEST JUMPDEST DUP1 PUSH1 0x40 MSTORE POP POP POP JUMP JUMPDEST PUSH32 0x4E487B7100000000000000000000000000000000000000000000000000000000 PUSH1 0x0 MSTORE PUSH1 0x22 PUSH1 0x4 MSTORE PUSH1 0x24 PUSH1 0x0 REVERT JUMPDEST PUSH32 0x4E487B7100000000000000000000000000000000000000000000000000000000 PUSH1 0x0 MSTORE PUSH1 0x41 PUSH1 0x4 MSTORE PUSH1 0x24 PUSH1 0x0 REVERT JUMPDEST PUSH1 0x0 DUP1 REVERT JUMPDEST PUSH1 0x0 DUP1 REVERT JUMPDEST PUSH1 0x0 DUP1 REVERT JUMPDEST PUSH1 0x0 DUP1 REVERT JUMPDEST PUSH1 0x0 PUSH1 0x1F NOT PUSH1 0x1F DUP4 ADD AND SWAP1 POP SWAP2 SWAP1 POP JUMP JUMPDEST PUSH2 0x5C6 DUP2 PUSH2 0x48B JUMP JUMPDEST DUP2 EQ PUSH2 0x5D1 JUMPI PUSH1 0x0 DUP1 REVERT JUMPDEST POP JUMP INVALID LOG2 PUSH5 0x6970667358 0x22 SLT KECCAK256 GASLIMIT SWAP13 0xCF 0xA6 0x27 LOG0 PUSH4 0xB7A928B0 0xD3 SSTORE 0xC7 EXTCODEHASH 0xBF SWAP16 SWAP11 0xED 0xD4 POP PUSH19 0x2AC83D0A7E93C9F29C8164736F6C6343000807 STOP CALLER "
				},
				"gasEstimates": {
					"creation": {
						"codeDepositCost": "309200",
						"executionCost": "349",
						"totalCost": "309549"
					},
					"external": {
						"allstudents(uint256)": "infinite",
						"getStuent(string,uint256,uint256)": "infinite"
					}
				},
				"methodIdentifiers": {
					"allstudents(uint256)": "f78943a9",
					"getStuent(string,uint256,uint256)": "9bbd7b0e"
				}
			},
			"storageLayout": {
				"storage": [
					{
						"astId": 12,
						"contract": "struct.sol:Struct",
						"label": "allstudents",
						"offset": 0,
						"slot": "0",
						"type": "t_array(t_struct(student)8_storage)dyn_storage"
					}
				],
				"types": {
					"t_array(t_struct(student)8_storage)dyn_storage": {
						"base": "t_struct(student)8_storage",
						"encoding": "dynamic_array",
						"label": "struct Struct.student[]",
						"numberOfBytes": "32"
					},
					"t_string_storage": {
						"encoding": "bytes",
						"label": "string",
						"numberOfBytes": "32"
					},
					"t_struct(student)8_storage": {
						"encoding": "inplace",
						"label": "struct Struct.student",
						"members": [
							{
								"astId": 3,
								"contract": "struct.sol:Struct",
								"label": "name",
								"offset": 0,
								"slot": "0",
								"type": "t_string_storage"
							},
							{
								"astId": 5,
								"contract": "struct.sol:Struct",
								"label": "age",
								"offset": 0,
								"slot": "1",
								"type": "t_uint256"
							},
							{
								"astId": 7,
								"contract": "struct.sol:Struct",
								"label": "class",
								"offset": 0,
								"slot": "2",
								"type": "t_uint256"
							}
						],
						"numberOfBytes": "96"
					},
					"t_uint256": {
						"encoding": "inplace",
						"label": "uint256",
						"numberOfBytes": "32"
					}
				}
			},
			"userdoc": {
				"kind": "user",
				"methods": {},
				"version": 1
			}
		}
	}
}