{
	"memory.sol": {
		"scopeVariables": {
			"abi": [
				{
					"inputs": [],
					"name": "get",
					"outputs": [
						{
							"internalType": "string",
							"name": "",
							"type": "string"
						}
					],
					"stateMutability": "pure",
					"type": "function"
				},
				{
					"inputs": [
						{
							"internalType": "string",
							"name": "name",
							"type": "string"
						}
					],
					"name": "name",
					"outputs": [
						{
							"internalType": "string",
							"name": "",
							"type": "string"
						}
					],
					"stateMutability": "pure",
					"type": "function"
				},
				{
					"inputs": [],
					"name": "val",
					"outputs": [
						{
							"internalType": "uint256",
							"name": "",
							"type": "uint256"
						}
					],
					"stateMutability": "view",
					"type": "function"
				}
			],
			"devdoc": {
				"kind": "dev",
				"methods": {},
				"version": 1
			},
			"evm": {
				"assembly": "    /* \"memory.sol\":66:552  contract scopeVariables {      ... */\n  mstore(0x40, 0x80)\n    /* \"memory.sol\":125:126  4 */\n  0x04\n    /* \"memory.sol\":107:126  uint public val = 4 */\n  0x00\n  sstore\n    /* \"memory.sol\":66:552  contract scopeVariables {      ... */\n  callvalue\n  dup1\n  iszero\n  tag_1\n  jumpi\n  0x00\n  dup1\n  revert\ntag_1:\n  pop\n  dataSize(sub_0)\n  dup1\n  dataOffset(sub_0)\n  0x00\n  codecopy\n  0x00\n  return\nstop\n\nsub_0: assembly {\n        /* \"memory.sol\":66:552  contract scopeVariables {      ... */\n      mstore(0x40, 0x80)\n      callvalue\n      dup1\n      iszero\n      tag_1\n      jumpi\n      0x00\n      dup1\n      revert\n    tag_1:\n      pop\n      jumpi(tag_2, lt(calldatasize, 0x04))\n      shr(0xe0, calldataload(0x00))\n      dup1\n      0x3c6bb436\n      eq\n      tag_3\n      jumpi\n      dup1\n      0x5b43bc99\n      eq\n      tag_4\n      jumpi\n      dup1\n      0x6d4ce63c\n      eq\n      tag_5\n      jumpi\n    tag_2:\n      0x00\n      dup1\n      revert\n        /* \"memory.sol\":107:126  uint public val = 4 */\n    tag_3:\n      tag_6\n      tag_7\n      jump\t// in\n    tag_6:\n      mload(0x40)\n      tag_8\n      swap2\n      swap1\n      tag_9\n      jump\t// in\n    tag_8:\n      mload(0x40)\n      dup1\n      swap2\n      sub\n      swap1\n      return\n        /* \"memory.sol\":324:550  function name(string memory name) public pure returns(string memory){             // parameter rekhda ni memory bhanera lekhne laa, tara uint type ko parameter hunxa bhane nadida ni hunxa la... */\n    tag_4:\n      tag_10\n      0x04\n      dup1\n      calldatasize\n      sub\n      dup2\n      add\n      swap1\n      tag_11\n      swap2\n      swap1\n      tag_12\n      jump\t// in\n    tag_11:\n      tag_13\n      jump\t// in\n    tag_10:\n      mload(0x40)\n      tag_14\n      swap2\n      swap1\n      tag_15\n      jump\t// in\n    tag_14:\n      mload(0x40)\n      dup1\n      swap2\n      sub\n      swap1\n      return\n        /* \"memory.sol\":134:318  function get() public pure returns(string memory){                       // string haru return garda data location memory dinu parxa unlike uint... */\n    tag_5:\n      tag_16\n      tag_17\n      jump\t// in\n    tag_16:\n      mload(0x40)\n      tag_18\n      swap2\n      swap1\n      tag_15\n      jump\t// in\n    tag_18:\n      mload(0x40)\n      dup1\n      swap2\n      sub\n      swap1\n      return\n        /* \"memory.sol\":107:126  uint public val = 4 */\n    tag_7:\n      sload(0x00)\n      dup2\n      jump\t// out\n        /* \"memory.sol\":324:550  function name(string memory name) public pure returns(string memory){             // parameter rekhda ni memory bhanera lekhne laa, tara uint type ko parameter hunxa bhane nadida ni hunxa la... */\n    tag_13:\n        /* \"memory.sol\":378:391  string memory */\n      0x60\n        /* \"memory.sol\":530:534  name */\n      dup2\n        /* \"memory.sol\":523:534  return name */\n      swap1\n      pop\n        /* \"memory.sol\":324:550  function name(string memory name) public pure returns(string memory){             // parameter rekhda ni memory bhanera lekhne laa, tara uint type ko parameter hunxa bhane nadida ni hunxa la... */\n      swap2\n      swap1\n      pop\n      jump\t// out\n        /* \"memory.sol\":134:318  function get() public pure returns(string memory){                       // string haru return garda data location memory dinu parxa unlike uint... */\n    tag_17:\n        /* \"memory.sol\":169:182  string memory */\n      0x60\n        /* \"memory.sol\":287:300  return \"test\" */\n      mload(0x40)\n      dup1\n      0x40\n      add\n      0x40\n      mstore\n      dup1\n      0x04\n      dup2\n      mstore\n      0x20\n      add\n      0x7465737400000000000000000000000000000000000000000000000000000000\n      dup2\n      mstore\n      pop\n      swap1\n      pop\n        /* \"memory.sol\":134:318  function get() public pure returns(string memory){                       // string haru return garda data location memory dinu parxa unlike uint... */\n      swap1\n      jump\t// out\n        /* \"#utility.yul\":7:352   */\n    tag_22:\n      0x00\n        /* \"#utility.yul\":110:176   */\n      tag_24\n        /* \"#utility.yul\":126:175   */\n      tag_25\n        /* \"#utility.yul\":168:174   */\n      dup5\n        /* \"#utility.yul\":126:175   */\n      tag_26\n      jump\t// in\n    tag_25:\n        /* \"#utility.yul\":110:176   */\n      tag_27\n      jump\t// in\n    tag_24:\n        /* \"#utility.yul\":101:176   */\n      swap1\n      pop\n        /* \"#utility.yul\":199:205   */\n      dup3\n        /* \"#utility.yul\":192:197   */\n      dup2\n        /* \"#utility.yul\":185:206   */\n      mstore\n        /* \"#utility.yul\":237:241   */\n      0x20\n        /* \"#utility.yul\":230:235   */\n      dup2\n        /* \"#utility.yul\":226:242   */\n      add\n        /* \"#utility.yul\":275:278   */\n      dup5\n        /* \"#utility.yul\":266:272   */\n      dup5\n        /* \"#utility.yul\":261:264   */\n      dup5\n        /* \"#utility.yul\":257:273   */\n      add\n        /* \"#utility.yul\":254:279   */\n      gt\n        /* \"#utility.yul\":251:253   */\n      iszero\n      tag_28\n      jumpi\n        /* \"#utility.yul\":292:293   */\n      0x00\n        /* \"#utility.yul\":289:290   */\n      dup1\n        /* \"#utility.yul\":282:294   */\n      revert\n        /* \"#utility.yul\":251:253   */\n    tag_28:\n        /* \"#utility.yul\":305:346   */\n      tag_29\n        /* \"#utility.yul\":339:345   */\n      dup5\n        /* \"#utility.yul\":334:337   */\n      dup3\n        /* \"#utility.yul\":329:332   */\n      dup6\n        /* \"#utility.yul\":305:346   */\n      tag_30\n      jump\t// in\n    tag_29:\n        /* \"#utility.yul\":91:352   */\n      pop\n      swap4\n      swap3\n      pop\n      pop\n      pop\n      jump\t// out\n        /* \"#utility.yul\":372:645   */\n    tag_31:\n      0x00\n        /* \"#utility.yul\":477:480   */\n      dup3\n        /* \"#utility.yul\":470:474   */\n      0x1f\n        /* \"#utility.yul\":462:468   */\n      dup4\n        /* \"#utility.yul\":458:475   */\n      add\n        /* \"#utility.yul\":454:481   */\n      slt\n        /* \"#utility.yul\":444:446   */\n      tag_33\n      jumpi\n        /* \"#utility.yul\":495:496   */\n      0x00\n        /* \"#utility.yul\":492:493   */\n      dup1\n        /* \"#utility.yul\":485:497   */\n      revert\n        /* \"#utility.yul\":444:446   */\n    tag_33:\n        /* \"#utility.yul\":535:541   */\n      dup2\n        /* \"#utility.yul\":522:542   */\n      calldataload\n        /* \"#utility.yul\":560:639   */\n      tag_34\n        /* \"#utility.yul\":635:638   */\n      dup5\n        /* \"#utility.yul\":627:633   */\n      dup3\n        /* \"#utility.yul\":620:624   */\n      0x20\n        /* \"#utility.yul\":612:618   */\n      dup7\n        /* \"#utility.yul\":608:625   */\n      add\n        /* \"#utility.yul\":560:639   */\n      tag_22\n      jump\t// in\n    tag_34:\n        /* \"#utility.yul\":551:639   */\n      swap2\n      pop\n        /* \"#utility.yul\":434:645   */\n      pop\n      swap3\n      swap2\n      pop\n      pop\n      jump\t// out\n        /* \"#utility.yul\":651:1026   */\n    tag_12:\n      0x00\n        /* \"#utility.yul\":769:771   */\n      0x20\n        /* \"#utility.yul\":757:766   */\n      dup3\n        /* \"#utility.yul\":748:755   */\n      dup5\n        /* \"#utility.yul\":744:767   */\n      sub\n        /* \"#utility.yul\":740:772   */\n      slt\n        /* \"#utility.yul\":737:739   */\n      iszero\n      tag_36\n      jumpi\n        /* \"#utility.yul\":785:786   */\n      0x00\n        /* \"#utility.yul\":782:783   */\n      dup1\n        /* \"#utility.yul\":775:787   */\n      revert\n        /* \"#utility.yul\":737:739   */\n    tag_36:\n        /* \"#utility.yul\":856:857   */\n      0x00\n        /* \"#utility.yul\":845:854   */\n      dup3\n        /* \"#utility.yul\":841:858   */\n      add\n        /* \"#utility.yul\":828:859   */\n      calldataload\n        /* \"#utility.yul\":886:904   */\n      0xffffffffffffffff\n        /* \"#utility.yul\":878:884   */\n      dup2\n        /* \"#utility.yul\":875:905   */\n      gt\n        /* \"#utility.yul\":872:874   */\n      iszero\n      tag_37\n      jumpi\n        /* \"#utility.yul\":918:919   */\n      0x00\n        /* \"#utility.yul\":915:916   */\n      dup1\n        /* \"#utility.yul\":908:920   */\n      revert\n        /* \"#utility.yul\":872:874   */\n    tag_37:\n        /* \"#utility.yul\":946:1009   */\n      tag_38\n        /* \"#utility.yul\":1001:1008   */\n      dup5\n        /* \"#utility.yul\":992:998   */\n      dup3\n        /* \"#utility.yul\":981:990   */\n      dup6\n        /* \"#utility.yul\":977:999   */\n      add\n        /* \"#utility.yul\":946:1009   */\n      tag_31\n      jump\t// in\n    tag_38:\n        /* \"#utility.yul\":936:1009   */\n      swap2\n      pop\n        /* \"#utility.yul\":799:1019   */\n      pop\n        /* \"#utility.yul\":727:1026   */\n      swap3\n      swap2\n      pop\n      pop\n      jump\t// out\n        /* \"#utility.yul\":1032:1396   */\n    tag_39:\n      0x00\n        /* \"#utility.yul\":1148:1187   */\n      tag_41\n        /* \"#utility.yul\":1181:1186   */\n      dup3\n        /* \"#utility.yul\":1148:1187   */\n      tag_42\n      jump\t// in\n    tag_41:\n        /* \"#utility.yul\":1203:1274   */\n      tag_43\n        /* \"#utility.yul\":1267:1273   */\n      dup2\n        /* \"#utility.yul\":1262:1265   */\n      dup6\n        /* \"#utility.yul\":1203:1274   */\n      tag_44\n      jump\t// in\n    tag_43:\n        /* \"#utility.yul\":1196:1274   */\n      swap4\n      pop\n        /* \"#utility.yul\":1283:1335   */\n      tag_45\n        /* \"#utility.yul\":1328:1334   */\n      dup2\n        /* \"#utility.yul\":1323:1326   */\n      dup6\n        /* \"#utility.yul\":1316:1320   */\n      0x20\n        /* \"#utility.yul\":1309:1314   */\n      dup7\n        /* \"#utility.yul\":1305:1321   */\n      add\n        /* \"#utility.yul\":1283:1335   */\n      tag_46\n      jump\t// in\n    tag_45:\n        /* \"#utility.yul\":1360:1389   */\n      tag_47\n        /* \"#utility.yul\":1382:1388   */\n      dup2\n        /* \"#utility.yul\":1360:1389   */\n      tag_48\n      jump\t// in\n    tag_47:\n        /* \"#utility.yul\":1355:1358   */\n      dup5\n        /* \"#utility.yul\":1351:1390   */\n      add\n        /* \"#utility.yul\":1344:1390   */\n      swap2\n      pop\n        /* \"#utility.yul\":1124:1396   */\n      pop\n      swap3\n      swap2\n      pop\n      pop\n      jump\t// out\n        /* \"#utility.yul\":1402:1520   */\n    tag_49:\n        /* \"#utility.yul\":1489:1513   */\n      tag_51\n        /* \"#utility.yul\":1507:1512   */\n      dup2\n        /* \"#utility.yul\":1489:1513   */\n      tag_52\n      jump\t// in\n    tag_51:\n        /* \"#utility.yul\":1484:1487   */\n      dup3\n        /* \"#utility.yul\":1477:1514   */\n      mstore\n        /* \"#utility.yul\":1467:1520   */\n      pop\n      pop\n      jump\t// out\n        /* \"#utility.yul\":1526:1839   */\n    tag_15:\n      0x00\n        /* \"#utility.yul\":1677:1679   */\n      0x20\n        /* \"#utility.yul\":1666:1675   */\n      dup3\n        /* \"#utility.yul\":1662:1680   */\n      add\n        /* \"#utility.yul\":1654:1680   */\n      swap1\n      pop\n        /* \"#utility.yul\":1726:1735   */\n      dup2\n        /* \"#utility.yul\":1720:1724   */\n      dup2\n        /* \"#utility.yul\":1716:1736   */\n      sub\n        /* \"#utility.yul\":1712:1713   */\n      0x00\n        /* \"#utility.yul\":1701:1710   */\n      dup4\n        /* \"#utility.yul\":1697:1714   */\n      add\n        /* \"#utility.yul\":1690:1737   */\n      mstore\n        /* \"#utility.yul\":1754:1832   */\n      tag_54\n        /* \"#utility.yul\":1827:1831   */\n      dup2\n        /* \"#utility.yul\":1818:1824   */\n      dup5\n        /* \"#utility.yul\":1754:1832   */\n      tag_39\n      jump\t// in\n    tag_54:\n        /* \"#utility.yul\":1746:1832   */\n      swap1\n      pop\n        /* \"#utility.yul\":1644:1839   */\n      swap3\n      swap2\n      pop\n      pop\n      jump\t// out\n        /* \"#utility.yul\":1845:2067   */\n    tag_9:\n      0x00\n        /* \"#utility.yul\":1976:1978   */\n      0x20\n        /* \"#utility.yul\":1965:1974   */\n      dup3\n        /* \"#utility.yul\":1961:1979   */\n      add\n        /* \"#utility.yul\":1953:1979   */\n      swap1\n      pop\n        /* \"#utility.yul\":1989:2060   */\n      tag_56\n        /* \"#utility.yul\":2057:2058   */\n      0x00\n        /* \"#utility.yul\":2046:2055   */\n      dup4\n        /* \"#utility.yul\":2042:2059   */\n      add\n        /* \"#utility.yul\":2033:2039   */\n      dup5\n        /* \"#utility.yul\":1989:2060   */\n      tag_49\n      jump\t// in\n    tag_56:\n        /* \"#utility.yul\":1943:2067   */\n      swap3\n      swap2\n      pop\n      pop\n      jump\t// out\n        /* \"#utility.yul\":2073:2202   */\n    tag_27:\n      0x00\n        /* \"#utility.yul\":2134:2154   */\n      tag_58\n      tag_59\n      jump\t// in\n    tag_58:\n        /* \"#utility.yul\":2124:2154   */\n      swap1\n      pop\n        /* \"#utility.yul\":2163:2196   */\n      tag_60\n        /* \"#utility.yul\":2191:2195   */\n      dup3\n        /* \"#utility.yul\":2183:2189   */\n      dup3\n        /* \"#utility.yul\":2163:2196   */\n      tag_61\n      jump\t// in\n    tag_60:\n        /* \"#utility.yul\":2114:2202   */\n      swap2\n      swap1\n      pop\n      jump\t// out\n        /* \"#utility.yul\":2208:2283   */\n    tag_59:\n      0x00\n        /* \"#utility.yul\":2274:2276   */\n      0x40\n        /* \"#utility.yul\":2268:2277   */\n      mload\n        /* \"#utility.yul\":2258:2277   */\n      swap1\n      pop\n        /* \"#utility.yul\":2248:2283   */\n      swap1\n      jump\t// out\n        /* \"#utility.yul\":2289:2597   */\n    tag_26:\n      0x00\n        /* \"#utility.yul\":2441:2459   */\n      0xffffffffffffffff\n        /* \"#utility.yul\":2433:2439   */\n      dup3\n        /* \"#utility.yul\":2430:2460   */\n      gt\n        /* \"#utility.yul\":2427:2429   */\n      iszero\n      tag_64\n      jumpi\n        /* \"#utility.yul\":2463:2481   */\n      tag_65\n      tag_66\n      jump\t// in\n    tag_65:\n        /* \"#utility.yul\":2427:2429   */\n    tag_64:\n        /* \"#utility.yul\":2501:2530   */\n      tag_67\n        /* \"#utility.yul\":2523:2529   */\n      dup3\n        /* \"#utility.yul\":2501:2530   */\n      tag_48\n      jump\t// in\n    tag_67:\n        /* \"#utility.yul\":2493:2530   */\n      swap1\n      pop\n        /* \"#utility.yul\":2585:2589   */\n      0x20\n        /* \"#utility.yul\":2579:2583   */\n      dup2\n        /* \"#utility.yul\":2575:2590   */\n      add\n        /* \"#utility.yul\":2567:2590   */\n      swap1\n      pop\n        /* \"#utility.yul\":2356:2597   */\n      swap2\n      swap1\n      pop\n      jump\t// out\n        /* \"#utility.yul\":2603:2702   */\n    tag_42:\n      0x00\n        /* \"#utility.yul\":2689:2694   */\n      dup2\n        /* \"#utility.yul\":2683:2695   */\n      mload\n        /* \"#utility.yul\":2673:2695   */\n      swap1\n      pop\n        /* \"#utility.yul\":2662:2702   */\n      swap2\n      swap1\n      pop\n      jump\t// out\n        /* \"#utility.yul\":2708:2877   */\n    tag_44:\n      0x00\n        /* \"#utility.yul\":2826:2832   */\n      dup3\n        /* \"#utility.yul\":2821:2824   */\n      dup3\n        /* \"#utility.yul\":2814:2833   */\n      mstore\n        /* \"#utility.yul\":2866:2870   */\n      0x20\n        /* \"#utility.yul\":2861:2864   */\n      dup3\n        /* \"#utility.yul\":2857:2871   */\n      add\n        /* \"#utility.yul\":2842:2871   */\n      swap1\n      pop\n        /* \"#utility.yul\":2804:2877   */\n      swap3\n      swap2\n      pop\n      pop\n      jump\t// out\n        /* \"#utility.yul\":2883:2960   */\n    tag_52:\n      0x00\n        /* \"#utility.yul\":2949:2954   */\n      dup2\n        /* \"#utility.yul\":2938:2954   */\n      swap1\n      pop\n        /* \"#utility.yul\":2928:2960   */\n      swap2\n      swap1\n      pop\n      jump\t// out\n        /* \"#utility.yul\":2966:3120   */\n    tag_30:\n        /* \"#utility.yul\":3050:3056   */\n      dup3\n        /* \"#utility.yul\":3045:3048   */\n      dup2\n        /* \"#utility.yul\":3040:3043   */\n      dup4\n        /* \"#utility.yul\":3027:3057   */\n      calldatacopy\n        /* \"#utility.yul\":3112:3113   */\n      0x00\n        /* \"#utility.yul\":3103:3109   */\n      dup4\n        /* \"#utility.yul\":3098:3101   */\n      dup4\n        /* \"#utility.yul\":3094:3110   */\n      add\n        /* \"#utility.yul\":3087:3114   */\n      mstore\n        /* \"#utility.yul\":3017:3120   */\n      pop\n      pop\n      pop\n      jump\t// out\n        /* \"#utility.yul\":3126:3433   */\n    tag_46:\n        /* \"#utility.yul\":3194:3195   */\n      0x00\n        /* \"#utility.yul\":3204:3317   */\n    tag_73:\n        /* \"#utility.yul\":3218:3224   */\n      dup4\n        /* \"#utility.yul\":3215:3216   */\n      dup2\n        /* \"#utility.yul\":3212:3225   */\n      lt\n        /* \"#utility.yul\":3204:3317   */\n      iszero\n      tag_75\n      jumpi\n        /* \"#utility.yul\":3303:3304   */\n      dup1\n        /* \"#utility.yul\":3298:3301   */\n      dup3\n        /* \"#utility.yul\":3294:3305   */\n      add\n        /* \"#utility.yul\":3288:3306   */\n      mload\n        /* \"#utility.yul\":3284:3285   */\n      dup2\n        /* \"#utility.yul\":3279:3282   */\n      dup5\n        /* \"#utility.yul\":3275:3286   */\n      add\n        /* \"#utility.yul\":3268:3307   */\n      mstore\n        /* \"#utility.yul\":3240:3242   */\n      0x20\n        /* \"#utility.yul\":3237:3238   */\n      dup2\n        /* \"#utility.yul\":3233:3243   */\n      add\n        /* \"#utility.yul\":3228:3243   */\n      swap1\n      pop\n        /* \"#utility.yul\":3204:3317   */\n      jump(tag_73)\n    tag_75:\n        /* \"#utility.yul\":3335:3341   */\n      dup4\n        /* \"#utility.yul\":3332:3333   */\n      dup2\n        /* \"#utility.yul\":3329:3342   */\n      gt\n        /* \"#utility.yul\":3326:3328   */\n      iszero\n      tag_76\n      jumpi\n        /* \"#utility.yul\":3415:3416   */\n      0x00\n        /* \"#utility.yul\":3406:3412   */\n      dup5\n        /* \"#utility.yul\":3401:3404   */\n      dup5\n        /* \"#utility.yul\":3397:3413   */\n      add\n        /* \"#utility.yul\":3390:3417   */\n      mstore\n        /* \"#utility.yul\":3326:3328   */\n    tag_76:\n        /* \"#utility.yul\":3175:3433   */\n      pop\n      pop\n      pop\n      pop\n      jump\t// out\n        /* \"#utility.yul\":3439:3720   */\n    tag_61:\n        /* \"#utility.yul\":3522:3549   */\n      tag_78\n        /* \"#utility.yul\":3544:3548   */\n      dup3\n        /* \"#utility.yul\":3522:3549   */\n      tag_48\n      jump\t// in\n    tag_78:\n        /* \"#utility.yul\":3514:3520   */\n      dup2\n        /* \"#utility.yul\":3510:3550   */\n      add\n        /* \"#utility.yul\":3652:3658   */\n      dup2\n        /* \"#utility.yul\":3640:3650   */\n      dup2\n        /* \"#utility.yul\":3637:3659   */\n      lt\n        /* \"#utility.yul\":3616:3634   */\n      0xffffffffffffffff\n        /* \"#utility.yul\":3604:3614   */\n      dup3\n        /* \"#utility.yul\":3601:3635   */\n      gt\n        /* \"#utility.yul\":3598:3660   */\n      or\n        /* \"#utility.yul\":3595:3597   */\n      iszero\n      tag_79\n      jumpi\n        /* \"#utility.yul\":3663:3681   */\n      tag_80\n      tag_66\n      jump\t// in\n    tag_80:\n        /* \"#utility.yul\":3595:3597   */\n    tag_79:\n        /* \"#utility.yul\":3703:3713   */\n      dup1\n        /* \"#utility.yul\":3699:3701   */\n      0x40\n        /* \"#utility.yul\":3692:3714   */\n      mstore\n        /* \"#utility.yul\":3482:3720   */\n      pop\n      pop\n      pop\n      jump\t// out\n        /* \"#utility.yul\":3726:3906   */\n    tag_66:\n        /* \"#utility.yul\":3774:3851   */\n      0x4e487b7100000000000000000000000000000000000000000000000000000000\n        /* \"#utility.yul\":3771:3772   */\n      0x00\n        /* \"#utility.yul\":3764:3852   */\n      mstore\n        /* \"#utility.yul\":3871:3875   */\n      0x41\n        /* \"#utility.yul\":3868:3869   */\n      0x04\n        /* \"#utility.yul\":3861:3876   */\n      mstore\n        /* \"#utility.yul\":3895:3899   */\n      0x24\n        /* \"#utility.yul\":3892:3893   */\n      0x00\n        /* \"#utility.yul\":3885:3900   */\n      revert\n        /* \"#utility.yul\":3912:4014   */\n    tag_48:\n      0x00\n        /* \"#utility.yul\":4004:4006   */\n      0x1f\n        /* \"#utility.yul\":4000:4007   */\n      not\n        /* \"#utility.yul\":3995:3997   */\n      0x1f\n        /* \"#utility.yul\":3988:3993   */\n      dup4\n        /* \"#utility.yul\":3984:3998   */\n      add\n        /* \"#utility.yul\":3980:4008   */\n      and\n        /* \"#utility.yul\":3970:4008   */\n      swap1\n      pop\n        /* \"#utility.yul\":3960:4014   */\n      swap2\n      swap1\n      pop\n      jump\t// out\n\n    auxdata: 0xa2646970667358221220f0d6b009e7c2bea177ac9d8db40da32172dd5e6cc00093bf3ef5d7c19d9ed90864736f6c63430008010033\n}\n",
				"bytecode": {
					"linkReferences": {},
					"object": "6080604052600460005534801561001557600080fd5b50610392806100256000396000f3fe608060405234801561001057600080fd5b50600436106100415760003560e01c80633c6bb436146100465780635b43bc99146100645780636d4ce63c14610094575b600080fd5b61004e6100b2565b60405161005b9190610212565b60405180910390f35b61007e60048036038101906100799190610167565b6100b8565b60405161008b91906101f0565b60405180910390f35b61009c6100c2565b6040516100a991906101f0565b60405180910390f35b60005481565b6060819050919050565b60606040518060400160405280600481526020017f7465737400000000000000000000000000000000000000000000000000000000815250905090565b600061011261010d84610252565b61022d565b90508281526020810184848401111561012a57600080fd5b6101358482856102a9565b509392505050565b600082601f83011261014e57600080fd5b813561015e8482602086016100ff565b91505092915050565b60006020828403121561017957600080fd5b600082013567ffffffffffffffff81111561019357600080fd5b61019f8482850161013d565b91505092915050565b60006101b382610283565b6101bd818561028e565b93506101cd8185602086016102b8565b6101d68161034b565b840191505092915050565b6101ea8161029f565b82525050565b6000602082019050818103600083015261020a81846101a8565b905092915050565b600060208201905061022760008301846101e1565b92915050565b6000610237610248565b905061024382826102eb565b919050565b6000604051905090565b600067ffffffffffffffff82111561026d5761026c61031c565b5b6102768261034b565b9050602081019050919050565b600081519050919050565b600082825260208201905092915050565b6000819050919050565b82818337600083830152505050565b60005b838110156102d65780820151818401526020810190506102bb565b838111156102e5576000848401525b50505050565b6102f48261034b565b810181811067ffffffffffffffff821117156103135761031261031c565b5b80604052505050565b7f4e487b7100000000000000000000000000000000000000000000000000000000600052604160045260246000fd5b6000601f19601f830116905091905056fea2646970667358221220f0d6b009e7c2bea177ac9d8db40da32172dd5e6cc00093bf3ef5d7c19d9ed90864736f6c63430008010033",
					"opcodes": "PUSH1 0x80 PUSH1 0x40 MSTORE PUSH1 0x4 PUSH1 0x0 SSTORE CALLVALUE DUP1 ISZERO PUSH2 0x15 JUMPI PUSH1 0x0 DUP1 REVERT JUMPDEST POP PUSH2 0x392 DUP1 PUSH2 0x25 PUSH1 0x0 CODECOPY PUSH1 0x0 RETURN INVALID PUSH1 0x80 PUSH1 0x40 MSTORE CALLVALUE DUP1 ISZERO PUSH2 0x10 JUMPI PUSH1 0x0 DUP1 REVERT JUMPDEST POP PUSH1 0x4 CALLDATASIZE LT PUSH2 0x41 JUMPI PUSH1 0x0 CALLDATALOAD PUSH1 0xE0 SHR DUP1 PUSH4 0x3C6BB436 EQ PUSH2 0x46 JUMPI DUP1 PUSH4 0x5B43BC99 EQ PUSH2 0x64 JUMPI DUP1 PUSH4 0x6D4CE63C EQ PUSH2 0x94 JUMPI JUMPDEST PUSH1 0x0 DUP1 REVERT JUMPDEST PUSH2 0x4E PUSH2 0xB2 JUMP JUMPDEST PUSH1 0x40 MLOAD PUSH2 0x5B SWAP2 SWAP1 PUSH2 0x212 JUMP JUMPDEST PUSH1 0x40 MLOAD DUP1 SWAP2 SUB SWAP1 RETURN JUMPDEST PUSH2 0x7E PUSH1 0x4 DUP1 CALLDATASIZE SUB DUP2 ADD SWAP1 PUSH2 0x79 SWAP2 SWAP1 PUSH2 0x167 JUMP JUMPDEST PUSH2 0xB8 JUMP JUMPDEST PUSH1 0x40 MLOAD PUSH2 0x8B SWAP2 SWAP1 PUSH2 0x1F0 JUMP JUMPDEST PUSH1 0x40 MLOAD DUP1 SWAP2 SUB SWAP1 RETURN JUMPDEST PUSH2 0x9C PUSH2 0xC2 JUMP JUMPDEST PUSH1 0x40 MLOAD PUSH2 0xA9 SWAP2 SWAP1 PUSH2 0x1F0 JUMP JUMPDEST PUSH1 0x40 MLOAD DUP1 SWAP2 SUB SWAP1 RETURN JUMPDEST PUSH1 0x0 SLOAD DUP2 JUMP JUMPDEST PUSH1 0x60 DUP2 SWAP1 POP SWAP2 SWAP1 POP JUMP JUMPDEST PUSH1 0x60 PUSH1 0x40 MLOAD DUP1 PUSH1 0x40 ADD PUSH1 0x40 MSTORE DUP1 PUSH1 0x4 DUP2 MSTORE PUSH1 0x20 ADD PUSH32 0x7465737400000000000000000000000000000000000000000000000000000000 DUP2 MSTORE POP SWAP1 POP SWAP1 JUMP JUMPDEST PUSH1 0x0 PUSH2 0x112 PUSH2 0x10D DUP5 PUSH2 0x252 JUMP JUMPDEST PUSH2 0x22D JUMP JUMPDEST SWAP1 POP DUP3 DUP2 MSTORE PUSH1 0x20 DUP2 ADD DUP5 DUP5 DUP5 ADD GT ISZERO PUSH2 0x12A JUMPI PUSH1 0x0 DUP1 REVERT JUMPDEST PUSH2 0x135 DUP5 DUP3 DUP6 PUSH2 0x2A9 JUMP JUMPDEST POP SWAP4 SWAP3 POP POP POP JUMP JUMPDEST PUSH1 0x0 DUP3 PUSH1 0x1F DUP4 ADD SLT PUSH2 0x14E JUMPI PUSH1 0x0 DUP1 REVERT JUMPDEST DUP2 CALLDATALOAD PUSH2 0x15E DUP5 DUP3 PUSH1 0x20 DUP7 ADD PUSH2 0xFF JUMP JUMPDEST SWAP2 POP POP SWAP3 SWAP2 POP POP JUMP JUMPDEST PUSH1 0x0 PUSH1 0x20 DUP3 DUP5 SUB SLT ISZERO PUSH2 0x179 JUMPI PUSH1 0x0 DUP1 REVERT JUMPDEST PUSH1 0x0 DUP3 ADD CALLDATALOAD PUSH8 0xFFFFFFFFFFFFFFFF DUP2 GT ISZERO PUSH2 0x193 JUMPI PUSH1 0x0 DUP1 REVERT JUMPDEST PUSH2 0x19F DUP5 DUP3 DUP6 ADD PUSH2 0x13D JUMP JUMPDEST SWAP2 POP POP SWAP3 SWAP2 POP POP JUMP JUMPDEST PUSH1 0x0 PUSH2 0x1B3 DUP3 PUSH2 0x283 JUMP JUMPDEST PUSH2 0x1BD DUP2 DUP6 PUSH2 0x28E JUMP JUMPDEST SWAP4 POP PUSH2 0x1CD DUP2 DUP6 PUSH1 0x20 DUP7 ADD PUSH2 0x2B8 JUMP JUMPDEST PUSH2 0x1D6 DUP2 PUSH2 0x34B JUMP JUMPDEST DUP5 ADD SWAP2 POP POP SWAP3 SWAP2 POP POP JUMP JUMPDEST PUSH2 0x1EA DUP2 PUSH2 0x29F JUMP JUMPDEST DUP3 MSTORE POP POP JUMP JUMPDEST PUSH1 0x0 PUSH1 0x20 DUP3 ADD SWAP1 POP DUP2 DUP2 SUB PUSH1 0x0 DUP4 ADD MSTORE PUSH2 0x20A DUP2 DUP5 PUSH2 0x1A8 JUMP JUMPDEST SWAP1 POP SWAP3 SWAP2 POP POP JUMP JUMPDEST PUSH1 0x0 PUSH1 0x20 DUP3 ADD SWAP1 POP PUSH2 0x227 PUSH1 0x0 DUP4 ADD DUP5 PUSH2 0x1E1 JUMP JUMPDEST SWAP3 SWAP2 POP POP JUMP JUMPDEST PUSH1 0x0 PUSH2 0x237 PUSH2 0x248 JUMP JUMPDEST SWAP1 POP PUSH2 0x243 DUP3 DUP3 PUSH2 0x2EB JUMP JUMPDEST SWAP2 SWAP1 POP JUMP JUMPDEST PUSH1 0x0 PUSH1 0x40 MLOAD SWAP1 POP SWAP1 JUMP JUMPDEST PUSH1 0x0 PUSH8 0xFFFFFFFFFFFFFFFF DUP3 GT ISZERO PUSH2 0x26D JUMPI PUSH2 0x26C PUSH2 0x31C JUMP JUMPDEST JUMPDEST PUSH2 0x276 DUP3 PUSH2 0x34B JUMP JUMPDEST SWAP1 POP PUSH1 0x20 DUP2 ADD SWAP1 POP SWAP2 SWAP1 POP JUMP JUMPDEST PUSH1 0x0 DUP2 MLOAD SWAP1 POP SWAP2 SWAP1 POP JUMP JUMPDEST PUSH1 0x0 DUP3 DUP3 MSTORE PUSH1 0x20 DUP3 ADD SWAP1 POP SWAP3 SWAP2 POP POP JUMP JUMPDEST PUSH1 0x0 DUP2 SWAP1 POP SWAP2 SWAP1 POP JUMP JUMPDEST DUP3 DUP2 DUP4 CALLDATACOPY PUSH1 0x0 DUP4 DUP4 ADD MSTORE POP POP POP JUMP JUMPDEST PUSH1 0x0 JUMPDEST DUP4 DUP2 LT ISZERO PUSH2 0x2D6 JUMPI DUP1 DUP3 ADD MLOAD DUP2 DUP5 ADD MSTORE PUSH1 0x20 DUP2 ADD SWAP1 POP PUSH2 0x2BB JUMP JUMPDEST DUP4 DUP2 GT ISZERO PUSH2 0x2E5 JUMPI PUSH1 0x0 DUP5 DUP5 ADD MSTORE JUMPDEST POP POP POP POP JUMP JUMPDEST PUSH2 0x2F4 DUP3 PUSH2 0x34B JUMP JUMPDEST DUP2 ADD DUP2 DUP2 LT PUSH8 0xFFFFFFFFFFFFFFFF DUP3 GT OR ISZERO PUSH2 0x313 JUMPI PUSH2 0x312 PUSH2 0x31C JUMP JUMPDEST JUMPDEST DUP1 PUSH1 0x40 MSTORE POP POP POP JUMP JUMPDEST PUSH32 0x4E487B7100000000000000000000000000000000000000000000000000000000 PUSH1 0x0 MSTORE PUSH1 0x41 PUSH1 0x4 MSTORE PUSH1 0x24 PUSH1 0x0 REVERT JUMPDEST PUSH1 0x0 PUSH1 0x1F NOT PUSH1 0x1F DUP4 ADD AND SWAP1 POP SWAP2 SWAP1 POP JUMP INVALID LOG2 PUSH5 0x6970667358 0x22 SLT KECCAK256 CREATE 0xD6 0xB0 MULMOD 0xE7 0xC2 0xBE LOG1 PUSH24 0xAC9D8DB40DA32172DD5E6CC00093BF3EF5D7C19D9ED90864 PUSH20 0x6F6C634300080100330000000000000000000000 "
				},
				"gasEstimates": {
					"creation": {
						"codeDepositCost": "182800",
						"executionCost": "20232",
						"totalCost": "203032"
					},
					"external": {
						"get()": "infinite",
						"name(string)": "infinite",
						"val()": "1107"
					}
				},
				"methodIdentifiers": {
					"get()": "6d4ce63c",
					"name(string)": "5b43bc99",
					"val()": "3c6bb436"
				}
			},
			"storageLayout": {
				"storage": [
					{
						"astId": 4,
						"contract": "memory.sol:scopeVariables",
						"label": "val",
						"offset": 0,
						"slot": "0",
						"type": "t_uint256"
					}
				],
				"types": {
					"t_uint256": {
						"encoding": "inplace",
						"label": "uint256",
						"numberOfBytes": "32"
					}
				}
			},
			"userdoc": {
				"kind": "user",
				"methods": {},
				"version": 1
			}
		}
	}
}