{
	"scopeVasriable.sol": {
		"scopeVariables2": {
			"abi": [
				{
					"inputs": [],
					"name": "get",
					"outputs": [
						{
							"internalType": "uint256",
							"name": "",
							"type": "uint256"
						}
					],
					"stateMutability": "view",
					"type": "function"
				},
				{
					"inputs": [],
					"name": "get2",
					"outputs": [
						{
							"internalType": "uint256",
							"name": "",
							"type": "uint256"
						}
					],
					"stateMutability": "view",
					"type": "function"
				},
				{
					"inputs": [],
					"name": "val",
					"outputs": [
						{
							"internalType": "uint256",
							"name": "",
							"type": "uint256"
						}
					],
					"stateMutability": "view",
					"type": "function"
				}
			],
			"devdoc": {
				"kind": "dev",
				"methods": {},
				"version": 1
			},
			"evm": {
				"assembly": "    /* \"scopeVasriable.sol\":870:1143  contract scopeVariables2 is scopeVariables {              // inherit gareko ho la. multiple inherit garna , le seperate garne... */\n  mstore(0x40, 0x80)\n    /* \"scopeVasriable.sol\":466:467  4 */\n  0x04\n    /* \"scopeVasriable.sol\":448:467  uint public val = 4 */\n  0x00\n  sstore\n    /* \"scopeVasriable.sol\":707:708  5 */\n  0x05\n    /* \"scopeVasriable.sol\":686:708  uint internal val2 = 5 */\n  0x01\n  sstore\n    /* \"scopeVasriable.sol\":801:802  1 */\n  0x01\n    /* \"scopeVasriable.sol\":781:802  uint private val3 = 1 */\n  0x02\n  sstore\n    /* \"scopeVasriable.sol\":870:1143  contract scopeVariables2 is scopeVariables {              // inherit gareko ho la. multiple inherit garna , le seperate garne... */\n  callvalue\n  dup1\n  iszero\n  tag_1\n  jumpi\n  0x00\n  dup1\n  revert\ntag_1:\n  pop\n  dataSize(sub_0)\n  dup1\n  dataOffset(sub_0)\n  0x00\n  codecopy\n  0x00\n  return\nstop\n\nsub_0: assembly {\n        /* \"scopeVasriable.sol\":870:1143  contract scopeVariables2 is scopeVariables {              // inherit gareko ho la. multiple inherit garna , le seperate garne... */\n      mstore(0x40, 0x80)\n      callvalue\n      dup1\n      iszero\n      tag_1\n      jumpi\n      0x00\n      dup1\n      revert\n    tag_1:\n      pop\n      jumpi(tag_2, lt(calldatasize, 0x04))\n      shr(0xe0, calldataload(0x00))\n      dup1\n      0x3c6bb436\n      eq\n      tag_3\n      jumpi\n      dup1\n      0x6d4ce63c\n      eq\n      tag_4\n      jumpi\n      dup1\n      0xd2178b08\n      eq\n      tag_5\n      jumpi\n    tag_2:\n      0x00\n      dup1\n      revert\n        /* \"scopeVasriable.sol\":448:467  uint public val = 4 */\n    tag_3:\n      tag_6\n      tag_7\n      jump\t// in\n    tag_6:\n      mload(0x40)\n      tag_8\n      swap2\n      swap1\n      tag_9\n      jump\t// in\n    tag_8:\n      mload(0x40)\n      dup1\n      swap2\n      sub\n      swap1\n      return\n        /* \"scopeVasriable.sol\":550:675  function get() public view returns(uint){... */\n    tag_4:\n      tag_10\n      tag_11\n      jump\t// in\n    tag_10:\n      mload(0x40)\n      tag_12\n      swap2\n      swap1\n      tag_9\n      jump\t// in\n    tag_12:\n      mload(0x40)\n      dup1\n      swap2\n      sub\n      swap1\n      return\n        /* \"scopeVasriable.sol\":1002:1141  function get2() public view returns(uint){... */\n    tag_5:\n      tag_13\n      tag_14\n      jump\t// in\n    tag_13:\n      mload(0x40)\n      tag_15\n      swap2\n      swap1\n      tag_9\n      jump\t// in\n    tag_15:\n      mload(0x40)\n      dup1\n      swap2\n      sub\n      swap1\n      return\n        /* \"scopeVasriable.sol\":448:467  uint public val = 4 */\n    tag_7:\n      sload(0x00)\n      dup2\n      jump\t// out\n        /* \"scopeVasriable.sol\":550:675  function get() public view returns(uint){... */\n    tag_11:\n        /* \"scopeVasriable.sol\":585:589  uint */\n      0x00\n        /* \"scopeVasriable.sol\":607:611  val3 */\n      sload(0x02)\n        /* \"scopeVasriable.sol\":600:611  return val3 */\n      swap1\n      pop\n        /* \"scopeVasriable.sol\":550:675  function get() public view returns(uint){... */\n      swap1\n      jump\t// out\n        /* \"scopeVasriable.sol\":1002:1141  function get2() public view returns(uint){... */\n    tag_14:\n        /* \"scopeVasriable.sol\":1038:1042  uint */\n      0x00\n        /* \"scopeVasriable.sol\":1060:1064  val2 */\n      sload(0x01)\n        /* \"scopeVasriable.sol\":1053:1064  return val2 */\n      swap1\n      pop\n        /* \"scopeVasriable.sol\":1002:1141  function get2() public view returns(uint){... */\n      swap1\n      jump\t// out\n        /* \"#utility.yul\":7:125   */\n    tag_19:\n        /* \"#utility.yul\":94:118   */\n      tag_21\n        /* \"#utility.yul\":112:117   */\n      dup2\n        /* \"#utility.yul\":94:118   */\n      tag_22\n      jump\t// in\n    tag_21:\n        /* \"#utility.yul\":89:92   */\n      dup3\n        /* \"#utility.yul\":82:119   */\n      mstore\n        /* \"#utility.yul\":72:125   */\n      pop\n      pop\n      jump\t// out\n        /* \"#utility.yul\":131:353   */\n    tag_9:\n      0x00\n        /* \"#utility.yul\":262:264   */\n      0x20\n        /* \"#utility.yul\":251:260   */\n      dup3\n        /* \"#utility.yul\":247:265   */\n      add\n        /* \"#utility.yul\":239:265   */\n      swap1\n      pop\n        /* \"#utility.yul\":275:346   */\n      tag_24\n        /* \"#utility.yul\":343:344   */\n      0x00\n        /* \"#utility.yul\":332:341   */\n      dup4\n        /* \"#utility.yul\":328:345   */\n      add\n        /* \"#utility.yul\":319:325   */\n      dup5\n        /* \"#utility.yul\":275:346   */\n      tag_19\n      jump\t// in\n    tag_24:\n        /* \"#utility.yul\":229:353   */\n      swap3\n      swap2\n      pop\n      pop\n      jump\t// out\n        /* \"#utility.yul\":359:436   */\n    tag_22:\n      0x00\n        /* \"#utility.yul\":425:430   */\n      dup2\n        /* \"#utility.yul\":414:430   */\n      swap1\n      pop\n        /* \"#utility.yul\":404:436   */\n      swap2\n      swap1\n      pop\n      jump\t// out\n\n    auxdata: 0xa2646970667358221220ec8786b6c269d7a1bbb82052c25cb93552aeeb1e17396fa7313db55768e5290664736f6c63430008010033\n}\n",
				"bytecode": {
					"linkReferences": {},
					"object": "608060405260046000556005600155600160025534801561001f57600080fd5b5061010f8061002f6000396000f3fe6080604052348015600f57600080fd5b5060043610603c5760003560e01c80633c6bb4361460415780636d4ce63c14605b578063d2178b08146075575b600080fd5b6047608f565b6040516052919060b6565b60405180910390f35b60616095565b604051606c919060b6565b60405180910390f35b607b609f565b6040516086919060b6565b60405180910390f35b60005481565b6000600254905090565b6000600154905090565b60b08160cf565b82525050565b600060208201905060c9600083018460a9565b92915050565b600081905091905056fea2646970667358221220ec8786b6c269d7a1bbb82052c25cb93552aeeb1e17396fa7313db55768e5290664736f6c63430008010033",
					"opcodes": "PUSH1 0x80 PUSH1 0x40 MSTORE PUSH1 0x4 PUSH1 0x0 SSTORE PUSH1 0x5 PUSH1 0x1 SSTORE PUSH1 0x1 PUSH1 0x2 SSTORE CALLVALUE DUP1 ISZERO PUSH2 0x1F JUMPI PUSH1 0x0 DUP1 REVERT JUMPDEST POP PUSH2 0x10F DUP1 PUSH2 0x2F PUSH1 0x0 CODECOPY PUSH1 0x0 RETURN INVALID PUSH1 0x80 PUSH1 0x40 MSTORE CALLVALUE DUP1 ISZERO PUSH1 0xF JUMPI PUSH1 0x0 DUP1 REVERT JUMPDEST POP PUSH1 0x4 CALLDATASIZE LT PUSH1 0x3C JUMPI PUSH1 0x0 CALLDATALOAD PUSH1 0xE0 SHR DUP1 PUSH4 0x3C6BB436 EQ PUSH1 0x41 JUMPI DUP1 PUSH4 0x6D4CE63C EQ PUSH1 0x5B JUMPI DUP1 PUSH4 0xD2178B08 EQ PUSH1 0x75 JUMPI JUMPDEST PUSH1 0x0 DUP1 REVERT JUMPDEST PUSH1 0x47 PUSH1 0x8F JUMP JUMPDEST PUSH1 0x40 MLOAD PUSH1 0x52 SWAP2 SWAP1 PUSH1 0xB6 JUMP JUMPDEST PUSH1 0x40 MLOAD DUP1 SWAP2 SUB SWAP1 RETURN JUMPDEST PUSH1 0x61 PUSH1 0x95 JUMP JUMPDEST PUSH1 0x40 MLOAD PUSH1 0x6C SWAP2 SWAP1 PUSH1 0xB6 JUMP JUMPDEST PUSH1 0x40 MLOAD DUP1 SWAP2 SUB SWAP1 RETURN JUMPDEST PUSH1 0x7B PUSH1 0x9F JUMP JUMPDEST PUSH1 0x40 MLOAD PUSH1 0x86 SWAP2 SWAP1 PUSH1 0xB6 JUMP JUMPDEST PUSH1 0x40 MLOAD DUP1 SWAP2 SUB SWAP1 RETURN JUMPDEST PUSH1 0x0 SLOAD DUP2 JUMP JUMPDEST PUSH1 0x0 PUSH1 0x2 SLOAD SWAP1 POP SWAP1 JUMP JUMPDEST PUSH1 0x0 PUSH1 0x1 SLOAD SWAP1 POP SWAP1 JUMP JUMPDEST PUSH1 0xB0 DUP2 PUSH1 0xCF JUMP JUMPDEST DUP3 MSTORE POP POP JUMP JUMPDEST PUSH1 0x0 PUSH1 0x20 DUP3 ADD SWAP1 POP PUSH1 0xC9 PUSH1 0x0 DUP4 ADD DUP5 PUSH1 0xA9 JUMP JUMPDEST SWAP3 SWAP2 POP POP JUMP JUMPDEST PUSH1 0x0 DUP2 SWAP1 POP SWAP2 SWAP1 POP JUMP INVALID LOG2 PUSH5 0x6970667358 0x22 SLT KECCAK256 0xEC DUP8 DUP7 0xB6 0xC2 PUSH10 0xD7A1BBB82052C25CB935 MSTORE 0xAE 0xEB 0x1E OR CODECOPY PUSH16 0xA7313DB55768E5290664736F6C634300 ADDMOD ADD STOP CALLER "
				},
				"gasEstimates": {
					"creation": {
						"codeDepositCost": "54200",
						"executionCost": "60123",
						"totalCost": "114323"
					},
					"external": {
						"get()": "1137",
						"get2()": "1159",
						"val()": "1107"
					}
				},
				"methodIdentifiers": {
					"get()": "6d4ce63c",
					"get2()": "d2178b08",
					"val()": "3c6bb436"
				}
			},
			"storageLayout": {
				"storage": [
					{
						"astId": 4,
						"contract": "scopeVasriable.sol:scopeVariables2",
						"label": "val",
						"offset": 0,
						"slot": "0",
						"type": "t_uint256"
					},
					{
						"astId": 15,
						"contract": "scopeVasriable.sol:scopeVariables2",
						"label": "val2",
						"offset": 0,
						"slot": "1",
						"type": "t_uint256"
					},
					{
						"astId": 18,
						"contract": "scopeVasriable.sol:scopeVariables2",
						"label": "val3",
						"offset": 0,
						"slot": "2",
						"type": "t_uint256"
					}
				],
				"types": {
					"t_uint256": {
						"encoding": "inplace",
						"label": "uint256",
						"numberOfBytes": "32"
					}
				}
			},
			"userdoc": {
				"kind": "user",
				"methods": {},
				"version": 1
			}
		}
	}
}