{
	"enums.sol": {
		"enums": {
			"abi": [
				{
					"inputs": [],
					"name": "choice",
					"outputs": [
						{
							"internalType": "enum enums.size",
							"name": "",
							"type": "uint8"
						}
					],
					"stateMutability": "view",
					"type": "function"
				},
				{
					"inputs": [],
					"name": "setLarge",
					"outputs": [],
					"stateMutability": "nonpayable",
					"type": "function"
				},
				{
					"inputs": [],
					"name": "setMedium",
					"outputs": [],
					"stateMutability": "nonpayable",
					"type": "function"
				},
				{
					"inputs": [],
					"name": "setSmall",
					"outputs": [],
					"stateMutability": "nonpayable",
					"type": "function"
				}
			],
			"devdoc": {
				"kind": "dev",
				"methods": {},
				"version": 1
			},
			"evm": {
				"assembly": "    /* \"enums.sol\":67:489  contract enums{... */\n  mstore(0x40, 0x80)\n    /* \"enums.sol\":150:161  size.medium */\n  0x01\n    /* \"enums.sol\":129:161  size public choice = size.medium */\n  0x00\n  dup1\n  0x0100\n  exp\n  dup2\n  sload\n  dup2\n  0xff\n  mul\n  not\n  and\n  swap1\n  dup4\n  0x02\n  dup2\n  gt\n  iszero\n  tag_1\n  jumpi\n  tag_2\n  tag_3\n  jump\t// in\ntag_2:\ntag_1:\n  mul\n  or\n  swap1\n  sstore\n  pop\n    /* \"enums.sol\":67:489  contract enums{... */\n  callvalue\n  dup1\n  iszero\n  tag_4\n  jumpi\n  0x00\n  dup1\n  revert\ntag_4:\n  pop\n  jump(tag_5)\n    /* \"#utility.yul\":7:187   */\ntag_3:\n    /* \"#utility.yul\":55:132   */\n  0x4e487b7100000000000000000000000000000000000000000000000000000000\n    /* \"#utility.yul\":52:53   */\n  0x00\n    /* \"#utility.yul\":45:133   */\n  mstore\n    /* \"#utility.yul\":152:156   */\n  0x21\n    /* \"#utility.yul\":149:150   */\n  0x04\n    /* \"#utility.yul\":142:157   */\n  mstore\n    /* \"#utility.yul\":176:180   */\n  0x24\n    /* \"#utility.yul\":173:174   */\n  0x00\n    /* \"#utility.yul\":166:181   */\n  revert\n    /* \"enums.sol\":67:489  contract enums{... */\ntag_5:\n  dataSize(sub_0)\n  dup1\n  dataOffset(sub_0)\n  0x00\n  codecopy\n  0x00\n  return\nstop\n\nsub_0: assembly {\n        /* \"enums.sol\":67:489  contract enums{... */\n      mstore(0x40, 0x80)\n      callvalue\n      dup1\n      iszero\n      tag_1\n      jumpi\n      0x00\n      dup1\n      revert\n    tag_1:\n      pop\n      jumpi(tag_2, lt(calldatasize, 0x04))\n      shr(0xe0, calldataload(0x00))\n      dup1\n      0x694ebe4f\n      eq\n      tag_3\n      jumpi\n      dup1\n      0x91ff2c86\n      eq\n      tag_4\n      jumpi\n      dup1\n      0x98f42fe3\n      eq\n      tag_5\n      jumpi\n      dup1\n      0xdb39b915\n      eq\n      tag_6\n      jumpi\n    tag_2:\n      0x00\n      dup1\n      revert\n        /* \"enums.sol\":418:481  function setLarge() public {... */\n    tag_3:\n      tag_7\n      tag_8\n      jump\t// in\n    tag_7:\n      stop\n        /* \"enums.sol\":274:337  function setSmall() public {... */\n    tag_4:\n      tag_9\n      tag_10\n      jump\t// in\n    tag_9:\n      stop\n        /* \"enums.sol\":129:161  size public choice = size.medium */\n    tag_5:\n      tag_11\n      tag_12\n      jump\t// in\n    tag_11:\n      mload(0x40)\n      tag_13\n      swap2\n      swap1\n      tag_14\n      jump\t// in\n    tag_13:\n      mload(0x40)\n      dup1\n      swap2\n      sub\n      swap1\n      return\n        /* \"enums.sol\":343:408  function setMedium() public {... */\n    tag_6:\n      tag_15\n      tag_16\n      jump\t// in\n    tag_15:\n      stop\n        /* \"enums.sol\":418:481  function setLarge() public {... */\n    tag_8:\n        /* \"enums.sol\":464:474  size.large */\n      0x02\n        /* \"enums.sol\":455:461  choice */\n      0x00\n      dup1\n        /* \"enums.sol\":455:474  choice = size.large */\n      0x0100\n      exp\n      dup2\n      sload\n      dup2\n      0xff\n      mul\n      not\n      and\n      swap1\n      dup4\n      0x02\n      dup2\n      gt\n      iszero\n      tag_18\n      jumpi\n      tag_19\n      tag_20\n      jump\t// in\n    tag_19:\n    tag_18:\n      mul\n      or\n      swap1\n      sstore\n      pop\n        /* \"enums.sol\":418:481  function setLarge() public {... */\n      jump\t// out\n        /* \"enums.sol\":274:337  function setSmall() public {... */\n    tag_10:\n        /* \"enums.sol\":320:330  size.small */\n      0x00\n        /* \"enums.sol\":311:317  choice */\n      dup1\n      0x00\n        /* \"enums.sol\":311:330  choice = size.small */\n      0x0100\n      exp\n      dup2\n      sload\n      dup2\n      0xff\n      mul\n      not\n      and\n      swap1\n      dup4\n      0x02\n      dup2\n      gt\n      iszero\n      tag_22\n      jumpi\n      tag_23\n      tag_20\n      jump\t// in\n    tag_23:\n    tag_22:\n      mul\n      or\n      swap1\n      sstore\n      pop\n        /* \"enums.sol\":274:337  function setSmall() public {... */\n      jump\t// out\n        /* \"enums.sol\":129:161  size public choice = size.medium */\n    tag_12:\n      0x00\n      dup1\n      sload\n      swap1\n      0x0100\n      exp\n      swap1\n      div\n      0xff\n      and\n      dup2\n      jump\t// out\n        /* \"enums.sol\":343:408  function setMedium() public {... */\n    tag_16:\n        /* \"enums.sol\":390:401  size.medium */\n      0x01\n        /* \"enums.sol\":381:387  choice */\n      0x00\n      dup1\n        /* \"enums.sol\":381:401  choice = size.medium */\n      0x0100\n      exp\n      dup2\n      sload\n      dup2\n      0xff\n      mul\n      not\n      and\n      swap1\n      dup4\n      0x02\n      dup2\n      gt\n      iszero\n      tag_25\n      jumpi\n      tag_26\n      tag_20\n      jump\t// in\n    tag_26:\n    tag_25:\n      mul\n      or\n      swap1\n      sstore\n      pop\n        /* \"enums.sol\":343:408  function setMedium() public {... */\n      jump\t// out\n        /* \"#utility.yul\":7:146   */\n    tag_28:\n        /* \"#utility.yul\":98:139   */\n      tag_30\n        /* \"#utility.yul\":133:138   */\n      dup2\n        /* \"#utility.yul\":98:139   */\n      tag_31\n      jump\t// in\n    tag_30:\n        /* \"#utility.yul\":93:96   */\n      dup3\n        /* \"#utility.yul\":86:140   */\n      mstore\n        /* \"#utility.yul\":7:146   */\n      pop\n      pop\n      jump\t// out\n        /* \"#utility.yul\":152:382   */\n    tag_14:\n        /* \"#utility.yul\":249:253   */\n      0x00\n        /* \"#utility.yul\":287:289   */\n      0x20\n        /* \"#utility.yul\":276:285   */\n      dup3\n        /* \"#utility.yul\":272:290   */\n      add\n        /* \"#utility.yul\":264:290   */\n      swap1\n      pop\n        /* \"#utility.yul\":300:375   */\n      tag_33\n        /* \"#utility.yul\":372:373   */\n      0x00\n        /* \"#utility.yul\":361:370   */\n      dup4\n        /* \"#utility.yul\":357:374   */\n      add\n        /* \"#utility.yul\":348:354   */\n      dup5\n        /* \"#utility.yul\":300:375   */\n      tag_28\n      jump\t// in\n    tag_33:\n        /* \"#utility.yul\":152:382   */\n      swap3\n      swap2\n      pop\n      pop\n      jump\t// out\n        /* \"#utility.yul\":388:511   */\n    tag_34:\n        /* \"#utility.yul\":431:438   */\n      0x00\n        /* \"#utility.yul\":460:465   */\n      dup2\n        /* \"#utility.yul\":449:465   */\n      swap1\n      pop\n        /* \"#utility.yul\":466:505   */\n      tag_36\n        /* \"#utility.yul\":499:504   */\n      dup3\n        /* \"#utility.yul\":466:505   */\n      tag_37\n      jump\t// in\n    tag_36:\n        /* \"#utility.yul\":388:511   */\n      swap2\n      swap1\n      pop\n      jump\t// out\n        /* \"#utility.yul\":517:640   */\n    tag_31:\n        /* \"#utility.yul\":571:580   */\n      0x00\n        /* \"#utility.yul\":604:634   */\n      tag_39\n        /* \"#utility.yul\":628:633   */\n      dup3\n        /* \"#utility.yul\":604:634   */\n      tag_34\n      jump\t// in\n    tag_39:\n        /* \"#utility.yul\":591:634   */\n      swap1\n      pop\n        /* \"#utility.yul\":517:640   */\n      swap2\n      swap1\n      pop\n      jump\t// out\n        /* \"#utility.yul\":646:826   */\n    tag_20:\n        /* \"#utility.yul\":694:771   */\n      0x4e487b7100000000000000000000000000000000000000000000000000000000\n        /* \"#utility.yul\":691:692   */\n      0x00\n        /* \"#utility.yul\":684:772   */\n      mstore\n        /* \"#utility.yul\":791:795   */\n      0x21\n        /* \"#utility.yul\":788:789   */\n      0x04\n        /* \"#utility.yul\":781:796   */\n      mstore\n        /* \"#utility.yul\":815:819   */\n      0x24\n        /* \"#utility.yul\":812:813   */\n      0x00\n        /* \"#utility.yul\":805:820   */\n      revert\n        /* \"#utility.yul\":832:943   */\n    tag_37:\n        /* \"#utility.yul\":911:912   */\n      0x03\n        /* \"#utility.yul\":904:909   */\n      dup2\n        /* \"#utility.yul\":901:913   */\n      lt\n        /* \"#utility.yul\":891:937   */\n      tag_42\n      jumpi\n        /* \"#utility.yul\":917:935   */\n      tag_43\n      tag_20\n      jump\t// in\n    tag_43:\n        /* \"#utility.yul\":891:937   */\n    tag_42:\n        /* \"#utility.yul\":832:943   */\n      pop\n      jump\t// out\n\n    auxdata: 0xa2646970667358221220b8d77c7a6db8afde26be1ea48b51f8c945f656374291fa8c02badc2544d0732064736f6c63430008070033\n}\n",
				"bytecode": {
					"linkReferences": {},
					"object": "608060405260016000806101000a81548160ff0219169083600281111561002957610028610040565b5b021790555034801561003a57600080fd5b5061006f565b7f4e487b7100000000000000000000000000000000000000000000000000000000600052602160045260246000fd5b6101ea8061007e6000396000f3fe608060405234801561001057600080fd5b506004361061004c5760003560e01c8063694ebe4f1461005157806391ff2c861461005b57806398f42fe314610065578063db39b91514610083575b600080fd5b61005961008d565b005b6100636100b9565b005b61006d6100e5565b60405161007a9190610131565b60405180910390f35b61008b6100f6565b005b60026000806101000a81548160ff021916908360028111156100b2576100b1610171565b5b0217905550565b60008060006101000a81548160ff021916908360028111156100de576100dd610171565b5b0217905550565b60008054906101000a900460ff1681565b60016000806101000a81548160ff0219169083600281111561011b5761011a610171565b5b0217905550565b61012b8161015f565b82525050565b60006020820190506101466000830184610122565b92915050565b600081905061015a826101a0565b919050565b600061016a8261014c565b9050919050565b7f4e487b7100000000000000000000000000000000000000000000000000000000600052602160045260246000fd5b600381106101b1576101b0610171565b5b5056fea2646970667358221220b8d77c7a6db8afde26be1ea48b51f8c945f656374291fa8c02badc2544d0732064736f6c63430008070033",
					"opcodes": "PUSH1 0x80 PUSH1 0x40 MSTORE PUSH1 0x1 PUSH1 0x0 DUP1 PUSH2 0x100 EXP DUP2 SLOAD DUP2 PUSH1 0xFF MUL NOT AND SWAP1 DUP4 PUSH1 0x2 DUP2 GT ISZERO PUSH2 0x29 JUMPI PUSH2 0x28 PUSH2 0x40 JUMP JUMPDEST JUMPDEST MUL OR SWAP1 SSTORE POP CALLVALUE DUP1 ISZERO PUSH2 0x3A JUMPI PUSH1 0x0 DUP1 REVERT JUMPDEST POP PUSH2 0x6F JUMP JUMPDEST PUSH32 0x4E487B7100000000000000000000000000000000000000000000000000000000 PUSH1 0x0 MSTORE PUSH1 0x21 PUSH1 0x4 MSTORE PUSH1 0x24 PUSH1 0x0 REVERT JUMPDEST PUSH2 0x1EA DUP1 PUSH2 0x7E PUSH1 0x0 CODECOPY PUSH1 0x0 RETURN INVALID PUSH1 0x80 PUSH1 0x40 MSTORE CALLVALUE DUP1 ISZERO PUSH2 0x10 JUMPI PUSH1 0x0 DUP1 REVERT JUMPDEST POP PUSH1 0x4 CALLDATASIZE LT PUSH2 0x4C JUMPI PUSH1 0x0 CALLDATALOAD PUSH1 0xE0 SHR DUP1 PUSH4 0x694EBE4F EQ PUSH2 0x51 JUMPI DUP1 PUSH4 0x91FF2C86 EQ PUSH2 0x5B JUMPI DUP1 PUSH4 0x98F42FE3 EQ PUSH2 0x65 JUMPI DUP1 PUSH4 0xDB39B915 EQ PUSH2 0x83 JUMPI JUMPDEST PUSH1 0x0 DUP1 REVERT JUMPDEST PUSH2 0x59 PUSH2 0x8D JUMP JUMPDEST STOP JUMPDEST PUSH2 0x63 PUSH2 0xB9 JUMP JUMPDEST STOP JUMPDEST PUSH2 0x6D PUSH2 0xE5 JUMP JUMPDEST PUSH1 0x40 MLOAD PUSH2 0x7A SWAP2 SWAP1 PUSH2 0x131 JUMP JUMPDEST PUSH1 0x40 MLOAD DUP1 SWAP2 SUB SWAP1 RETURN JUMPDEST PUSH2 0x8B PUSH2 0xF6 JUMP JUMPDEST STOP JUMPDEST PUSH1 0x2 PUSH1 0x0 DUP1 PUSH2 0x100 EXP DUP2 SLOAD DUP2 PUSH1 0xFF MUL NOT AND SWAP1 DUP4 PUSH1 0x2 DUP2 GT ISZERO PUSH2 0xB2 JUMPI PUSH2 0xB1 PUSH2 0x171 JUMP JUMPDEST JUMPDEST MUL OR SWAP1 SSTORE POP JUMP JUMPDEST PUSH1 0x0 DUP1 PUSH1 0x0 PUSH2 0x100 EXP DUP2 SLOAD DUP2 PUSH1 0xFF MUL NOT AND SWAP1 DUP4 PUSH1 0x2 DUP2 GT ISZERO PUSH2 0xDE JUMPI PUSH2 0xDD PUSH2 0x171 JUMP JUMPDEST JUMPDEST MUL OR SWAP1 SSTORE POP JUMP JUMPDEST PUSH1 0x0 DUP1 SLOAD SWAP1 PUSH2 0x100 EXP SWAP1 DIV PUSH1 0xFF AND DUP2 JUMP JUMPDEST PUSH1 0x1 PUSH1 0x0 DUP1 PUSH2 0x100 EXP DUP2 SLOAD DUP2 PUSH1 0xFF MUL NOT AND SWAP1 DUP4 PUSH1 0x2 DUP2 GT ISZERO PUSH2 0x11B JUMPI PUSH2 0x11A PUSH2 0x171 JUMP JUMPDEST JUMPDEST MUL OR SWAP1 SSTORE POP JUMP JUMPDEST PUSH2 0x12B DUP2 PUSH2 0x15F JUMP JUMPDEST DUP3 MSTORE POP POP JUMP JUMPDEST PUSH1 0x0 PUSH1 0x20 DUP3 ADD SWAP1 POP PUSH2 0x146 PUSH1 0x0 DUP4 ADD DUP5 PUSH2 0x122 JUMP JUMPDEST SWAP3 SWAP2 POP POP JUMP JUMPDEST PUSH1 0x0 DUP2 SWAP1 POP PUSH2 0x15A DUP3 PUSH2 0x1A0 JUMP JUMPDEST SWAP2 SWAP1 POP JUMP JUMPDEST PUSH1 0x0 PUSH2 0x16A DUP3 PUSH2 0x14C JUMP JUMPDEST SWAP1 POP SWAP2 SWAP1 POP JUMP JUMPDEST PUSH32 0x4E487B7100000000000000000000000000000000000000000000000000000000 PUSH1 0x0 MSTORE PUSH1 0x21 PUSH1 0x4 MSTORE PUSH1 0x24 PUSH1 0x0 REVERT JUMPDEST PUSH1 0x3 DUP2 LT PUSH2 0x1B1 JUMPI PUSH2 0x1B0 PUSH2 0x171 JUMP JUMPDEST JUMPDEST POP JUMP INVALID LOG2 PUSH5 0x6970667358 0x22 SLT KECCAK256 0xB8 0xD7 PUSH29 0x7A6DB8AFDE26BE1EA48B51F8C945F656374291FA8C02BADC2544D07320 PUSH5 0x736F6C6343 STOP ADDMOD SMOD STOP CALLER "
				},
				"gasEstimates": {
					"creation": {
						"codeDepositCost": "98000",
						"executionCost": "24446",
						"totalCost": "122446"
					},
					"external": {
						"choice()": "2579",
						"setLarge()": "24409",
						"setMedium()": "24475",
						"setSmall()": "24431"
					}
				},
				"methodIdentifiers": {
					"choice()": "98f42fe3",
					"setLarge()": "694ebe4f",
					"setMedium()": "db39b915",
					"setSmall()": "91ff2c86"
				}
			},
			"storageLayout": {
				"storage": [
					{
						"astId": 10,
						"contract": "enums.sol:enums",
						"label": "choice",
						"offset": 0,
						"slot": "0",
						"type": "t_enum(size)5"
					}
				],
				"types": {
					"t_enum(size)5": {
						"encoding": "inplace",
						"label": "enum enums.size",
						"numberOfBytes": "1"
					}
				}
			},
			"userdoc": {
				"kind": "user",
				"methods": {},
				"version": 1
			}
		}
	}
}