{
	"data": {
		"bytecode": {
			"linkReferences": {},
			"object": "60806040526004600055600560015534801561001a57600080fd5b5061010f8061002a6000396000f3fe6080604052348015600f57600080fd5b5060043610603c5760003560e01c80630dbe671f1460415780634df7e3d014605b5780636d4ce63c146075575b600080fd5b6047608f565b6040516052919060b6565b60405180910390f35b60616095565b604051606c919060b6565b60405180910390f35b607b609b565b6040516086919060b6565b60405180910390f35b60005481565b60015481565b600060015460005416905090565b60b08160cf565b82525050565b600060208201905060c9600083018460a9565b92915050565b600081905091905056fea264697066735822122019fdca002fe036955af3b3dc9b01cdedbacf451c204e59770b8925044844c47264736f6c63430008010033",
			"opcodes": "PUSH1 0x80 PUSH1 0x40 MSTORE PUSH1 0x4 PUSH1 0x0 SSTORE PUSH1 0x5 PUSH1 0x1 SSTORE CALLVALUE DUP1 ISZERO PUSH2 0x1A JUMPI PUSH1 0x0 DUP1 REVERT JUMPDEST POP PUSH2 0x10F DUP1 PUSH2 0x2A PUSH1 0x0 CODECOPY PUSH1 0x0 RETURN INVALID PUSH1 0x80 PUSH1 0x40 MSTORE CALLVALUE DUP1 ISZERO PUSH1 0xF JUMPI PUSH1 0x0 DUP1 REVERT JUMPDEST POP PUSH1 0x4 CALLDATASIZE LT PUSH1 0x3C JUMPI PUSH1 0x0 CALLDATALOAD PUSH1 0xE0 SHR DUP1 PUSH4 0xDBE671F EQ PUSH1 0x41 JUMPI DUP1 PUSH4 0x4DF7E3D0 EQ PUSH1 0x5B JUMPI DUP1 PUSH4 0x6D4CE63C EQ PUSH1 0x75 JUMPI JUMPDEST PUSH1 0x0 DUP1 REVERT JUMPDEST PUSH1 0x47 PUSH1 0x8F JUMP JUMPDEST PUSH1 0x40 MLOAD PUSH1 0x52 SWAP2 SWAP1 PUSH1 0xB6 JUMP JUMPDEST PUSH1 0x40 MLOAD DUP1 SWAP2 SUB SWAP1 RETURN JUMPDEST PUSH1 0x61 PUSH1 0x95 JUMP JUMPDEST PUSH1 0x40 MLOAD PUSH1 0x6C SWAP2 SWAP1 PUSH1 0xB6 JUMP JUMPDEST PUSH1 0x40 MLOAD DUP1 SWAP2 SUB SWAP1 RETURN JUMPDEST PUSH1 0x7B PUSH1 0x9B JUMP JUMPDEST PUSH1 0x40 MLOAD PUSH1 0x86 SWAP2 SWAP1 PUSH1 0xB6 JUMP JUMPDEST PUSH1 0x40 MLOAD DUP1 SWAP2 SUB SWAP1 RETURN JUMPDEST PUSH1 0x0 SLOAD DUP2 JUMP JUMPDEST PUSH1 0x1 SLOAD DUP2 JUMP JUMPDEST PUSH1 0x0 PUSH1 0x1 SLOAD PUSH1 0x0 SLOAD AND SWAP1 POP SWAP1 JUMP JUMPDEST PUSH1 0xB0 DUP2 PUSH1 0xCF JUMP JUMPDEST DUP3 MSTORE POP POP JUMP JUMPDEST PUSH1 0x0 PUSH1 0x20 DUP3 ADD SWAP1 POP PUSH1 0xC9 PUSH1 0x0 DUP4 ADD DUP5 PUSH1 0xA9 JUMP JUMPDEST SWAP3 SWAP2 POP POP JUMP JUMPDEST PUSH1 0x0 DUP2 SWAP1 POP SWAP2 SWAP1 POP JUMP INVALID LOG2 PUSH5 0x6970667358 0x22 SLT KECCAK256 NOT REVERT 0xCA STOP 0x2F 0xE0 CALLDATASIZE SWAP6 GAS RETURN 0xB3 0xDC SWAP12 ADD 0xCD 0xED 0xBA 0xCF GASLIMIT SHR KECCAK256 0x4E MSIZE PUSH24 0xB8925044844C47264736F6C634300080100330000000000 "
		},
		"gasEstimates": {
			"creation": {
				"codeDepositCost": "54200",
				"executionCost": "40117",
				"totalCost": "94317"
			},
			"external": {
				"a()": "1107",
				"b()": "1129",
				"get()": "1965"
			}
		},
		"methodIdentifiers": {
			"a()": "0dbe671f",
			"b()": "4df7e3d0",
			"get()": "6d4ce63c"
		}
	},
	"abi": [
		{
			"inputs": [],
			"name": "a",
			"outputs": [
				{
					"internalType": "uint256",
					"name": "",
					"type": "uint256"
				}
			],
			"stateMutability": "view",
			"type": "function"
		},
		{
			"inputs": [],
			"name": "b",
			"outputs": [
				{
					"internalType": "uint256",
					"name": "",
					"type": "uint256"
				}
			],
			"stateMutability": "view",
			"type": "function"
		},
		{
			"inputs": [],
			"name": "get",
			"outputs": [
				{
					"internalType": "uint256",
					"name": "",
					"type": "uint256"
				}
			],
			"stateMutability": "view",
			"type": "function"
		}
	]
}